:020000040000FA
:08000000803102288731EA2F4C
:10000E000800F4007408F2007208F30012280130A0
:10001E00F2007208F40774088600013087000108A8
:10002E00031D1A281B280E2873087402F000F10114
:10003E00F01BF1030800F20120308600003087002B
:10004E00473FF000F01F2C282D284E282000A00935
:10005E00A109A209A309A409A509A609A709A00A2D
:10006E00031D4C28A10A031D4C28A20A031D4C286F
:10007E00A30A031D4C28A40A031D4C28A50A031D20
:10008E004C28A60A031D4C28A70AF201F20A2830B2
:10009E00860000308700473FF000F01F5728582891
:1000AE007B282000A809A909AA09AB09AC09AD094A
:1000BE00AE09AF09A80A031D7728A90A031D7728E0
:1000CE00AA0A031D7728AB0A031D7728AC0A031D65
:1000DE007728AD0A031D7728AE0A031D7728AF0ACD
:1000EE000130F0007008F206733086000030870091
:1000FE000830F00000301E00F00B8228200020088F
:10010E0021042204230424042504260427040319AD
:10011E0091289228EE28F101F10AA128A035A10D0F
:10012E00A20DA30DA40DA50DA60DA70D0130F00077
:10013E007008F107A71FA428A5289528F335F40DFC
:10014E00F50DF60DF70DF80DF90DFA0D27082F0226
:10015E00031DCB2826082E02031DCB2825082D02B1
:10016E00031DCB2824082C02031DCB2823082B02A9
:10017E00031DCB2822082A02031DCB2821082902A1
:10018E00031DCB2820082802031CCE28CF28E028E8
:10019E002008A8022108A93B2208AA3B2308AB3B52
:1001AE002408AC3B2508AD3B2608AE3B2708AF3BE9
:1001BE007314A736A60CA50CA40CA30CA20CA10CB0
:1001CE00A00C0130F102031DED28EE28A5287208BF
:1001DE000319F228F3281129F309F409F509F60990
:1001EE00F709F809F909FA09F30A031D1129F40AA6
:1001FE00031D1129F50A031D1129F60A031D1129E4
:10020E00F70A031D1129F80A031D1129F90A031D06
:10021E001129FA0A73082000A0007408A1007508BD
:10022E00A2007608A3007708A4007808A500790834
:10023E00A6007A08A70008002100BC00BA01BB0185
:10024E00200044082100D000200043082100CF00E8
:10025E00200042082100CE00200041082100CD00E0
:10026E0050082000B80021004F082000B7002100E0
:10027E004E082000B60021004D082000B5000030C9
:10028E00BC000030BB000030BA000030B900913124
:10029E00F62181310318542955296E290130210088
:1002AE00BA000030BB005008F3004F08F2004E08B1
:1002BE00F1004D08F0009C31F624813173082100C5
:1002CE00D0007208CF007108CE007008CD0021005A
:1002DE00D301D401220051082100C1002200500890
:1002EE002100C0003A083B04031D7E297F29832983
:1002FE006D1D82298329A1293A083B04031D8829F3
:10030E0089298E292B30A4000030A50092292D308A
:10031E00A4000030A50024082000C60046082300D3
:10032E00A00001302100D3070030D43DFF30C007BC
:10033E00FF30C13D5008F3004F08F2004E08F100A7
:10034E004D08F00091317721813170037104031D46
:10035E00B129B229042A20004508BF3EC600FF304D
:10036E0003180030C700003047021A300319460246
:10037E00031CC229C4290130C5290030C800C90197
:10038E0048082100A600200049082100A7002608E1
:10039E0027040319D329D429DE291130F000A03007
:1003AE00F1005308A03E9D3193258131E729193084
:1003BE00F000A030F1005308A03E9D31932581310D
:1003CE00FD302100C007FF30C13DA0302000C60027
:1003DE004608A400210041082000A6002100400884
:1003EE002000A50021003C089031AA208131200078
:1003FE002508C2002408C100E92F21005008F3008F
:10040E004F08F2004E08F1004D08F00091317721AF
:10041E00813170087104031D152A162A682A2000DE
:10042E004508BF3EC600FF3003180030C70000303D
:10043E0047021A3003194602031C262A282A0130C5
:10044E00292A0030C800C90148082100A800200050
:10045E0049082100A900280829040319372A382A37
:10046E00422A1530F000A030F1005308A03E9D3115
:10047E00932581314B2A1D30F000A030F100530836
:10048E00A03E9D3193258131FD302100C007FF3004
:10049E00C13DA0302000C6004608A400210041083E
:1004AE002000A600210040082000A50021003C08E5
:1004BE009031AA20813120002508C2002408C100F5
:1004CE00E92F3F302100D8008030D7000030D60011
:1004DE000030D500D101D2015008F3004F08F200D0
:1004EE004E08F1004D08F0000030F7000030F60025
:1004FE000030F5000030F4009F315F278131031882
:10050E00892A8A2A3F2BBB2A41302000A3002030A3
:10051E00A2000030A1000030A000210058082000E9
:10052E00A700210057082000A60021005608200031
:10053E00A500210055082000A4008D31A925813188
:10054E00200023082100D800200022082100D70017
:10055E00200021082100D600200020082100D5000F
:10056E000130D1070030D23D210050082000B800E4
:10057E0021004F082000B70021004E082000B600D1
:10058E0021004D082000B5004130A3002030A2000C
:10059E000030A1000030A000210058082000A70064
:1005AE00210057082000A600210056082000A500B3
:1005BE00210055082000A4008D31A925813120008D
:1005CE002308BC002208BB002108BA002008B9008D
:1005DE009131F62181310318F52AF62A8B2A182B30
:1005EE004130F3002030F2000030F1000030F00016
:1005FE0021005808F7005708F6005608F500550870
:10060E00F40096314C26813173082100D80072080F
:10061E00D7007108D6007008D500FF30D107FF3023
:10062E00D23D210050082000B80021004F082000C4
:10063E00B70021004E082000B60021004D08200012
:10064E00B500210058082000BC00210057082000EA
:10065E00BB00210056082000BA00210055082000DA
:10066E00B9009131F6218131031C3E2B3F2BF72A25
:10067E0020004508C600C7014608F6004708F700E7
:10068E009D31F925813176082000C80048082100E7
:10069E00C20042082000C60046082100BF00673095
:1006AE004206031D5B2B5C2B852B22005208530444
:1006BE00031D622B632B672B0130D2000030D30059
:1006CE005308803A2000C60080304602031D722B6C
:1006DE000130220052020318752B762B7C2B06302C
:1006EE002100BD000030BE008B2B220053082100DC
:1006FE00BE00220052082100BD008B2B2200D31B0E
:10070E00892B8A2B762B7C2B67304206031D902B70
:10071E00912BC92B5208803A2000C6007F3046022A
:10072E00031D9C2BFC3021005102031C9F2BA02B80
:10073E00C32B21003D08FF3E2000C600FF302100E4
:10074E003E3D2000C7004708803AC80021005208ED
:10075E00803A20004802031DB82B210051082000CA
:10076E004602031CBB2BBC2BC32B66302000C600DD
:10077E0046082100BF00C92B65302000C600460880
:10078E002100BF003E08B5003D08B40067304206A8
:10079E00031DD22BD32BDD2B66303F06031DD82B2A
:1007AE00D92BE12BD21FDC2BDD2BE12B0130B40733
:1007BE000030B53D66303F06031DE62BE72BFF2BC1
:1007CE00D21FEA2BEB2BF52B3F30D8008030D70011
:1007DE000030D6000030D500D101D201673042067C
:1007EE000319FA2BFB2BFF2B5108B4075208B53D0A
:1007FE00CB01CC015008C6004F08C5004E08C400FE
:10080E004D08C3005808A3005708A2005608A100BF
:10081E005508A000C02C21005808F3005708F2001C
:10082E005608F1005508F0004608F7004508F60096
:10083E004408F5004308F40096314C2681317308C4
:10084E002000B0007208AF007108AE007008AD0055
:10085E00883173208131200030082100CA00200029
:10086E002F082100C90020002E082100C8002000FA
:10087E002D082100C7004A08F3004908F200480875
:10088E00F1004708F00091310321813171082100F8
:10089E00B9007008B8004A082000A70021004908D6
:1008AE002000A600210048082000A50021004708CE
:1008BE002000A400210058082000A30021005708A2
:1008CE002000A200210056082000A100210055089A
:1008DE002000A0008D31A925813120002308B80009
:1008EE002208B7002108B6002008B50021004608EE
:1008FE002000BC00210045082000BB002100440858
:10090E002000BA00210043082000B9009D31732554
:10091E008131200038082100C60020003708210050
:10092E00C500200036082100C40020003508210033
:10093E00C3004130F3002030F2000030F1000030EF
:10094E00F0005808F7005708F6005608F50055084D
:10095E00F40096314C26813173082100D8007208BC
:10096E00D7007108D6007008D5000130CB070030D3
:10097E00CC3D4C08803A2000C60021003508803A54
:10098E0020004602031DCE2C210034084B02031C0E
:10099E00D12CD22C122C40302000A300A030A2006B
:1009AE000030A1000030A000210058082000A70050
:1009BE00210057082000A600210056082000A5009F
:1009CE00210055082000A4008D31A9258131200079
:1009DE0023082100CA00200022082100C90020009F
:1009EE0021082100C800200020082100C700460869
:1009FE002000B800210045082000B700210044085F
:100A0E002000B600210043082000B50021004A084E
:100A1E002000BC00210049082000BB00210048082E
:100A2E002000BA00210047082000B9009131F621BC
:100A3E0081310318232D242D2E2D00302100CA00C4
:100A4E000030C9000030C8000030C700532D21000F
:100A5E004608F3004508F2004408F1004308F00090
:100A6E004A08F7004908F6004808F5004708F40060
:100A7E009F315F278131031C452D462D532D2100BB
:100A8E0038184A2D4B2D532D0030CA000030C900A6
:100A9E000030C8000030C70021004A08F3004908A2
:100AAE00F2004808F1004708F0005008F7004F0820
:100ABE00F6004E08F5004D08F4008B316A238131A3
:100ACE0073082100C6007208C5007108C4007008C2
:100ADE00C3002308D8002208D7002108D60020081A
:100AEE00D50065303F0603197D2D7E2D832D5208CE
:100AFE00B7005108B600852DB601B701B201B3019A
:100B0E00B001B101CB01CC01B02E21005808F30089
:100B1E005708F2005608F1005508F0004608F70095
:100B2E004508F6004408F5004308F40096314C26BB
:100B3E00813173082000B0007208AF007108AE005A
:100B4E007008AD00883173208131200030082100FB
:100B5E00CA0020002F082100C90020002E08210005
:100B6E00C80020002D082100C7004A08F3004908DC
:100B7E00F2004808F1004708F0009131032181315D
:100B8E0071082100B9007008B8006D1ACF2DD02D54
:100B9E00E52D38083904031DD52DD62DE52D6730EA
:100BAE004206031DDB2DDC2DE52DB71FDF2DE02DBD
:100BBE00E52D0130B0070030B13D3E2E3208330432
:100BCE00031DEA2DEB2D222EB71FEE2DEF2D222E1B
:100BDE002E302000C60021005308A03E86000130B2
:100BEE00870020004608810001302100D307003025
:100BFE00D43DFF30C007FF30C13D0130B2000030A0
:100C0E00B300222E30302000C60021005308A03E33
:100C1E008600013087002000460881000130210047
:100C2E00D3070030D43DFF30C007FF30C13DFF3049
:100C3E00B007FF30B13D30083104031D272E282E9A
:100C4E00092E3808303E2000C60021005308A03E71
:100C5E008600013087002000460881000130210007
:100C6E00D3070030D43DFF30C007FF30C13D4A08E6
:100C7E002000A700210049082000A60021004808F6
:100C8E002000A500210047082000A40021005808DC
:100C9E002000A300210057082000A20021005608C2
:100CAE002000A100210055082000A0008D31A925AB
:100CBE00813120002308B8002208B7002108B600B1
:100CCE002008B500210046082000BC002100450880
:100CDE002000BB00210044082000BA002100430878
:100CEE002000B9009D317325813120003808210084
:100CFE00C600200037082100C5002000360821005C
:100D0E00C400200035082100C3004130F30020301C
:100D1E00F2000030F1000030F0005808F7005708DC
:100D2E00F6005608F5005508F40096314C26813130
:100D3E0073082100D8007208D7007108D600700819
:100D4E00D500FF30B607FF30B73D0130CB0700307E
:100D5E00CC3D4C08803A2000C60021003508803A70
:100D6E0020004602031DBE2E210034084B0203183C
:100D7E00C12EC22ED22E21005408803A2000C60069
:100D8E0080304602031DCE2E4B3021005302031C31
:100D9E00D12ED22E8C2D210032083304031DD82ED5
:100DAE00D92EEE2E6D1EDC2EDD2EEE2E2E302000D8
:100DBE00C60021005308A03E8600013087002000A7
:100DCE004608810001302100D3070030D43D53087E
:100DDE00A03E860001308700810165303F06031D6D
:100DEE00F92EFA2ED22F4F30CB000030CC004B080C
:100DFE00A03E8600013087008101BA01BB01D21FDF
:100E0E00092F0A2F132F0130BA000030BB00D10971
:100E1E00D209D10A0319D20A0230BD000030BE0039
:100E2E004E2FFF302100CB07FF30CC3D0A30F000B3
:100E3E000030F1005208F3005108F2009F31AD2747
:100E4E0081317008303E2000C60021004B08A03EC4
:100E5E008600013087002000460881000A30F0002D
:100E6E000030F10021005208F3005108F2008831E1
:100E7E001420813171082100D2007008D100FF309A
:100E8E00BD07FF30BE3DFF30C007FF30C13D5108EA
:100E9E005204031D532F542F182F3E08803A200062
:100EAE00C60080304602031D5F2F013021003D0237
:100EBE000318622F632F182FFF302100CB07FF304E
:100ECE00CC3D3A083B04031D6D2F6E2F732F2B3034
:100EDE00AA000030AB00772F2D30AA000030AB00F7
:100EEE002A082000C60021004B08A03E86000130D3
:100EFE008700200046088100FF302100C007FF3028
:100F0E00C13DFF30CB07FF30CC3D20004508BF3E32
:100F1E00C600FF3003180030C700003047021A30F9
:100F2E0003194602031C9C2F9E2F01309F2F003069
:100F3E00C800C90148082100AE0020004908210060
:100F4E00AF002E082F04031DAD2FAE2FB32F65302B
:100F5E00AC000030AD00B72F4530AC000030AD0016
:100F6E002C082000C60021004B08A03E8600013050
:100F7E008700200046088100FF302100C007FF30A7
:100F8E00C13D4B08A03EF0000130F1005308A03ED9
:100F9E009D3193258131A0302000C6004608A40063
:100FAE00210041082000A600210040082000A500D5
:100FBE0021003C089031AA20813120002508C20072
:100FCE002408C10008002100ED01EE014630840026
:100FDE00013085000E309C31E7248731A03084002B
:100FEE000130850050309C31E72487312000933149
:100FFE002E2BF20020000F1172089D3133258831FF
:10100E0020008F150B30F1006230890B0C28F10B8C
:10101E000C28003220008F110800F601F11F18284D
:10102E0019282028F009F109F00A0319F10AF6012E
:10103E00F60AF31F232824282D28F209F309F20AB1
:10104E000319F30A0130F4007408F606F701F801EB
:10105E00700871040319342835286428F501F50A3F
:10106E0041280130F035F10D890B39280130F4009B
:10107E007408F507F11F4428452838280130F73544
:10108E00F80D890B462871087302031D502870084D
:10109E007202031C5328542859287008F202710852
:1010AE00F33B77140130F136F00C890B5A280130DE
:1010BE00F502031D6328642845287608031968285D
:1010CE0069286E28F709F809F70A0319F80A78084B
:1010DE00F1007708F0000800220049082000C00047
:1010EE00220048082000BF00220047082000BE0052
:1010FE00220046082000BD003008C0002F08BF00A7
:10110E002E08BE002D08BD003D08B1003E08B200FD
:10111E003F08B3004008B4001730B436B30CB20C1D
:10112E00B10C890B9428FF303105B5000030320523
:10113E00B6003508813EBB00FF30363DBC003C0892
:10114E00803AB10080303102031DAF2817303B02C8
:10115E00031CB228B328B4285D292000BC1BB82874
:10116E00B9281629FF30B100FF30B2007F30B3002E
:10117E000030B4003B0AC728B437B30CB20CB10C24
:10118E00890BC3283408BA003308B9003208B800F6
:10119E003108B7003D083705B1003E083805B200EA
:1011AE003F083905B30040083A05B400340833044B
:1011BE0032043104031DE428E528E628B3283D084F
:1011CE00B1003E08B2003F08B3004008B4001F3023
:1011DE00B436B30CB20CB10C890BEF2834083304BF
:1011EE00320431040319FC28FD2805293708BD07F0
:1011FE003808BE3D3908BF3D3A08C03D3709B10039
:10120E003809B2003909B3003A09B4003108BD05F6
:10121E003208BE053308BF053408C00555293D0800
:10122E00B1003E08B2003F08B3004008B4001F30C2
:10123E00B436B30CB20CB10C890B1F29340833042D
:10124E0032043104031D2C292D2936290030C0000B
:10125E000030BF000030BE000030BD0055293D08F3
:10126E00B1003E08B2003F08B3004008B4000130A0
:10127E00B135B20DB30DB40D890B3F2934083304CB
:10128E003204310403194C294D295529BF30C000B1
:10129E008030BF000030BE000030BD004008B000FE
:1012AE003F08AF003E08AE003D08AD00080020002C
:1012BE00E8004E0886008701403FD000413FD10034
:1012CE0050088400510885001200253A031D70292C
:1012DE007129462B4E088600870101308107413166
:1012EE000318810A2200D001D1012100ED01EE0187
:1012FE00FF302200D200FF30D30020004E088600BF
:10130E008701403FD000413FD10050088400510872
:10131E0085000008D200D3015208F6005308F700EA
:10132E009D31F925893176082000D4005408E40057
:10133E0064080319A329A429E3294E08860087010E
:10134E00403FD000413FD10001305007840051088A
:10135E000318510A85000008D200D3015208F60086
:10136E005308F7009D31F925893176082000D40005
:10137E005408E50065080319C529C629E3294E0856
:10138E0086008701403FD000413FD1000230500718
:10139E00840051080318510A85000008D200D301B9
:1013AE005208F6005308F7009D31F9258931760869
:1013BE002000D4005408E6004E0886008701403F06
:1013CE00D000413FD1005008840051088500120022
:1013DE00643A0319F329F429052A4E088600870179
:1013EE00403FD000413FD100500884005108850095
:1013FE001200693A031D042A052A402A4E08860067
:10140E0087010130810741310318810A4F08860098
:10141E00870101088400850102308107003FD0005A
:10142E00013FD1005008D6005108D700890D893BE5
:10143E008909D800D900DA00DB00DC00DD0056088F
:10144E00B0005708B1005808B2005908B3005A0846
:10145E00B4005B08B5005C08B6005D08B70068080C
:10146E009431DA24893120003108CF003008CE00C3
:10147E00692B66306406031D452A462A832A4E08C8
:10148E0086008701403FD000413FD10050088400C4
:10149E00510885000008D2005208E7004E08860069
:1014AE0087010130810741310318810A4F088600F8
:1014BE00870101088400850104308107003FE000A8
:1014CE00013FE100023FE200033FE3006308C40076
:1014DE006208C3006108C2006008C1006708D0003E
:1014EE005008C50068088131232189312000420847
:1014FE00CF004108CE00692B2130F000A030F10062
:10150E000230F2000030F300643090315220893105
:10151E0070087104031D942A952A102B20004E0882
:10152E0086008701403FD000413FD1000130500777
:10153E00840051080318510A85000008D200520891
:10154E00E7004E0886008701403FD000413FD100A2
:10155E0050088400510885000008BF3ED200FF30BD
:10156E0003180030D300003053021A300319520210
:10157E00031CC22AC42A0130C52A0030D400D5016A
:10158E005408DE005508DF005E085F040319D02AF8
:10159E00D12AE22A4F0886008701010884008501BE
:1015AE0004308107003FE000013FE100023FE2000E
:1015BE00033FE300F22A4F088600870101088400EA
:1015CE00850104308107003FE000013FE100023F4A
:1015DE00E200033FE3004E088600870102308107D8
:1015EE0041310318810A6308C4006208C300610810
:1015FE00C2006008C1006708D0005008C500680826
:10160E0081312321893120004208CF004108CE00CC
:10161E00692B20004E0886008701403FD000413FD5
:10162E00D10050088400510885001200253A031D90
:10163E00212B222B3B2B4E08860087010130810780
:10164E0041310318810A2530F0000030F10068089E
:10165E00D0005008F2009031022089310130200074
:10166E00CE000030CF00692B4E0886008701013076
:10167E00810741310318810ACE01CF01692B4E0833
:10168E0086008701403FD000413FD10050088400C2
:10169E00510885000008D200D3015208F00053080B
:1016AE00F1006808D4005408F2009031022089310C
:1016BE0020004E0886008701013081074131031852
:1016CE00810A352B0800730880392000A0002008FD
:1016DE00F8007335A0002008FA00F21F772B782B44
:1016EE00792B7A147A0803197D2B7E2B8E2B7A0A8E
:1016FE00031D822B832B8B2B0030F3000030F20066
:10170E000030F1000030F000F217F301962B00309C
:10171E00F3000030F2000030F1000030F0007708E6
:10172E008039A0002008F900790878060319A02B4B
:10173E00A12BA22B78177735A0002008F900F61FF1
:10174E00A92BAA2BAB2B791479080319AF2BB02B2D
:10175E00C02B790A031DB42BB52BBD2B0030F7001F
:10176E000030F6000030F5000030F400F617F701F7
:10177E00C82B0030F7000030F6000030F5000030C6
:10178E00F4007A0879020318CD2BCE2B122C781F79
:10179E00D12BD22BD62B8030A0002008F8067A0849
:1017AE00A0002008FB007908A0002008FA007B08A2
:1017BE00A0002008F9007008A0002008FB007408A3
:1017CE00A0002008F0007B08A0002008F40071089B
:1017DE00A0002008FB007508A0002008F1007B087F
:1017EE00A0002008F5007208A0002008FB00760873
:1017FE00A0002008F2007B08A0002008F600730865
:10180E00A0002008FB007708A0002008F3007B084A
:10181E00A0002008F700FB017908A000A101210813
:10182E00A3007A082002A200031CA3032308803A17
:10183E00A40080302402031D262C1A302202031C21
:10184E00292C2A2C642C7308720471047004031D55
:10185E00312C332C0130342C00302000A000200815
:10186E00FB000030F3000030F2000030F1000030D9
:10187E00F0007908A0002008FA006A2C7B1C482C86
:10188E00492C502C7B3601382000A0002008FB008C
:10189E00522C0310FB0C701C552C562C572CFB177E
:1018AE0001302000A000F337F20CF10CF00CA00B6D
:1018BE005A2C0130A0002008FA0779087A02031C7E
:1018CE00692C6A2C452C781B6D2C6E2CA82C7A0852
:1018DE00031D722C732C7C2C0030F3000030F200B0
:1018EE000030F1000030F000A82D7408F0077508E4
:1018FE00F13D7608F23D7708F33D731C872C882C5A
:10190E00352D7B1C8B2C8C2C932C7B360138200098
:10191E00A0002008FB00952C0310FB0C701C982CCB
:10192E00992C9A2CFB1701302000A000F337F20CF3
:10193E00F10CF00CA00B9D2C0130A0002008FA0732
:10194E00352D7308803A2000A0007708803A2002D7
:10195E00031DBB2C76087202031DBB2C7508710289
:10196E00031DBB2C740870020318BE2CBF2CF72C61
:10197E00FF30A000FF30A100FF30A200FF30A30017
:10198E0070087402A4007108753BA5007208763BBE
:10199E00A6007308773BA7002408A0072508A13DE1
:1019AE002608A23D2708A33D2308F3002208F200D3
:1019BE002108F1002008F0008030A0002008F80671
:1019CE00FB09FB0A7B08031DED2CEE2CFF2C0130CE
:1019DE00F0070030F13D0030F23D0030F33DFF2CBA
:1019EE007408F0027508F13B7608F23B7708F33B7A
:1019FE007308720471047004031D062D072D312D1A
:101A0E007B08031D0B2D0C2D312D0030F300003003
:101A1E00F2000030F1000030F000A82D0130F0355A
:101A2E00F10DF20DF30D890B162DFB1F1F2D202D21
:101A3E00212D70147B1C242D252D282D0314FB0D18
:101A4E002A2D0310FB0D7A0803192E2D2F2D312D63
:101A5E000130FA02F21F342D352D152DF901FB1F21
:101A6E00392D3A2D482D7B087F3903193F2D402DF6
:101A7E00432DF901F90A482D701C462D472D482D8E
:101A8E00402D790803194C2D4D2D7B2D0130F0077B
:101A9E000030F13D0030F23D0030F33D731C582D07
:101AAE00592D7B2D70082000A0007108A10072082E
:101ABE00A2007308A3000130A400A337A20CA10C4E
:101ACE00A00CA40B642D2308F3002208F2002108B9
:101ADE00F1002008F0007A0A0319762D772D7B2D60
:101AEE000130A0002008FA077A0A03197F2D802DF5
:101AFE00852D7A08031D842D852D932D0030F3003E
:101B0E000030F2000030F1000030F0007A08031DC2
:101B1E00912D922D932DF8017A1C962D972D992D9E
:101B2E00F2179E2D7F302000A0002008F2057A3695
:101B3E002000A0002008F300F81FA62DA72DA82D29
:101B4E00F3170800200023088039F9007908A8004F
:101B5E002335F9007908AE00A21FB62DB72DB82D8A
:101B6E002E142E080319BC2DBD2DCC2D2E0A031DAF
:101B7E00C12DC22DCA2D0030A3000030A2000030AE
:101B8E00A1000030A000A217D42D0030A300003019
:101B9E00A2000030A1000030A00027088039F90013
:101BAE007908A8062735F9007908AD00A61FE02DA3
:101BBE00E12DE22D2D142D080319E62DE72DF62D1E
:101BCE002D0A031DEB2DEC2DF42D0030A700003057
:101BDE00A6000030A5000030A400A617FE2D003090
:101BEE00A7000030A6000030A5000030A4002D088C
:101BFE000319022E032E082E2E08031D072E082E63
:101C0E00112E0030A3000030A2000030A1000030E1
:101C1E00A000FF2F2008F9007908F00026089D315A
:101C2E00D6258D3171082000B4007008B30033083A
:101C3E00F900FA01FB01FC017C08AC007B08AB004B
:101C4E007A08AA007908A9003408F900FA01FB0104
:101C5E00FC017C08B2007B08B1007A08B00079085C
:101C6E00AF002108F9007908F00025089D31D6252E
:101C7E008D3171082000B4007008B3003308F900EC
:101C8E00FA01FB01FC017908A9077A08AA3D7B0835
:101C9E00AB3D7C08AC3D3408F900FA01FB01FC01B8
:101CAE007908AF077A08B03D7B08B13D7C08B23D9C
:101CBE002208F9007908F00024089D31D6258D31CF
:101CCE0071082000B4007008B3003308F900FA015F
:101CDE00FB01FC017908A9077A08AA3D7B08AB3DF8
:101CEE007C08AC3D3408F900FA01FB01FC017908CF
:101CFE00AF077A08B03D7B08B13D7C08B23D083095
:101D0E00A935AA0DAB0DAC0D890B872E2108F90054
:101D1E007908F00024089D31D6258D3171082000F8
:101D2E00B4007008B3003308A9073408AA3D003088
:101D3E00AB3DAC3D2008F9007908F00025089D3137
:101D4E00D6258D3171082000B4007008B300330819
:101D5E00A9073408AA3D0030AB3DAC3D0830A9358B
:101D6E00AA0DAB0DAC0D890BB62E2008F900790823
:101D7E00F00024089D31D6258D3171082000B40065
:101D8E007008B3003308A9073408AA3D0030AB3DF4
:101D9E00AC3D2108F9007908F00026089D31D625C2
:101DAE008D3171082000B4007008B3003308AF07FE
:101DBE003408B03D0030B13DB23D2208F90079083B
:101DCE00F00025089D31D6258D3171082000B40014
:101DDE007008B3003308AF073408B03D0030B13D92
:101DEE00B23D2208F9007908F00026089D31D6256B
:101DFE008D3171082000B4007008B3003308F9006B
:101E0E003408FA00FB01FC010830F935FA0DFB0D20
:101E1E00FC0D890B0C2F7908AF077A08B03D7B08B3
:101E2E00B13D7C08B23D2908F9002A08FA002B08BA
:101E3E00FB002C08FC001830FC36FB0CFA0CF90CDD
:101E4E00890B232F7908AF077A08B03D7B08B13D87
:101E5E007C08B23D0830A935AA0DAB0DAC0D890B2F
:101E6E00322F2E082D07F900FA01FA0D7908823E5D
:101E7E00B300FF307A3DB4005B2F0130AF35B00DAB
:101E8E00B10DB20D890B452FAC1F4E2F4F2F502F7A
:101E9E002F140130A935AA0DAB0DAC0D890B512FA6
:101EAE00FF30B307FF30B43DB11F5E2F5F2F442FBD
:101EBE00AD01AC1F632F642F802FFF302905F90071
:101ECE00FF302A05FA00FF302B05FB007F302C0572
:101EDE00FC007C087B047A0479040319772F782F91
:101EEE007B2FAD01AD0A802F2F1C7E2F7F2F802FD1
:101EFE00782F2D080319842F852FAD2F0130AF07B2
:101F0E000030B03D0030B13D0030B23D321C902F5C
:101F1E00912FAD2F2F08F9003008FA003108FB0081
:101F2E003208FC000130FD00FC37FB0CFA0CF90CFA
:101F3E00FD0B9B2F7C08B2007B08B1007A08B00025
:101F4E007908AF000130B3070030B43D3408803A51
:101F5E00F90080307902031DB62FFF303302031CC7
:101F6E00B92FBA2FC42F7F302000B2008030B100BD
:101F7E000030B0000030AF00F32F20003408803A5C
:101F8E00F90080307902031DCE2F01303302031881
:101F9E00D12FD22FDD2F00302000B2000030B10043
:101FAE000030B0000030AF00A801F32F200033083E
:101FBE00F9007908AE00FF30AF05FF30B0057F3075
:101FCE00B1050030B2052E1CED2FEE2FEF2FB117FD
:101FDE002E36F9007908B2002808F9007908B20403
:101FEE003208A3003108A2003008A1002F08A0007B
:021FFE000800D9
:1020040072080319062807280C287208031D0B28D8
:102014000C2811287008803107209031512872084B
:10202400033E860087011600010403191A281B28A1
:1020340038287208033E86008701403FF300413F81
:10204400F400720A86008701403FF500413FF60024
:102054007608803AF7007408803A7702031D342822
:102064007308750203183728382851287008F300BC
:10207400720886008701720A84008501000801073E
:10208400F400740886000130870073088100720A26
:10209400860087010130810741310318810A080055
:1020A400F5007508F4007408F8007108F70070086A
:1020B400F6000130F2020030F33B720A031D662879
:1020C400730A031D662867287628F001F101A92800
:1020D4000130F4007408F8070130F6070030F73DCA
:1020E4000130F2020030F33B7808860087010108D2
:1020F40003197D287E289C287608840077088500AB
:1021040012000319862887289C287208730403196F
:102114008C288D289C287608840077088500000880
:10212400F4007808860087010108740603199B28C7
:102134009C286A2878088600870176088400770836
:10214400850000080102F000F101031CF1030800FE
:102154002000AB0021006D1CB028B128BA28200053
:102164002B08FC007C08F80024089E311E269031C0
:102174002000A61BBE28BF28C4282608AA002508BC
:10218400A900C628A901AA01A701A801DA282030BC
:10219400F0000030F10020002B08FC007C08F20065
:1021A40090310220903101302000A7070030A83D73
:1021B4002808803AFC002A08803A7C02031DE4289F
:1021C40029082702031CE728E828C92821006D18DC
:1021D400EC28ED28F62820002B08FC007C08F800E9
:1021E40024089E311E2690312000240880310820C6
:1021F4009031200029087007A4002A08713DA50029
:1022040008000310720D730DF4007408FA007A08C4
:10221400031D0D290E2917290030F3000030F200A8
:102224000030F1000030F00076297008F4007108E5
:10223400F5007208F6007308F7001F30F736F60C45
:10224400F50CF40C890B20297408F8007808F900BF
:10225400F217FF30F005FF30F105FF30F2050030D2
:10226400F3059630FA02FA1F3829392951297A08D8
:10227400803A973E03183F29402941290E2901300D
:10228400F336F20CF10CF00C890B42290130F40006
:102294007408FA07031D4F29502941296629203063
:1022A4007A02031C5629572961290E290130F03579
:1022B400F10DF20DF30D890B59290130FA027A0858
:1022C400031D652966295829790803196A296B2988
:1022D4007629F009F109F209F309F00A0319F10A60
:1022E4000319F20A0319F30A080022004D0820001A
:1022F400A50022004C082000A40022004B08200066
:10230400A30022004A082000A2007308A500720856
:10231400A4007108A3007008A2002208F400230896
:10232400F5002408F6002508F7001730F736F60CF8
:10233400F50CF40C890B9829FF307405A0000030CB
:102344007505A10020082104031DA929AA29CB2968
:102354002208F4002308F5002408F6002508F700F5
:102364000130F435F50DF60DF70D890BB329770817
:10237400760475047404031DC029C129C6290230DA
:10238400F0000030F100F5290330F0000030F100D6
:10239400F529200A2104031DD029D129F129220875
:1023A400F4002308F5002408F6002508F700093096
:1023B400F435F50DF60DF70D890BDA297708760457
:1023C400750474040319E729E9290130EA29003066
:1023D400F800F9017808F0007908F100F5290430D3
:1023E400F0000030F1000800003020003505BD0089
:1023F40000303605BE0080303705BF007F30380519
:10240400C00040083F043E043D04031D0A2A0B2A71
:10241400132A0030B8000030B7000030B600003096
:10242400B50000303905BD0000303A05BE008030EB
:102434003B05BF007F303C05C00040083F043E041C
:102444003D04031D262A272A2F2A0030BC00003011
:10245400BB000030BA000030B900B81F322A332A5A
:102464004B2A0030BD000030BE000030BF00803079
:10247400C0003508BD023608BE3B3708BF3B3808EC
:10248400C03B4008B8003F08B7003E08B6003D080E
:10249400B500BC1F4E2A4F2A672A0030BD00003009
:1024A400BE000030BF008030C0003908BD023A08C9
:1024B400BE3B3B08BF3B3C08C03B4008BC003F0858
:1024C400BB003E08BA003D08B9008030B806803031
:1024D400BC063C083802031D792A3B083702031D59
:1024E400792A3A083602031D792A39083502031875
:1024F4007C2A7D2A7F2A0310802A031408002000E6
:10250400A40024080319872A882A9C2AFC1F8B2AE2
:102514008C2A9C2A7909A6007A09A7007B09A800BD
:102524007C09A900A60A0319A70A0319A80A031912
:10253400A90AA42A7C08A9007B08A8007A08A70095
:102544007908A6007C087B047A047904031DAB2A6D
:10255400AC2AB52A0030FC000030FB000030FA0041
:102564000030F9002D2B9630A0002008A500C52AC4
:102574000130A0002008A5070130A936A80CA70C3B
:10258400A60C890BBF2AFE302905031DCA2ACB2AB3
:10259400BA2ADF2A0130A0002008A5070130A607C7
:1025A4000030A73D0030A83D0030A93D0130A936D8
:1025B400A80CA70CA60C890BD92AFF302905031DEA
:1025C400E42AE52ACC2AEF2A0130A5020130A635F7
:1025D400A70DA80DA90D890BE92AA81BF22AF32A35
:1025E400F92A023025020318F82AF92AE62A2518BE
:1025F400FC2AFD2A052BFF30A605FF30A7057F30F6
:10260400A805FF30A9050310A50C2508A000A10109
:10261400A201A3011830A035A10DA20DA30D890BB1
:102624000D2B2008A6042108A7042208A8042308C7
:10263400A904240803191F2B202B252BFC1F232B53
:10264400242B252BA9172908FC002808FB002708A0
:10265400FA002608F900080000302200C10000300A
:10266400C0000030BF000030BE00C201C3017030A2
:10267400210099008D1023008D018F0121008F010D
:1026840023000C1421000C149E31D62693319C3166
:10269400E124933122004308803A2100EB0080308A
:1026A4006B02031D582B0A3022004202031C5B2BD1
:1026B4005C2BA72B20008F148D1006302100EC001A
:1026C4001330EB00AD30890B652BEB0B652BEC0B5A
:1026D400652B00320030F000F1009D31B4259331B8
:1026E40071082200C5007008C4004508F3004408BE
:1026F400F200FF30F0000330F100883114209331F0
:102704007008F9007108FA00890D893B8909FB00FA
:10271400FC0001309231812293317C082200C100F7
:102724007B08C0007A08BF007908BE009C31ED2404
:1027340093312200C201C30115302100EB00C630E1
:10274400890BA22BEB0BA22B000001302200C20745
:102754000030C33D09302100DC00A030DD00220040
:1027640045082100DF00220044082100DE0020305B
:102774009E3173269331F301F30A01309F311927F7
:10278400933120309D315325933100302100DC00FA
:10279400A030DD00220041082100E10022004008B1
:1027A4002100E00022003F082100DF0022003E0853
:1027B4002100DE0020309E3173269331F301F30AA9
:1027C40002309F311927933120309D3153259331A5
:1027D40020008F108D144C2B80310228F2012830F8
:1027E400860000308700473FF000F01FFA2BFB2BD8
:1027F4001C2C2000A809A909AA09AB09AC09AD0938
:10280400AE09AF09A80A031D1A2CA90A031D1A2C24
:10281400AA0A031D1A2CAB0A031D1A2CAC0A031DA9
:102824001A2CAD0A031D1A2CAE0A031D1A2CAF0A6A
:10283400F201F20A2030860000308700473FF000A2
:10284400F01F252C262C452C2000A009A109A20943
:10285400A309A409A509A609A709A00A031D452CD3
:10286400A10A031D452CA20A031D452CA30A031D1E
:10287400452CA40A031D452CA50A031D452CA60AB4
:10288400031D452CA70A2000200821042204230448
:1028940024042504260427040319512C522CA52CA6
:1028A400F101F10A612CA035A10DA20DA30DA40D17
:1028B400A50DA60DA70D0130F0007008F107A71FA4
:1028C400642C652C552C27082F02031D832C260805
:1028D4002E02031D832C25082D02031D832C24089E
:1028E4002C02031D832C23082B02031D832C220896
:1028F4002A02031D832C21082902031D832C20088E
:102904002802031C862C872C972C2008A802210857
:10291400A93B2208AA3B2308AB3B2408AC3B25086F
:10292400AD3B2608AE3B2708AF3BA736A60CA50C4B
:10293400A40CA30CA20CA10CA00C0130F102031DE9
:10294400A42CA52C652C72080319A92CAA2CC82C1C
:10295400A809A909AA09AB09AC09AD09AE09AF09CF
:10296400A80A031DC82CA90A031DC82CAA0A031D02
:10297400C82CAB0A031DC82CAC0A031DC82CAD0A15
:10298400031DC82CAE0A031DC82CAF0A200028085A
:10299400A0002908A1002A08A2002B08A3002C08E3
:1029A400A4002D08A5002E08A6002F08A7000800E3
:1029B4002000BD003008C4003108C5003208C6003C
:1029C4003308C7003408C8003508C9003608CA00EF
:1029D4003708CB004430860000308700473FB800FA
:1029E400B81BF52CF72C0130F82C00302000B9006E
:1029F400BA013908C2003A08C30042084304031963
:102A0400042D052D232DC409C509C609C709C80904
:102A1400C909CA09CB09C40A031D232DC50A031D0C
:102A2400232DC60A031D232DC70A031D232DC80AFF
:102A3400031D232DC90A031D232DCA0A031D232D9B
:102A4400CB0A2200D31B272D282D2D2DFD3021004C
:102A5400ED05FF30EE0522005308803A2000B8004F
:102A640080303802031D392D013022005202031830
:102A74003C2D3D2D432D01302000BE000030BF0011
:102A84004B2D220053082000BF00220052082000D2
:102A9400BE00220051082000C1002200500820007E
:102AA400C00042084304031D582D592D5E2D2100FA
:102AB4006D1D5D2D5E2D632DFF302000C007FF309E
:102AC400C13D4F302000CC000030CD002300EF0189
:102AD400D42DFF302000CC07FF30CD3D0A30A000BC
:102AE400A101A201A301A401A501A601A701440813
:102AF400A8004508A9004608AA004708AB004808F2
:102B0400AC004908AD004A08AE004B08AF00933151
:102B1400F023943120002108F4002008F3009D31B3
:102B2400192594317308303E2000B8004C08A03EAB
:102B340086000130870038088100FF30BE07FF306F
:102B4400BF3DFF30C007FF30C13D0A30A000A101E6
:102B5400A201A301A401A501A601A7014408A8009C
:102B64004508A9004608AA004708AB004808AC007D
:102B74004908AD004A08AE004B08AF00803122205E
:102B8400943120002008C4002108C5002208C60092
:102B94002308C7002408C8002508C9002608CA005D
:102BA4002708CB0020004D08803AB8008030380256
:102BB400031DDE2D01304C02031CE12DE22D0F2EEE
:102BC40020004408450446044704480449044A04D0
:102BD4004B04031DEE2DEF2D6B2D3F08803AB800FA
:102BE40080303802031DF82D01303E020318FB2DFE
:102BF400FC2D6B2D20004108803AB800803038024B
:102C0400031D062E01304002031C092E0A2E0F2E2E
:102C14002100ED180E2E0F2E6B2D200042084304C8
:102C2400031D152E162E1B2E21006D1D1A2E1B2E74
:102C3400382EFF302000CC07FF30CD3D420843043E
:102C4400031D252E262E2B2E2B30BB000030BC005E
:102C54002F2E2D30BB000030BC003B08B8004C08C0
:102C6400A03E8600013087003808810020004C080F
:102C7400A03EB8003808A4004108A6004008A500FA
:102C84003D089031AA20943120002508B100240881
:102C9400B000080077088039F80078082000A40004
:102CA4007735F8007808AB00F61F592E5A2E5B2EA4
:102CB4002B142B0803195F2E602E702E2B0A031D74
:102CC400642E652E6D2E0030F7000030F6000030C3
:102CD400F5000030F400F617F701782E0030F70005
:102CE4000030F6000030F5000030F400730880393D
:102CF400F8007808A4067335F8007808AC00F21FD1
:102D0400842E852E862E2C142C0803198A2E8B2EA5
:102D14009B2E2C0A031D8F2E902E982E0030F3002C
:102D24000030F2000030F1000030F000F217F3013F
:102D3400A32E0030F3000030F2000030F100003028
:102D4400F0007308720471047004031DAA2EAB2EE4
:102D5400C42E0030F7000030F6000030F5000030DB
:102D6400F4008030F6047F30F7042408F800780873
:102D7400F7047708F3007608F2007508F100740888
:102D8400F000FF2F2B08031DC82EC92ED22E0030B1
:102D9400F3000030F2000030F1000030F000FF2FAB
:102DA4002B08F800F9017908FB002C087802FA00D6
:102DB400031CFB037A087F3EA50000307B3DA60080
:102DC4007708A3007608A2007508A1007408A00083
:102DD4000030F7000030F6000030F5000030F40059
:102DE4000030AA000030A9000030A8000030A7007D
:102DF400AC013A2F2C080319002F012F1B2F01308F
:102E0400A035A10DA20DA30D890B022F0130F435BD
:102E1400F50DF60DF70D890B092FAA1F122F132F8D
:102E2400142F74140130A735A80DA90DAA0D890B10
:102E3400152F73082302031D292F72082202031D74
:102E4400292F71082102031D292F70082002031C59
:102E54002C2F2D2F362F2A177008A0027108A13BA2
:102E64007208A23B7308A33B0130F8007808AC0752
:102E74001A302C02031C3F2F402FFC2E230822045F
:102E8400210420040319472F482F612F2714612F91
:102E94000130F435F50DF60DF70D890B4B2FAA1FF4
:102EA400542F552F562F74140130A735A80DA90D92
:102EB400AA0D890B572FFF30A507FF30A63DF61F3B
:102EC400642F652F4A2FAC01AA1F692F6A2F862F02
:102ED400FF302705F800FF302805F900FF302905E9
:102EE400FA007F302A05FB007B087A047904780411
:102EF40003197D2F7E2F812FAC01AC0A862F741C01
:102F0400842F852F862F7E2F2C0803198A2F8B2F31
:102F1400B32F0130F4070030F53D0030F63D0030AA
:102F2400F73D771C962F972FB32F7408F800750878
:102F3400F9007608FA007708FB000130FC00FB3743
:102F4400FA0CF90CF80CFC0BA12F7B08F7007A089B
:102F5400F6007908F5007808F4000130A507003080
:102F6400A63D2608803AF80080307802031DBC2F65
:102F7400FF302502031CBF2FC02FCD2FFF302000B0
:102F8400A5000030A6000030F7000030F600003045
:102F9400F5000030F40020002608803AF800803064
:102FA4007802031DD72F013025020318DA2FDB2FF7
:102FB400E72F2000A501A6010030F7000030F6003D
:102FC4000030F5000030F400A40120002508F800CA
:102FD4007808AB002B1CEF2FF02FF22FF617F62FEB
:102FE4007F30F8007808F6052B36F8007808F700EB
:0C2FF4002408F8007808F704BB2E080041
:1039C200013021009D00D0309E000800640080017B
:1039D2000131890BE82C00340030883100209C3101
:1039E2000130883100209C31080073087204710490
:1039F20070040319FD2CFE2C002D8030F306080004
:103A02007008BF3EF200FF30713DF30000307302D8
:103A12001A3003197202031C0F2D112D0130122DC1
:103A22000030F400F5017408F0007508F100080098
:103A32007408803AF50080307502031D222D013092
:103A420073020318252D262D322D7309F5007409F2
:103A5200F600F50A0319F60A7508F3007608F40071
:103A6200322D0800F000701C372D382D3B2D200020
:103A72000F163D2D20000F12F01C402D412D432D1D
:103A82008F16442D8F12701D472D482D4A2D0F176A
:103A92004B2D0F13F01D4E2D4F2D512D8F17522DE3
:103AA2008F130800F800F601F701662D76087807F3
:103AB200F500750886000130870001089E3147260F
:103AC2009D310130F6070030F73D76087807F500A2
:103AD20075088600013087000108031D712D722DC3
:103AE200572D080080302000B8063C08F3003B0840
:103AF200F2003A08F1003908F0003808F7003708F8
:103B0200F6003608F5003508F4008B316A239D3142
:103B120073082000B8007208B7007108B600700878
:103B2200B5000800F7007108F5007008F400770886
:103B3200F2007208F6007608860001308700F60A65
:103B42007508F3007408F200F40A0319F50A720802
:103B52008400730885000008C03F8908031DB22D48
:103B6200B32D9C2D08008330F200720821009D05C0
:103B72007008F2000130F235FF3E031DBC2D723594
:103B8200F30073089D040830F200CA30890BC72D78
:103B9200F20BC72D21009D149D18D02DD12DCD2DB6
:103BA2001C08F1001B08F0000800F800F401F50100
:103BB2007008F200F3017208F6007308F700781C2F
:103BC200E32DE42DE82D7608F4077708F53D013062
:103BD200F635F70D890BE92D0310F80C7808031D53
:103BE200F32DF42DE02D7508F1007408F0000800A3
:103BF2007608BF3EF800FF30773DF90000307902C9
:103C02001A3003197802031C072E092E01300A2EDE
:103C12000030FA00FB017A08FC007B08FD007C08FA
:103C22007D040319152E162E1D2E20307604F60063
:103C320000307704F7001D2E08002000A300A10128
:103C4200A201362E2008F900FA017908F0007A085C
:103C5200F1007808FB007B08F200903102209E31CF
:103C620001302000A1070030A23D21082307F900FE
:103C720079088600013087000108FA007A08A0005E
:103C82002008031D452E462E232E0800F40074083A
:103C92000F39F1007108F2007408F039F10071086F
:103CA200F30020000F157308F1000430F136890B80
:103CB200572E71089D3133259E3120008F151A3001
:103CC200890B612E003220008F1172089D3133253D
:103CD2009E3120008F151A30890B6D2E0032200084
:103CE2008F1108002100E400DE302000EE006E0893
:103CF2002100E50064082000EE006E082100E600C5
:103D0200E701E801E901EA015D082000EA0021007B
:103D12005C082000E900E530EE006E08EB00E630BA
:103D22009E319F269E312100670864072000EE0025
:103D32006E08860001308700810108002100D90049
:103D420020006A082100DB00200069082100DA0057
:103D52002200CE01CF01C32EDA302000EC006C0825
:103D6200CE006B08ED006D08CF00210059088931A3
:103D72005E219E3120004E082200CE0720004F080F
:103D82002200CF3D21005A0884005B088500120002
:103D9200031DCC2ECD2EAD2E22004F082000EA00AE
:103DA20022004E082000E900080000309D31332532
:103DB2009E313430F300F230890BDD2EF30BDD2E11
:103DC2000330883100209E310D30F300FC30890B26
:103DD200E82EF30BE82E0330883100209E311D308F
:103DE200F3009130890BF32EF30BF32E0000033016
:103DF200883100209E310230883100209E3102300D
:103E0200883100209E310830883100209E310030F8
:103E1200883100209E310C30883100209E310030E4
:103E2200883100209E310630883100209E31080002
:103E3200F6007603031D1E2F1F2F3C2F73087F3EB3
:103E4200F4007408F9007908F4000430F436890BA0
:103E5200272F7408F5007508F70079080F39F40068
:103E62007408F8007708883100209F31780888317B
:103E720000209F315E2F02307606031D412F422F14
:103E82005E2F7308BF3EF4007408F9007908F4004D
:103E92000430F436890B4A2F7408F5007508F700D0
:103EA20079080F39F4007408F80077088831002087
:103EB2009F317808883100209F310800003070055A
:103EC200F80000307105F90080307205FA007F3089
:103ED2007305FB007B087A0479047804031D722FB2
:103EE200732F7B2F0030F3000030F2000030F1001E
:103EF2000030F00000307405F80000307505F9005C
:103F020080307605FA007F307705FB007B087A0463
:103F120079047804031D8E2F8F2F972F0030F7001E
:103F22000030F6000030F5000030F4007708730628
:103F3200031DA52F76087206031DA52F75087106AD
:103F4200031DA52F740870060319A82FA92FAB2FE4
:103F52000310AC2F03140800F601F31FB12FB22F88
:103F6200B92FF209F309F20A0319F30AF601F60A64
:103F7200F11FBC2FBD2FC22FF009F109F00A03195E
:103F8200F10A700871040319C72FC82FF12FF50128
:103F9200F50AD42F0130F035F10D890BCC2F013009
:103FA200F4007408F507F11FD72FD82FCB2F710813
:103FB2007302031DDE2F70087202031CE12FE22F31
:103FC200E62F7008F2027108F33B0130F136F00C73
:103FD200890BE72F0130F502031DF02FF12FD82FA7
:103FE20076080319F52FF62FFB2FF209F309F20ACF
:103FF2000319F30A7308F1007208F0000800443450
:104002002034693473343A3420342534663400342D
:104012005234653473343A342034253464340034F1
:1040220049344E34463400344E3441344E34003434
:1040320069346E34663400346E3461346E34003464
:064042006C34663400340A
:020000040001F9
:04000E00FA3FFF1F97
:00000001FF
