:020000040000FA
:10000000803102288731E82FF7007108F500700869
:10001000F4007708F2007208F600760886000130D6
:100020008700F60A7508F3007408F200F40A031951
:10003000F50A72088400730885000008C03F89082B
:10004000031D232824280D280800F20120308600F3
:1000500000308700473FF000F01F2F28302851283C
:100060002000A009A109A209A309A409A509A609BC
:10007000A709A00A031D4F28A10A031D4F28A20AA1
:10008000031D4F28A30A031D4F28A40A031D4F2850
:10009000A50A031D4F28A60A031D4F28A70AF2012F
:1000A000F20A2830860000308700473FF000F01F3A
:1000B0005A285B287E282000A809A909AA09AB09AB
:1000C000AC09AD09AE09AF09A80A031D7A28A90A2F
:1000D000031D7A28AA0A031D7A28AB0A031D7A2871
:1000E000AC0A031D7A28AD0A031D7A28AE0A031D47
:1000F0007A28AF0A0130F0007008F20673308600EB
:10010000003087000830F00000301E00F00B85281A
:1001100020002008210422042304240425042604AA
:100120002704031994289528F128F101F10AA4283D
:10013000A035A10DA20DA30DA40DA50DA60DA70D13
:100140000130F0007008F107A71FA728A8289828F9
:10015000F335F40DF50DF60DF70DF80DF90DFA0D5B
:1001600027082F02031DCE2826082E02031DCE28A5
:1001700025082D02031DCE2824082C02031DCE289D
:1001800023082B02031DCE2822082A02031DCE2895
:1001900021082902031DCE2820082802031CD1288B
:1001A000D228E3282008A8022108A93B2208AA3B5C
:1001B0002308AB3B2408AC3B2508AD3B2608AE3BEF
:1001C0002708AF3B7314A736A60CA50CA40CA30CF0
:1001D000A20CA10CA00C0130F102031DF028F128A3
:1001E000A82872080319F528F6281429F309F40938
:1001F000F509F609F709F809F909FA09F30A031DDF
:100200001429F40A031D1429F50A031D1429F60AFA
:10021000031D1429F70A031D1429F80A031D1429C4
:10022000F90A031D1429FA0A73082000A0007408B3
:10023000A1007508A2007608A3007708A40078083A
:10024000A5007908A6007A08A70008002100BC00D4
:10025000BA01BB01200044082100D000200043085F
:100260002100CF00200042082100CE0020004108DC
:100270002100CD0050082000B80021004F082000C8
:10028000B70021004E082000B60021004D082000D4
:10029000B5000030BC000030BB000030BA000030B8
:1002A000B90092310D22813103185729582971293B
:1002B00001302100BA000030BB005008F3004F08A5
:1002C000F2004E08F1004D08F0009D3114258131F7
:1002D00073082100D0007208CF007108CE007008AA
:1002E000CD002100D301D401220051082100C1001A
:1002F000220050082100C0003A083B04031D812958
:10030000822986296D1D85298629A4293A083B045E
:10031000031D8B298C2991292B30A4000030A500C6
:1003200095292D30A4000030A50024082000C60027
:1003300046082300A00001302100D3070030D43D3F
:10034000FF30C007FF30C13D5008F3004F08F200F6
:100350004E08F1004D08F00091318E21813170037B
:100360007104031DB429B529072A20004508BF3EA2
:10037000C600FF3003180030C700003047021A30B3
:1003800003194602031CC529C7290130C8290030BA
:10039000C800C90148082100A60020004908210022
:1003A000A700260827040319D629D729E1291130E7
:1003B000F000A030F1005308A03E803104208131CC
:1003C000EA291930F000A030F1005308A03E803136
:1003D00004208131FD302100C007FF30C13DA03035
:1003E0002000C6004608A400210041082000A60005
:1003F000210040082000A50021003C089031D620B3
:10040000813120002508C2002408C100E72F210007
:100410005008F3004F08F2004E08F1004D08F000BC
:1004200091318E21813170087104031D182A192A17
:100430006B2A20004508BF3EC600FF30031800307D
:10044000C700003047021A3003194602031C292A4C
:100450002B2A01302C2A0030C800C901480821008D
:10046000A800200049082100A90028082904031930
:100470003A2A3B2A452A1530F000A030F1005308F3
:10048000A03E8031042081314E2A1D30F000A03082
:10049000F1005308A03E803104208131FD3021005D
:1004A000C007FF30C13DA0302000C6004608A400B0
:1004B000210041082000A600210040082000A500DE
:1004C00021003C089031D620813120002508C2004F
:1004D0002408C100E72F3F302100D8008030D7002A
:1004E0000030D6000030D500D101D2015008F30011
:1004F0004F08F2004E08F1004D08F0000030F70000
:100500000030F6000030F5000030F4009F31622723
:10051000813103188C2A8D2A422BBE2A41302000BB
:10052000A3002030A2000030A1000030A000210074
:1005300058082000A700210057082000A60021002D
:1005400056082000A500210055082000A4008D3188
:10055000A9258131200023082100D800200022088D
:100560002100D700200021082100D600200020080B
:100570002100D5000130D1070030D23D21005008C4
:100580002000B80021004F082000B70021004E08CD
:100590002000B60021004D082000B5004130A30026
:1005A0002030A2000030A1000030A0002100580837
:1005B0002000A700210057082000A60021005608AF
:1005C0002000A500210055082000A4008D31A92598
:1005D000813120002308BC002208BB002108BA009A
:1005E0002008B90092310D2281310318F82AF92A26
:1005F0008E2A1B2B4130F3002030F2000030F10036
:100600000030F00021005808F7005708F60056089F
:10061000F5005508F40096314C268131730821000D
:10062000D8007208D7007108D6007008D500FF30D6
:10063000D107FF30D23D210050082000B800210032
:100640004F082000B70021004E082000B60021000E
:100650004D082000B500210058082000BC002100F2
:1006600057082000BB00210056082000BA002100D6
:1006700055082000B90092310D228131031C412B15
:10068000422BFA2A20004508C600C7014608F6009A
:100690004708F7009E312526813176082000C800E2
:1006A00048082100C20042082000C6004608210078
:1006B000BF0067304206031D5E2B5F2B842B6B0847
:1006C0006C04031D642B652B692B0130EB0000309B
:1006D000EC006C08803A2000C60080304602031D02
:1006E000742B013021006B020318772B782B7E2BA3
:1006F00006302100BD000030BE00892B21006C08AF
:10070000BE006B08BD00892BEC1B872B882B782B38
:100710007E2B67304206031D8E2B8F2BC72B520872
:10072000803A2000C6007F304602031D9A2BFC3021
:1007300021005102031C9D2B9E2BC12B21003D0843
:10074000FF3E2000C600FF3021003E3D2000C700D4
:100750004708803AC80021005208803A2000480229
:10076000031DB62B2100510820004602031CB92BA3
:10077000BA2BC12B66302000C60046082100BF00FE
:10078000C72B65302000C60046082100BF003E0888
:10079000B5003D08B40067304206031DD02BD12BB5
:1007A000DB2B66303F06031DD62BD72BDF2BD21F4A
:1007B000DA2BDB2BDF2B0130B4070030B53D663080
:1007C0003F06031DE42BE52BFD2BD21FE82BE92B65
:1007D000F32B3F30D8008030D7000030D6000030F7
:1007E000D500D101D201673042060319F82BF92B4D
:1007F000FD2B5108B4075208B53DCB01CC01500880
:10080000C6004F08C5004E08C4004D08C300580874
:10081000A3005708A2005608A1005508A000BE2C4E
:1008200021005808F3005708F2005608F100550857
:10083000F0004608F7004508F6004408F5004308B4
:10084000F40096314C26813173082000B000720804
:10085000AF007108AE007008AD008831742081319E
:10086000200030082100CA0020002F082100C90004
:1008700020002E082100C80020002D082100C700FC
:100880004A08F3004908F2004808F1004708F00060
:1008900088310020813171082100B9007008B8004A
:1008A0004A082000A700210049082000A6002100D6
:1008B00048082000A500210047082000A4002100CE
:1008C00058082000A300210057082000A2002100A2
:1008D00056082000A100210055082000A0008D31FD
:1008E000A925813120002308B8002208B70021087B
:1008F000B6002008B500210046082000BC002100F9
:1009000045082000BB00210044082000BA00210057
:1009100043082000B9009D31BF25813120003808EF
:100920002100C600200037082100C500200036083D
:100930002100C400200035082100C3004130F3002D
:100940002030F2000030F1000030F0005808F700CD
:100950005708F6005608F5005508F40096314C2665
:10096000813173082100D8007208D7007108D600C1
:100970007008D5000130CB070030CC3D4C08803AE0
:100980002000C60021003508803A20004602031DE1
:10099000CC2C210034084B02031CCF2CD02C102C63
:1009A00040302000A300A030A2000030A1000030A1
:1009B000A000210058082000A700210057082000AF
:1009C000A600210056082000A5002100550820009F
:1009D000A4008D31A9258131200023082100CA00FF
:1009E000200022082100C900200021082100C800A1
:1009F000200020082100C70046082000B800210080
:100A000045082000B700210044082000B60021005E
:100A100043082000B50021004A082000BC00210046
:100A200049082000BB00210048082000BA0021002E
:100A300047082000B90092310D2281310318212D81
:100A4000222D2C2D00302100CA000030C9000030BA
:100A5000C8000030C700512D21004608F3004508AA
:100A6000F2004408F1004308F0004A08F700490882
:100A7000F6004808F5004708F4009F3162278131ED
:100A8000031C432D442D512D21003818482D492D8C
:100A9000512D0030CA000030C9000030C8000030BD
:100AA000C70021004A08F3004908F2004808F10095
:100AB0004708F0005008F7004F08F6004E08F50010
:100AC0004D08F4008B316A23813173082100C60080
:100AD0007208C5007108C4007008C3002308D8005C
:100AE0002208D7002108D6002008D50065303F062F
:100AF00003197B2D7C2D812D5208B7005108B600BB
:100B0000832DB601B701B201B301B001B101CB0130
:100B1000CC01AE2E21005808F3005708F200560809
:100B2000F1005508F0004608F7004508F6004408B3
:100B3000F5004308F40096314C26813173082000FB
:100B4000B0007208AF007108AE007008AD008831C7
:100B500074208131200030082100CA0020002F08B5
:100B60002100C90020002E082100C80020002D0807
:100B70002100C7004A08F3004908F2004808F100C4
:100B80004708F00088310020813171082100B90048
:100B90007008B8006D1ACD2DCE2DE32D380839041C
:100BA000031DD32DD42DE32D67304206031DD92D0F
:100BB000DA2DE32DB71FDD2DDE2DE32D0130B0073B
:100BC0000030B13D3C2E32083304031DE82DE92DE1
:100BD000202EB71FEC2DED2D202E2E302000C6002C
:100BE00021005308A03E86000130870020004608FF
:100BF000810001302100D3070030D43DFF30C00711
:100C0000FF30C13D0130B2000030B300202E303043
:100C10002000C60021005308A03E86000130870056
:100C200020004608810001302100D3070030D43D68
:100C3000FF30C007FF30C13DFF30B007FF30B13D8E
:100C400030083104031D252E262E072E3808303E8D
:100C50002000C60021005308A03E86000130870016
:100C600020004608810001302100D3070030D43D28
:100C7000FF30C007FF30C13D4A082000A700210017
:100C800049082000A600210048082000A5002100F6
:100C900047082000A400210058082000A3002100DC
:100CA00057082000A200210056082000A1002100C2
:100CB00055082000A0008D31A9258131200023088E
:100CC000B8002208B7002108B6002008B5002100AE
:100CD00046082000BC00210045082000BB00210080
:100CE00044082000BA00210043082000B9009D31CB
:100CF000BF258131200038082100C60020003708B8
:100D00002100C500200036082100C400200035085D
:100D10002100C3004130F3002030F2000030F10028
:100D20000030F0005808F7005708F6005608F500A4
:100D30005508F40096314C26813173082100D80003
:100D40007208D7007108D6007008D500FF30B607CA
:100D5000FF30B73D0130CB070030CC3D4C08803A26
:100D60002000C60021003508803A20004602031DFD
:100D7000BC2E210034084B020318BF2EC02ED02EEB
:100D800021005408803A2000C60080304602031D2E
:100D9000CC2E4B3021005302031CCF2ED02E8A2D97
:100DA000210032083304031DD62ED72EEC2E6D1EE3
:100DB000DA2EDB2EEC2E2E302000C6002100530848
:100DC000A03E8600013087002000460881000130E7
:100DD0002100D3070030D43D5308A03E86000130E7
:100DE0008700810165303F06031DF72EF82ED02FB6
:100DF0004F30CB000030CC004B08A03E86000130C5
:100E000087008101BA01BB01D21F072F082F112FC4
:100E10000130BA000030BB00D109D209D10A031950
:100E2000D20A0230BD000030BE004C2FFF3021003E
:100E3000CB07FF30CC3D0A30F0000030F100520803
:100E4000F3005108F20090312B2081317008303EC0
:100E50002000C60021004B08A03E8600013087001C
:100E60002000460881000A30F0000030F100210027
:100E70005208F3005108F20091312F21813171089D
:100E80002100D2007008D100FF30BD07FF30BE3D09
:100E9000FF30C007FF30C13D51085204031D512FE0
:100EA000522F162F3E08803A2000C600803046029E
:100EB000031D5D2F013021003D020318602F612FBB
:100EC000162FFF302100CB07FF30CC3D3A083B0402
:100ED000031D6B2F6C2F712F2B30AA000030AB003D
:100EE000752F2D30AA000030AB002A082000C60064
:100EF00021004B08A03E86000130870020004608F4
:100F00008100FF302100C007FF30C13DFF30CB071B
:100F1000FF30CC3D20004508BF3EC600FF3003181F
:100F20000030C700003047021A3003194602031C84
:100F30009A2F9C2F01309D2F0030C800C90148080E
:100F40002100AE00200049082100AF002E082F0428
:100F5000031DAB2FAC2FB12F6530AC000030AD00BE
:100F6000B52F4530AC000030AD002C082000C60085
:100F700021004B08A03E8600013087002000460873
:100F80008100FF302100C007FF30C13D4B08A03E6B
:100F9000F0000130F1005308A03E8031042081317F
:100FA000A0302000C6004608A4002100410820000F
:100FB000A600210040082000A50021003C08903137
:100FC000D620813120002508C2002408C100080075
:100FD0002100EB01EC01ED01EE014630840001300F
:100FE00085000C309D3105258731A030840001300B
:100FF000850050309D310525873120009331452BE8
:101000000310720D730DF4007408FA007A08031DC2
:101010000A280B2814280030F3000030F2000030BA
:10102000F1000030F00073287008F4007108F5003A
:101030007208F6007308F7001F30F736F60CF50C4F
:10104000F40C890B1D287408F8007808F900F217D1
:10105000FF30F005FF30F105FF30F2050030F305F9
:101060009630FA02FA1F352836284E287A08803A38
:10107000973E03183C283D283E280B280130F336C4
:10108000F20CF10CF00C890B3F280130F4007408CD
:10109000FA07031D4C284D283E28632820307A0289
:1010A000031C532854285E280B280130F035F10D1D
:1010B000F20DF30D890B56280130FA027A08031D50
:1010C0006228632855287908031967286828732837
:1010D000F009F109F209F309F00A0319F10A0319F9
:1010E000F20A0319F30A0800220049082000C00090
:1010F000220048082000BF00220047082000BE0050
:10110000220046082000BD003008C0002F08BF00A4
:101110002E08BE002D08BD003D08B1003E08B200FB
:101120003F08B3004008B4001730B436B30CB20C1B
:10113000B10C890B9528FF303105B5000030320520
:10114000B6003508813EBB00FF30363DBC003C0890
:10115000803AB10080303102031DB02817303B02C5
:10116000031CB328B428B5285E292000BC1BB9286D
:10117000BA281729FF30B100FF30B2007F30B3002A
:101180000030B4003B0AC828B437B30CB20CB10C21
:10119000890BC4283408BA003308B9003208B800F3
:1011A0003108B7003D083705B1003E083805B200E8
:1011B0003F083905B30040083A05B4003408330449
:1011C00032043104031DE528E628E728B4283D0849
:1011D000B1003E08B2003F08B3004008B4001F3021
:1011E000B436B30CB20CB10C890BF02834083304BC
:1011F000320431040319FD28FE2806293708BD07EB
:101200003808BE3D3908BF3D3A08C03D3709B10036
:101210003809B2003909B3003A09B4003108BD05F4
:101220003208BE053308BF053408C00556293D08FD
:10123000B1003E08B2003F08B3004008B4001F30C0
:10124000B436B30CB20CB10C890B2029340833042A
:1012500032043104031D2D292E2937290030C00006
:101260000030BF000030BE000030BD0056293D08F0
:10127000B1003E08B2003F08B3004008B40001309E
:10128000B135B20DB30DB40D890B402934083304C8
:101290003204310403194D294E295629BF30C000AC
:1012A0008030BF000030BE000030BD004008B000FC
:1012B0003F08AF003E08AE003D08AD00080020002A
:1012C000E8004E0886008701403FD000413FD10032
:1012D00050088400510885001200253A031D712929
:1012E0007229462B4E088600870101308107413163
:1012F0000318810A2200D001D1012100ED01EE0185
:10130000FF30EB00FF30EC0020004E088600870124
:10131000403FD000413FD100500884005108850073
:101320000008D200D3015208F6005308F7009E319E
:101330002526893176082000D4005408E40064088A
:101340000319A329A429E3294E0886008701403FF9
:10135000D000413FD10001305007840051080318EC
:10136000510A85000008D200D3015208F600530844
:10137000F7009E312526893176082000D4005408D4
:10138000E50065080319C529C629E3294E0886002A
:101390008701403FD000413FD10002305007840018
:1013A00051080318510A85000008D200D3015208E1
:1013B000F6005308F7009E31252689317608200073
:1013C000D4005408E6004E0886008701403FD00054
:1013D000413FD10050088400510885001200643A52
:1013E0000319F329F429052A4E0886008701403F96
:1013F000D000413FD1005008840051088500120000
:10140000693A031D042A052A402A4E0886008701EE
:101410000130810741310318810A4F088600870196
:1014200001088400850102308107003FD000013FA0
:10143000D1005008D6005108D700890D893B890991
:10144000D800D900DA00DB00DC00DD005608B0006F
:101450005708B1005808B2005908B3005A08B40040
:101460005B08B5005C08B6005D08B70068089431F9
:10147000DC24893120003108CF003008CE00692BF0
:1014800066306406031D452A462A832A4E088600D4
:101490008701403FD000413FD100500884005108EF
:1014A00085000008D2005208E7004E088600870138
:1014B0000130810741310318810A4F0886008701F6
:1014C00001088400850104308107003FE000013FEE
:1014D000E100023FE200033FE3006308C40062084A
:1014E000C3006108C2006008C1006708D00050084E
:1014F000C500680881312621893120004208CF00CB
:101500004108CE00692B2130F000A030F1000230FC
:10151000F2000030F300643090317E208931700891
:101520007104031D942A952A102B20004E08860072
:101530008701403FD000413FD10001305007840077
:1015400051080318510A85000008D2005208E7002C
:101550004E0886008701403FD000413FD10050082F
:101560008400510885000008BF3ED200FF300318F8
:101570000030D300003053021A3003195202031C0A
:10158000C22AC42A0130C52A0030D400D50154082B
:10159000DE005508DF005E085F040319D02AD12A57
:1015A000E22A4F0886008701010884008501043083
:1015B0008107003FE000013FE100023FE200033FFE
:1015C000E300F22A4F0886008701010884008501A4
:1015D00004308107003FE000013FE100023FE200EC
:1015E000033FE3004E088600870102308107413146
:1015F0000318810A6308C4006208C3006108C200BE
:101600006008C1006708D0005008C5006808813133
:101610002621893120004208CF004108CE00692BE5
:1016200020004E0886008701403FD000413FD10096
:1016300050088400510885001200253A031D212B13
:10164000222B3B2B4E088600870101308107413158
:101650000318810A2530F0000030F1006808D0003E
:101660005008F2009F31B027893101302000CE00B0
:101670000030CF00692B4E088600870101308107BA
:1016800041310318810ACE01CF01692B4E08860033
:101690008701403FD000413FD100500884005108ED
:1016A00085000008D200D3015208F0005308F10071
:1016B0006808D4005408F2009F31B0278931200017
:1016C0004E08860087010130810741310318810AE5
:1016D000352B0800730880392000A0002008F8008E
:1016E0007335A0002008FA00F21F772B782B792B96
:1016F0007A147A0803197D2B7E2B8E2B7A0A031D10
:10170000822B832B8B2B0030F3000030F200003053
:10171000F1000030F000F217F301962B0030F300D7
:101720000030F2000030F1000030F000770880391E
:10173000A0002008F900790878060319A02BA12B36
:10174000A22B78177735A0002008F900F61FA92BE7
:10175000AA2BAB2B791479080319AF2BB02BC02B14
:10176000790A031DB42BB52BBD2B0030F7000030D8
:10177000F6000030F5000030F400F617F701C82B32
:101780000030F7000030F6000030F5000030F400C3
:101790007A0879020318CD2BCE2B122C781FD12B6F
:1017A000D22BD62B8030A0002008F8067A08A000A3
:1017B0002008FB007908A0002008FA007B08A000A0
:1017C0002008F9007008A0002008FB007408A000A1
:1017D0002008F0007B08A0002008F4007108A00099
:1017E0002008FB007508A0002008F1007B08A0007D
:1017F0002008F5007208A0002008FB007608A00071
:101800002008F2007B08A0002008F6007308A00062
:101810002008FB007708A0002008F3007B08A00048
:101820002008F700FB017908A000A1012108A3000E
:101830007A082002A200031CA3032308803AA40014
:1018400080302402031D262C1A302202031C292C6E
:101850002A2C642C7308720471047004031D312C4B
:10186000332C0130342C00302000A0002008FB0075
:101870000030F3000030F2000030F1000030F000E2
:101880007908A0002008FA006A2C7B1C482C492CFF
:10189000502C7B3601382000A0002008FB00522C81
:1018A0000310FB0C701C552C562C572CFB170130C9
:1018B0002000A000F337F20CF10CF00CA00B5A2C16
:1018C0000130A0002008FA0779087A02031C692C6D
:1018D0006A2C452C781B6D2C6E2CA82C7A08031DC5
:1018E000722C732C7C2C0030F3000030F20000309E
:1018F000F1000030F000A82D7408F0077508F13DE4
:101900007608F23D7708F33D731C872C882C352D23
:101910007B1C8B2C8C2C932C7B3601382000A00058
:101920002008FB00952C0310FB0C701C982C992CA4
:101930009A2CFB1701302000A000F337F20CF10CB9
:10194000F00CA00B9D2C0130A0002008FA07352DCB
:101950007308803A2000A0007708803A2002031D17
:10196000BB2C76087202031DBB2C75087102031D87
:10197000BB2C740870020318BE2CBF2CF72CFF3050
:10198000A000FF30A100FF30A200FF30A3007008CC
:101990007402A4007108753BA5007208763BA6008E
:1019A0007308773BA7002408A0072508A13D260857
:1019B000A23D2708A33D2308F3002208F2002108D6
:1019C000F1002008F0008030A0002008F806FB0994
:1019D000FB0A7B08031DED2CEE2CFF2C0130F007D9
:1019E0000030F13D0030F23D0030F33DFF2C740833
:1019F000F0027508F13B7608F23B7708F33B730879
:101A0000720471047004031D062D072D312D7B080F
:101A1000031D0B2D0C2D312D0030F3000030F20092
:101A20000030F1000030F000A82D0130F035F10D4C
:101A3000F20DF30D890B162DFB1F1F2D202D212DCF
:101A400070147B1C242D252D282D0314FB0D2A2D0D
:101A50000310FB0D7A0803192E2D2F2D312D013087
:101A6000FA02F21F342D352D152DF901FB1F392DEA
:101A70003A2D482D7B087F3903193F2D402D432DEA
:101A8000F901F90A482D701C462D472D482D402D8F
:101A9000790803194C2D4D2D7B2D0130F0070030B6
:101AA000F13D0030F23D0030F33D731C582D592DAF
:101AB0007B2D70082000A0007108A1007208A20010
:101AC0007308A3000130A400A337A20CA10CA00C42
:101AD000A40B642D2308F3002208F2002108F10072
:101AE0002008F0007A0A0319762D772D7B2D01301E
:101AF000A0002008FA077A0A03197F2D802D852D72
:101B00007A08031D842D852D932D0030F3000030BD
:101B1000F2000030F1000030F0007A08031D912D32
:101B2000922D932DF8017A1C962D972D992DF21751
:101B30009E2D7F302000A0002008F2057A3620007C
:101B4000A0002008F300F81FA62DA72DA82DF3173D
:101B50000800200023088039F9007908A8002335FF
:101B6000F9007908AE00A21FB62DB72DB82D2E149E
:101B70002E080319BC2DBD2DCC2D2E0A031DC12D01
:101B8000C22DCA2D0030A3000030A2000030A100F9
:101B90000030A000A217D42D0030A3000030A20016
:101BA0000030A1000030A00027088039F900790832
:101BB000A8062735F9007908AD00A61FE02DE12D14
:101BC000E22D2D142D080319E62DE72DF62D2D0AF3
:101BD000031DEB2DEC2DF42D0030A7000030A600E6
:101BE0000030A5000030A400A617FE2D0030A7008D
:101BF0000030A6000030A5000030A4002D08031915
:101C0000022E032E082E2E08031D072E082E112E3D
:101C10000030A3000030A2000030A1000030A0007E
:101C2000FF2F2008F9007908F00026089E310226CF
:101C30008D3171082000B4007008B3003308F9003A
:101C4000FA01FB01FC017C08AC007B08AB007A08C0
:101C5000AA007908A9003408F900FA01FB01FC0187
:101C60007C08B2007B08B1007A08B0007908AF00A8
:101C70002108F9007908F00025089E3102268D31EF
:101C800071082000B4007008B3003308F900FA01AD
:101C9000FB01FC017908A9077A08AA3D7B08AB3D46
:101CA0007C08AC3D3408F900FA01FB01FC0179081D
:101CB000AF077A08B03D7B08B13D7C08B23D2208F1
:101CC000F9007908F00024089E3102268D31710850
:101CD0002000B4007008B3003308F900FA01FB01DA
:101CE000FC017908A9077A08AA3D7B08AB3D7C086E
:101CF000AC3D3408F900FA01FB01FC017908AF079B
:101D00007A08B03D7B08B13D7C08B23D0830A9356A
:101D1000AA0DAB0DAC0D890B872E2108F9007908AF
:101D2000F00024089E3102268D3171082000B40095
:101D30007008B3003308A9073408AA3D0030AB3D52
:101D4000AC3D2008F9007908F00025089E310226F4
:101D50008D3171082000B4007008B3003308A90762
:101D60003408AA3D0030AB3DAC3D0830A935AA0D82
:101D7000AB0DAC0D890BB62E2008F9007908F000E8
:101D800024089E3102268D3171082000B4007008AD
:101D9000B3003308A9073408AA3D0030AB3DAC3D81
:101DA0002108F9007908F00026089E3102268D31BD
:101DB00071082000B4007008B3003308AF0734087E
:101DC000B03D0030B13DB23D2208F9007908F00085
:101DD00025089E3102268D3171082000B40070085C
:101DE000B3003308AF073408B03D0030B13DB23D19
:101DF0002208F9007908F00026089E3102268D316C
:101E000071082000B4007008B3003308F9003408EA
:101E1000FA00FB01FC010830F935FA0DFB0DFC0D51
:101E2000890B0C2F7908AF077A08B03D7B08B13DCC
:101E30007C08B23D2908F9002A08FA002B08FB00AB
:101E40002C08FC001830FC36FB0CFA0CF90C890B42
:101E5000232F7908AF077A08B03D7B08B13D7C0895
:101E6000B23D0830A935AA0DAB0DAC0D890B322F50
:101E70002E082D07F900FA01FA0D7908823EB30009
:101E8000FF307A3DB4005B2F0130AF35B00DB10D9E
:101E9000B20D890B452FAC1F4E2F4F2F502F2F14F3
:101EA0000130A935AA0DAB0DAC0D890B512FFF30B8
:101EB000B307FF30B43DB11F5E2F5F2F442FAD013C
:101EC000AC1F632F642F802FFF302905F900FF30EE
:101ED0002A05FA00FF302B05FB007F302C05FC00A3
:101EE0007C087B047A0479040319772F782F7B2FE1
:101EF000AD01AD0A802F2F1C7E2F7F2F802F782FD2
:101F00002D080319842F852FAD2F0130AF07003026
:101F1000B03D0030B13D0030B23D321C902F912FCA
:101F2000AD2F2F08F9003008FA003108FB00320805
:101F3000FC000130FD00FC37FB0CFA0CF90CFD0B2A
:101F40009B2F7C08B2007B08B1007A08B0007908AA
:101F5000AF000130B3070030B43D3408803AF900D7
:101F600080307902031DB62FFF303302031CB92FD6
:101F7000BA2FC42F7F302000B2008030B100003073
:101F8000B0000030AF00F32F20003408803AF90091
:101F900080307902031DCE2F013033020318D12F78
:101FA000D22FDD2F00302000B2000030B100003011
:101FB000B0000030AF00A801F32F20003308F90073
:101FC0007908AE00FF30AF05FF30B0057F30B105B6
:101FD0000030B2052E1CED2FEE2FEF2FB1172E364D
:101FE000F9007908B2002808F9007908B20432082B
:101FF000A3003108A2003008A1002F08A0000800AB
:1020020008002000A300A101A2011A282008F9005B
:10201200FA017908F0007A08F1007808FB007B08E1
:10202200F2009F31B027903101302000A10700302B
:10203200A23D21082307F9007908860001308700B4
:102042000108FA007A08A0002008031D29282A287E
:1020520007280800F601F31F2F2830283728F20935
:10206200F309F20A0319F30AF601F60AF11F3A28F4
:102072003B284028F009F109F00A0319F10A700817
:1020820071040319452846286F28F501F50A5228DC
:102092000130F035F10D890B4A280130F400740843
:1020A200F507F11F55285628492871087302031DA8
:1020B2005C2870087202031C5F286028642870087C
:1020C200F2027108F33B0130F136F00C890B6528FE
:1020D2000130F502031D6E286F2856287608031971
:1020E200732874287928F209F309F20A0319F30A0A
:1020F2007308F1007208F0000800F5007508F4009A
:102102007408F8007108F7007008F6000130F20256
:102112000030F33B720A031D9228730A031D9228B2
:102122009328A228F001F101D5280130F4007408A7
:10213200F8070130F6070030F73D0130F2020030B7
:10214200F33B78088600870101080319A928AA2809
:10215200C828760884007708850012000319B2287F
:10216200B328C828720873040319B828B928C828E4
:1021720076088400770885000008F4007808860055
:102182008701010874060319C728C8289628780809
:10219200860087017608840077088500000801021E
:1021A200F000F101031CF10308002000AB00210044
:1021B2006D1CDC28DD28E62820002B08FC007C08AA
:1021C200F80024089031022090312000A61BEA2852
:1021D200EB28F0282608AA002508A900F228A90160
:1021E200AA01A701A80106292030F0000030F10061
:1021F20020002B08FC007C08F2009F31B0279031B0
:1022020001302000A7070030A83D2808803AFC00D2
:102212002A08803A7C02031D102929082702031C80
:1022220013291429F52821006D18182919292229A2
:1022320020002B08FC007C08F800240890310220C2
:102242009031200024089D31652590312000290815
:102252007007A4002A08713DA5000800F601F11FCD
:10226200332934293B29F009F109F00A0319F10A4B
:10227200F601F60AF31F3E293F294829F209F3091C
:10228200F20A0319F30A0130F4007408F606F701A2
:10229200F8017008710403194F2950297F29F501AB
:1022A200F50A5C290130F035F10D890B5429013012
:1022B200F4007408F507F11F5F29602953290130E2
:1022C200F735F80D890B612971087302031D6B291B
:1022D20070087202031C6E296F2974297008F202B9
:1022E2007108F33B77140130F136F00C890B752934
:1022F2000130F502031D7E297F2960297608031922
:10230200832984298929F709F809F70A0319F80AA0
:102312007808F1007708F000080022004D0820003C
:10232200A50022004C082000A40022004B08200037
:10233200A30022004A082000A2007308A500720828
:10234200A4007108A3007008A2002208F400230868
:10235200F5002408F6002508F7001730F736F60CCA
:10236200F50CF40C890BAF29FF307405A000003086
:102372007505A10020082104031DC029C129E229F5
:102382002208F4002308F5002408F6002508F700C7
:102392000130F435F50DF60DF70D890BCA297708D2
:1023A200760475047404031DD729D829DD29023067
:1023B200F0000030F1000C2A0330F0000030F10090
:1023C2000C2A200A2104031DE729E829082A2208E9
:1023D200F4002308F5002408F6002508F700093068
:1023E200F435F50DF60DF70D890BF1297708760412
:1023F200750474040319FE29002A0130012A0030F1
:10240200F800F9017808F0007908F1000C2A04308C
:10241200F0000030F1000800003020003505BD005A
:1024220000303605BE0080303705BF007F303805EA
:10243200C00040083F043E043D04031D212A222A15
:102442002A2A0030B8000030B7000030B600003051
:10245200B50000303905BD0000303A05BE008030BD
:102462003B05BF007F303C05C00040083F043E04EE
:102472003D04031D3D2A3E2A462A0030BC0000309E
:10248200BB000030BA000030B900B81F492A4A2AFE
:10249200622A0030BD000030BE000030BF00803034
:1024A200C0003508BD023608BE3B3708BF3B3808BE
:1024B200C03B4008B8003F08B7003E08B6003D08E0
:1024C200B500BC1F652A662A7E2A0030BD00003096
:1024D200BE000030BF008030C0003908BD023A089B
:1024E200BE3B3B08BF3B3C08C03B4008BC003F082A
:1024F200BB003E08BA003D08B9008030B806803003
:10250200BC063C083802031D902A3B083702031D13
:10251200902A3A083602031D902A39083502031818
:10252200932A942A962A0310972A0314080020005B
:10253200A400240803199E2A9F2AB32AFC1FA22A58
:10254200A32AB32A7909A6007A09A7007B09A80061
:102552007C09A900A60A0319A70A0319A80A0319E4
:10256200A90ABB2A7C08A9007B08A8007A08A70050
:102572007908A6007C087B047A047904031DC22A28
:10258200C32ACC2A0030FC000030FB000030FA00E5
:102592000030F900442B9630A0002008A500DC2A68
:1025A2000130A0002008A5070130A936A80CA70C0D
:1025B200A60C890BD62AFE302905031DE12AE22A40
:1025C200D12AF62A0130A0002008A5070130A6076B
:1025D2000030A73D0030A83D0030A93D0130A936AA
:1025E200A80CA70CA60C890BF02AFF302905031DA5
:1025F200FB2AFC2AE32A062B0130A5020130A6356C
:10260200A70DA80DA90D890B002BA81B092B0A2BBE
:10261200102B0230250203180F2B102BFD2A251830
:10262200132B142B1C2BFF30A605FF30A7057F3080
:10263200A805FF30A9050310A50C2508A000A101DB
:10264200A201A3011830A035A10DA20DA30D890B83
:10265200242B2008A6042108A7042208A804230882
:10266200A90424080319362B372B3C2BFC1F3A2BC9
:102672003B2B3C2BA9172908FC002808FB00270844
:10268200FA002608F900080000302200C1000030DC
:10269200C0000030BF000030BE00C201C301703074
:1026A200210099008D1023008D018F0121008F01DF
:1026B200FF3023008C0021008C019E31D9269331FA
:1026C2009C31FF24933122004308803A2000EF001E
:1026D20080306F02031D702B643022004202031C03
:1026E200732B742BA92B20008F148D100030F00057
:1026F200F1009D31DF25933171082200C500700879
:10270200C4004508F3004408F200FF30F000033033
:10271200F10091312F2193317008F9007108FA000C
:10272200890D893B8909FB00FC0001309231982216
:1027320093317C082200C1007B08C0007A08BF00E8
:102742007908BE009D310B2593312200C201C301DD
:1027520001302200C2070030C33D09302100DC00F5
:10276200A030DD00220045082100DF0022004408DD
:102772002100DE0020309E3176269331F301F30AE8
:1027820001309F311C27933120309D319F25933199
:1027920000302100DC00A030DD00220041082100D1
:1027A200E100220040082100E00022003F08210051
:1027B200DF0022003E082100DE0020309E31762616
:1027C2009331F301F30A02309F311C2793312030F9
:1027D2009D319F25933120008F108D14642B803101
:1027E2000228F2012830860000308700473FF000BF
:1027F200F01FFC2BFD2B1E2C2000A809A909AA09F9
:10280200AB09AC09AD09AE09AF09A80A031D1C2C1E
:10281200A90A031D1C2CAA0A031D1C2CAB0A031DAA
:102822001C2CAC0A031D1C2CAD0A031D1C2CAE0A69
:10283200031D1C2CAF0AF201F20A20308600003080
:102842008700473FF000F01F272C282C472C200040
:10285200A009A109A209A309A409A509A609A70912
:10286200A00A031D472CA10A031D472CA20A031D1F
:10287200472CA30A031D472CA40A031D472CA50AB3
:10288200031D472CA60A031D472CA70A2000200877
:102892002104220423042404250426042704031902
:1028A200532C542CA72CF101F10A632CA035A10D55
:1028B200A20DA30DA40DA50DA60DA70D0130F000CC
:1028C2007008F107A71F662C672C572C27082F02C8
:1028D200031D852C26082E02031D852C25082D029A
:1028E200031D852C24082C02031D852C23082B0292
:1028F200031D852C22082A02031D852C210829028A
:10290200031D852C20082802031C882C892C992C55
:102912002008A8022108A93B2208AA3B2308AB3BB6
:102922002408AC3B2508AD3B2608AE3B2708AF3B4D
:10293200A736A60CA50CA40CA30CA20CA10CA00CEF
:102942000130F102031DA62CA72C672C7208031973
:10295200AB2CAC2CCA2CA809A909AA09AB09AC0951
:10296200AD09AE09AF09A80A031DCA2CA90A031DA5
:10297200CA2CAA0A031DCA2CAB0A031DCA2CAC0A14
:10298200031DCA2CAD0A031DCA2CAE0A031DCA2C94
:10299200AF0A20002808A0002908A1002A08A200E6
:1029A2002B08A3002C08A4002D08A5002E08A600C1
:1029B2002F08A70008002000BD003008C40031081D
:1029C200C5003208C6003308C7003408C8003508FD
:1029D200C9003608CA003708CB00443086000030F0
:1029E2008700473FB800B81BF72CF92C0130FA2CAE
:1029F20000302000B900BA013908C2003A08C30009
:102A0200420843040319062D072D252DC409C509C3
:102A1200C609C709C809C909CA09CB09C40A031DDD
:102A2200252DC50A031D252DC60A031D252DC70AFE
:102A3200031D252DC80A031D252DC90A031D252D99
:102A4200CA0A031D252DCB0A2100EC1B292D2A2D94
:102A52002E2DFD30ED05FF30EE056C08803A20008A
:102A6200B80080303802031D392D013021006B027D
:102A720003183C2D3D2D432D01302000BE000030B7
:102A8200BF004B2D21006C082000BF0021006B0805
:102A92002000BE00220051082000C1002200500880
:102AA2002000C00042084304031D582D592D5E2DFD
:102AB20021006D1D5D2D5E2D632DFF302000C007AE
:102AC200FF30C13D4F302000CC000030CD0023004C
:102AD200EF01D42DFF302000CC07FF30CD3D0A306E
:102AE200A000A101A201A301A401A501A601A701C1
:102AF2004408A8004508A9004608AA004708AB00F8
:102B02004808AC004908AD004A08AE004B08AF00C7
:102B12009331F223943120002108F4002008F300BD
:102B22009D314B2594317308303E2000B8004C088B
:102B3200A03E86000130870038088100FF30BE07C2
:102B4200FF30BF3DFF30C007FF30C13D0A30A0005B
:102B5200A101A201A301A401A501A601A7014408A4
:102B6200A8004508A9004608AA004708AB00480883
:102B7200AC004908AD004A08AE004B08AF008031F6
:102B82002520943120002008C4002108C500220815
:102B9200C6002308C7002408C8002508C900260863
:102BA200CA002708CB0020004D08803AB8008030C8
:102BB2003802031DDE2D01304C02031CE12DE22DF3
:102BC2000F2E2000440845044604470448044904E3
:102BD2004A044B04031DEE2DEF2D6B2D3F08803A66
:102BE200B80080303802031DF82D01303E02031870
:102BF200FB2DFC2D6B2D20004108803AB80080305F
:102C02003802031D062E01304002031C092E0A2E33
:102C12000F2E2100ED180E2E0F2E6B2D20004208D4
:102C22004304031D152E162E1B2E21006D1D1A2E78
:102C32001B2E382EFF302000CC07FF30CD3D42083E
:102C42004304031D252E262E2B2E2B30BB000030D5
:102C5200BC002F2E2D30BB000030BC003B08B8005A
:102C62004C08A03E86000130870038088100200011
:102C72004C08A03EB8003808A4004108A60040084D
:102C8200A5003D089031D620943120002508B100DE
:102C92002408B000080077088039F800780820007E
:102CA200A4007735F8007808AB00F61F592E5A2E8B
:102CB2005B2E2B142B0803195F2E602E702E2B0A0D
:102CC200031D642E652E6D2E0030F7000030F600D5
:102CD2000030F5000030F400F617F701782E0030CE
:102CE200F7000030F6000030F5000030F400730801
:102CF2008039F8007808A4067335F8007808AC002B
:102D0200F21F842E852E862E2C142C0803198A2E4F
:102D12008B2E9B2E2C0A031D8F2E902E982E003068
:102D2200F3000030F2000030F1000030F000F21742
:102D3200F301A32E0030F3000030F2000030F10066
:102D42000030F0007308720471047004031DAA2E8F
:102D5200AB2EC42E0030F7000030F6000030F50034
:102D62000030F4008030F6047F30F7042408F800C5
:102D72007808F7047708F3007608F2007508F10086
:102D82007408F000FF2F2B08031DC82EC92ED22E67
:102D92000030F3000030F2000030F1000030F000AB
:102DA200FF2F2B08F800F9017908FB002C087802A4
:102DB200FA00031CFB037A087F3EA50000307B3D2E
:102DC200A6007708A3007608A2007508A10074087F
:102DD200A0000030F7000030F6000030F5000030AF
:102DE200F4000030AA000030A9000030A800003032
:102DF200A700AC013A2F2C080319002F012F1B2F1B
:102E02000130A035A10DA20DA30D890B022F0130B7
:102E1200F435F50DF60DF70D890B092FAA1F122FA8
:102E2200132F142F74140130A735A80DA90DAA0D64
:102E3200890B152F73082302031D292F7208220202
:102E4200031D292F71082102031D292F700820025A
:102E5200031C2C2F2D2F362F2A177008A002710861
:102E6200A13B7208A23B7308A33B0130F80078082B
:102E7200AC071A302C02031C3F2F402FFC2E2308D4
:102E82002204210420040319472F482F612F2714FD
:102E9200612F0130F435F50DF60DF70D890B4B2F2F
:102EA200AA1F542F552F562F74140130A735A80D81
:102EB200A90DAA0D890B572FFF30A507FF30A63D9C
:102EC200F61F642F652F4A2FAC01AA1F692F6A2FA4
:102ED200862FFF302705F800FF302805F900FF3064
:102EE2002905FA007F302A05FB007B087A04790461
:102EF200780403197D2F7E2F812FAC01AC0A862F17
:102F0200741C842F852F862F7E2F2C0803198A2F5D
:102F12008B2FB32F0130F4070030F53D0030F63D22
:102F22000030F73D771C962F972FB32F7408F800C7
:102F32007508F9007608FA007708FB000130FC00FA
:102F4200FB37FA0CF90CF80CFC0BA12F7B08F700ED
:102F52007A08F6007908F5007808F4000130A50730
:102F62000030A63D2608803AF80080307802031D22
:102F7200BC2FFF302502031CBF2FC02FCD2FFF30E7
:102F82002000A5000030A6000030F7000030F60057
:102F92000030F5000030F40020002608803AF800E6
:102FA20080307802031DD72F013025020318DA2F53
:102FB200DB2FE72F2000A501A6010030F70000302B
:102FC200F6000030F5000030F400A40120002508CE
:102FD200F8007808AB002B1CEF2FF02FF22FF6171A
:102FE200F62F7F30F8007808F6052B36F8007808BF
:0E2FF200F7002408F8007808F704BB2E08004A
:1039FE00013021009D00D0309E000800640080013F
:103A0E000131890B062D003400309D311F259D316B
:103A1E0001309D311F259D31080073087204710419
:103A2E00700403191B2D1C2D1E2D8030F30608006B
:103A3E00F20020000F1172089D317F259D3120006C
:103A4E008F150B30F1006230890B2B2DF10B2B2DC6
:103A5E00003220008F1108007008BF3EF200FF30C8
:103A6E00713DF300003073021A3003197202031C09
:103A7E00412D432D0130442D0030F400F501740822
:103A8E00F0007508F10008007408803AF5008030E7
:103A9E007502031D542D013073020318572D582D36
:103AAE00642D7309F5007409F600F50A0319F60A78
:103ABE007508F3007608F400642D0800F40074080D
:103ACE00F2007208F3006F2D0130F2007208F40755
:103ADE0074088600013087000108031D772D782DAC
:103AEE006B2D73087402F000F101F01BF103080056
:103AFE00F000701C832D842D872D20000F16892D2C
:103B0E0020000F12F01C8C2D8D2D8F2D8F16902DC9
:103B1E008F12701D932D942D962D0F17972D0F1319
:103B2E00F01D9A2D9B2D9D2D8F179E2D8F13080006
:103B3E00F800F601F701B22D76087807F500750842
:103B4E0086000130870001089E314A269D310130E2
:103B5E00F6070030F73D76087807F5007508860001
:103B6E00013087000108031DBD2DBE2DA32D0800B9
:103B7E0080302000B8063C08F3003B08F2003A08FB
:103B8E00F1003908F0003808F7003708F60036085B
:103B9E00F5003508F4008B316A239D31730820003F
:103BAE00B8007208B7007108B6007008B5000800BA
:103BBE008330F200720821009D057008F20001307A
:103BCE00F235FF3E031DE72D7235F30073089D0499
:103BDE000630F2003030890BF22DF20BF22D00324E
:103BEE0021009D149D18FC2DFD2DF92D1C08F100B2
:103BFE001B08F0000800F800F401F5017008F2004F
:103C0E00F3017208F6007308F700781C0F2E102EC1
:103C1E00142E7608F4077708F53D0130F635F70DCA
:103C2E00890B152E0310F80C7808031D1F2E202E5D
:103C3E000C2E7508F1007408F00008007608BF3EDF
:103C4E00F800FF30773DF900003079021A30031981
:103C5E007802031C332E352E0130362E0030FA003A
:103C6E00FB017A08FC007B08FD007C087D0403192B
:103C7E00412E422E492E20307604F6000030770475
:103C8E00F700492E0800F40074080F39F10071088E
:103C9E00F2007408F039F1007108F30020000F15DE
:103CAE007308F1000430F136890B5A2E71089D31DC
:103CBE007F259E3120008F151A30890B642E00321D
:103CCE0020008F1172089D317F259E3120008F15A7
:103CDE001A30890B702E003220008F11080021003F
:103CEE00E400DE302000EE006E082100E5006408DE
:103CFE002000EE006E082100E600E701E801E90170
:103D0E00EA015D082000EA0021005C082000E900BD
:103D1E00E530EE006E08EB00E6309E31A2269E31B5
:103D2E002100670864072000EE006E08860001304F
:103D3E008700810108002100D90020006A082100B7
:103D4E00DB00200069082100DA002200CE01CF013D
:103D5E00C62EDA302000EC006C08CE006B08ED00A9
:103D6E006D08CF002100590889315F219E31200056
:103D7E004E082200CE0720004F082200CF3D210022
:103D8E005A0884005B0885001200031DCF2ED02E2A
:103D9E00B02E22004F082000EA0022004E0820001C
:103DAE00E900080000309D317F259E313430F3004C
:103DBE00F230890BE02EF30BE02E03309D311F25E0
:103DCE009E310D30F300FC30890BEB2EF30BEB2EF6
:103DDE0003309D311F259E311D30F3009130890B2C
:103DEE00F62EF30BF62E000003309D311F259E316B
:103DFE0002309D311F259E3102309D311F259E318F
:103E0E0008309D311F259E3100309D311F259E317A
:103E1E000C309D311F259E3100309D311F259E3166
:103E2E0006309D311F259E310800F6007603031DD6
:103E3E00212F222F3F2F73087F3EF4007408F900C4
:103E4E007908F4000430F436890B2A2F7408F50033
:103E5E007508F70079080F39F4007408F800770830
:103E6E009D311F259F3178089D311F259F31612F70
:103E7E0002307606031D442F452F612F7308BF3E77
:103E8E00F4007408F9007908F4000430F436890B54
:103E9E004D2F7408F5007508F70079080F39F400F6
:103EAE007408F80077089D311F259F3178089D31E1
:103EBE001F259F31080000307005F8000030710595
:103ECE00F90080307205FA007F307305FB007B0825
:103EDE007A0479047804031D752F762F7E2F003017
:103EEE00F3000030F2000030F1000030F00000303E
:103EFE007405F80000307505F90080307605FA007B
:103F0E007F307705FB007B087A0479047804031D63
:103F1E00912F922F9A2F0030F7000030F6000030CC
:103F2E00F5000030F40077087306031DA82F7608FD
:103F3E007206031DA82F75087106031DA82F74089D
:103F4E0070060319AB2FAC2FAE2F0310AF2F031437
:103F5E00080072080319B42FB52FBA2F7208031D6B
:103F6E00B92FBA2FBF2F7008903101209F31FF2F2C
:103F7E007208033E86008701160001040319C82F3C
:103F8E00C92FE62F7208033E86008701403FF300DB
:103F9E00413FF400720A86008701403FF500413F21
:103FAE00F6007608803AF7007408803A7702031D0F
:103FBE00E22F730875020318E52FE62FFF2F700806
:103FCE00F300720886008701720A840085010008DA
:103FDE000107F40074088600013087007308810021
:103FEE00720A860087010130810741310318810A68
:103FFE00080044342034693473343A342034253480
:10400E00663400345234653473343A3420342534F3
:10401E006434003449344E34463400344E34413422
:10402E004E34003469346E34663400346E34613488
:0A403E006E3400346C346634003434
:020000040001F9
:04000E00FA3FFF1F97
:00000001FF
