:020000040000FA
:08000000803102288731FD2F39
:100CF000003086318A268631013086318A26863157
:100D00000800013086318A268631083086318A26ED
:100D100086310800F20020000F1172088631BB26D0
:100D2000863120008F150630F1003030890B962E69
:100D3000F10B962E003220008F110800F801F90106
:100D4000AF2E7508780784007608793D8500000885
:100D50008631DB2686310130F8070030F93D750811
:100D6000780784007608793D85001200031DB92EAE
:100D7000BA2EA12E0800F000701CBF2EC02EC32E6C
:100D800020000F16C52E20000F12F01CC82EC92EF1
:100D9000CB2E8F16CC2E8F12701DCF2ED02ED22E92
:100DA0000F17D32E0F13F01DD62ED72ED92E8F1737
:100DB000DA2E8F130800F40074080F39F10071085F
:100DC000F2007408F039F1007108F30020000F15EB
:100DD0007308F1000430F136890BEB2E710886316F
:100DE000BB26863120008F150D30890BF52E0000B3
:100DF00020008F1172088631BB26863120008F15A6
:100E00000D30890B012F000020008F110800F60023
:100E10007603031D0C2F0D2F2A2F73087F3EF4003D
:100E20007408F9007908F4000430F436890B152FA2
:100E30007408F5007508F70079080F39F400740894
:100E4000F800770886318A268731780886318A2625
:100E500087314C2F02307606031D2F2F302F4C2F59
:100E60007308BF3EF4007408F9007908F4000430F8
:100E7000F436890B382F7408F5007508F7007908E7
:100E80000F39F4007408F800770886318A26873114
:100E9000780886318A268731080021000D108F01DD
:100EA00020000D148F140630FB001330FA00AE3012
:100EB000890B582FFA0B582FFB0B582F20000D10C1
:100EC0008F100630FB001330FA00AE30890B662F0E
:100ED000FA0B662FFB0B662F863178268731F301DC
:100EE000F30A01308731072787313930F500883020
:100EF000F60086319E268731F301F30A02308731EE
:100F0000072787310030F5008830F60086319E26AD
:100F100087310B30FB002630FA005E30890B8E2FB4
:100F2000FA0B8E2FFB0B8E2F863178268731F3013B
:100F3000F30A01308731072787311030F5008830F8
:100F4000F60086319E268731F301F30A023087319D
:100F5000072787311F30F5008830F60086319E263E
:100F600087310B30FB002630FA005E30890BB62F3C
:100F7000FA0BB62FFB0BB62F863178268731F3019B
:100F8000F30A01308731072787312C30F50088308C
:100F9000F60086319E268731F301F30A023087314D
:100FA000072787314330F5008830F60086319E26CA
:100FB0008731FC01FD010230FB008630FA009930D8
:100FC000890BE02FFA0BE02FFB0BE02F000086319E
:100FD000812687310130FC070030FD3D00307D0265
:100FE0000F3003197C02031CF62FF72FDB2F8631FD
:100FF00078268731502F80310228200087314D2FED
:101000004734613462347234693465346C34613429
:1010100020344734723461346E34643461340034C3
:101020004A34753461346E346334693474346F34E3
:1010300020344F34543441344B3455340034563416
:10104000653420345634653467346534743461341F
:1010500037343734373400344D34613472346334C8
:101060006F34203444346134763469346C34613400
:101070000034543465342034713475346934653443
:1010800072346F34003445344C3420344334523499
:08109000413443344B340034B9
:020000040001F9
:04000E00E23FFF1FAF
:00000001FF
