:020000040000FA
:08000000803102288731FD2F39
:100CE600003086317C268631013086317C2686317D
:100CF6000800F20020000F110330890B802E00003F
:100D060072088631E126863120008F151030F100F9
:100D16009430890B8C2EF10B8C2E003220008F1113
:100D26000330890B942E00000800F801F901A92E62
:100D36007508780784007608793D850000088631B5
:100D4600B52686310130F8070030F93D7508780779
:100D560084007608793D85001200031DB32EB42E5B
:100D66009B2E0800F40074080F39F1007108F20098
:100D76007408F039F1007108F30020000F157308AC
:100D8600F1000430F136890BC52E71088631E12653
:100D9600863120008F151A30890BCF2E00322000A5
:100DA6008F1172088631E126863120008F151A30A0
:100DB600890BDB2E003220008F110800F000701C1A
:100DC600E52EE62EED2E20000F160330890BE92EB8
:100DD6000000F02E20000F12E82EF01CF32EF42E49
:100DE600FB2E20008F160330890BF72E0000FE2EF7
:100DF60020008F12F62E701D012F022F092F2000C2
:100E06000F170330890B052F00000C2F20000F133E
:100E1600042FF01D0F2F102F172F20008F170330D0
:100E2600890B132F00001A2F20008F13122F080092
:100E360000308631E12687313430F300F230890BF9
:100E4600222FF30B222F033086317C2687310D307B
:100E5600F300FC30890B2D2FF30B2D2F0330863139
:100E66007C2687311D30F3009130890B382FF30B28
:100E7600382F0000033086317C26873102308631D8
:100E86007C268731023086317C26873108308631D0
:100E96007C268731003086317C2687310C308631BE
:100EA6007C268731003086317C26873106308631B4
:100EB6007C2687310800F6007603031D632F642F16
:100EC600812F73087F3EF4007408F9007908F40056
:100ED6000430F436890B6C2F7408F5007508F7009A
:100EE60079080F39F4007408F800770886317C26F3
:100EF6008731780886317C268731A32F0230760623
:100F0600031D862F872FA32F7308BF3EF400740896
:100F1600F9007908F4000430F436890B8F2F740831
:100F2600F5007508F70079080F39F4007408F80021
:100F3600770886317C268731780886317C2687318A
:100F460008007030210099000D108D108F01873137
:100F56001B2787310D30FA00FC30890BB02FFA0BB6
:100F6600B02F20008D1420000D108F100B30FB00C9
:100F76002630FA005E30890BBE2FFA0BBE2FFB0B14
:100F8600BE2F20000D148F140B30FB002630FA0004
:100F96005E30890BCC2FFA0BCC2FFB0BCC2F863176
:100FA60073268731F301F30A013087315E278731D3
:100FB6001030F5008830F600863198268731F30127
:100FC600F30A023087315E2787310030F50088301A
:100FD600F6008631982687310B30FB002630FA0062
:100FE6005E30890BF42FFA0BF42FFB0BF42FB62F80
:100FF6008031022820008731A42F473461346234BF
:101006007234693465346C34613420344734723454
:1010160061346E34643461340034543465342034BD
:0E102600713475346934653472346F340034BB
:020000040001F9
:04000E00FA3FFF1F97
:00000001FF
