:020000040000FA
:08000000803102288731FD2F39
:100CEE00003086318926863101308631892686315B
:100CFE0008000130863189268631083086318926F2
:100D0E0086310800F20020000F1172088631BA26D3
:100D1E00863120008F150B30F1006230890B952E35
:100D2E00F10B952E003220008F110800F801F90109
:100D3E00AE2E7508780784007608793D8500000888
:100D4E008631DA2686310130F8070030F93D750814
:100D5E00780784007608793D85001200031DB82EB1
:100D6E00B92EA02E0800F000701CBE2EBF2EC22E73
:100D7E0020000F16C42E20000F12F01CC72EC82EF6
:100D8E00CA2E8F16CB2E8F12701DCE2ECF2ED12E99
:100D9E000F17D22E0F13F01DD52ED62ED82E8F173D
:100DAE00D92E8F130800F40074080F39F100710862
:100DBE00F2007408F039F1007108F30020000F15ED
:100DCE007308F1000430F136890BEA2E7108863172
:100DDE00BA26863120008F151A30890BF42E003278
:100DEE0020008F1172088631BA26863120008F15A9
:100DFE001A30890B002F003220008F110800F600E8
:100E0E007603031D0B2F0C2F292F73087F3EF40042
:100E1E007408F9007908F4000430F436890B142FA5
:100E2E007408F5007508F70079080F39F400740896
:100E3E00F800770886318926873178088631892629
:100E4E0087314B2F02307606031D2E2F2F2F4B2F5F
:100E5E007308BF3EF4007408F9007908F4000430FA
:100E6E00F436890B372F7408F5007508F7007908EA
:100E7E000F39F4007408F800770886318926873117
:100E8E007808863189268731080021000D108F01E0
:100E9E0020000D148F140B30FB002630FA005E304C
:100EAE00890B572FFA0B572FFB0B572F20000D10C6
:100EBE008F100B30FB002630FA005E30890B652F49
:100ECE00FA0B652FFB0B652F863177268731F301E1
:100EDE00F30A01308731062787313930F500883023
:100EEE00F60086319D268731F301F30A02308731F1
:100EFE00062787310030F5008830F60086319D26B2
:100F0E0087311530FB004B30FA00BE30890B8D2F28
:100F1E00FA0B8D2FFB0B8D2F003286317726873102
:100F2E00F301F30A01308731062787311030F500BF
:100F3E008830F60086319D268731F301F30A0230A0
:100F4E008731062787311F30F5008830F60086314D
:100F5E009D2687311530FB004B30FA00BE30890BD1
:100F6E00B62FFA0BB62FFB0BB62F00328631772633
:100F7E008731F301F30A01308731062787312C3090
:100F8E00F5008830F60086319D268731F301F30A8D
:100F9E0002308731062787314330F5008830F6005E
:100FAE0086319D268731FC01FD010430FB000C309B
:100FBE00FA003430890BE12FFA0BE12FFB0BE12FF6
:100FCE008631802687310130FC070030FD3D003030
:100FDE007D020F3003197C02031CF62FF72FDC2F36
:100FEE008631772687314F2F8031022820008731B6
:100FFE004C2F4734613462347234693465346C3446
:10100E00613420344734723461346E346434613464
:10101E0000344A34753461346E3463346934743454
:10102E006F3420344F34543441344B3455340034FF
:10103E00563465342034563465346734653474342C
:10104E00613437343734373400344D3461347234CC
:10105E0063346F34203444346134763469346C3400
:10106E006134003454346534203471347534693449
:10107E00653472346F34003445344C342034433488
:0A108E005234413443344B34003433
:020000040001F9
:04000E00E23FFF1FAF
:00000001FF
