:020000040000FA
:08000000803102288731FD2F39
:100D2C00003086319F268631013086319F268631F0
:100D3C000800F20020000F1172088631D02686318F
:100D4C0020008F150B30F1006230890BAB2EF10BAC
:100D5C00AB2E003220008F110800F801F901C42ECF
:100D6C007508780784007608793D8500000886317F
:100D7C00F02686310130F8070030F93D7508780708
:100D8C0084007608793D85001200031DCE2ECF2EEF
:100D9C00B62E0800F000701CD42ED52ED82E2000B4
:100DAC000F16DA2E20000F12F01CDD2EDE2EE02E98
:100DBC008F16E12E8F12701DE42EE52EE72E0F17E5
:100DCC00E82E0F13F01DEB2EEC2EEE2E8F17EF2EC0
:100DDC008F130800F40074080F39F1007108F20049
:100DEC007408F039F1007108F30020000F15730836
:100DFC00F1000430F136890B002F71088631D026B2
:100E0C00863120008F151A30890B0A2F00322000F2
:100E1C008F1172088631D026863120008F151A303A
:100E2C00890B162F003220008F11080000308631FC
:100E3C00D02687313430F300F230890B232FF30B9B
:100E4C00232F033086319F2687310D30F300FC3081
:100E5C00890B2E2FF30B2E2F033086319F268731D3
:100E6C001D30F3009130890B392FF30B392F000013
:100E7C00033086319F268731023086319F26873199
:100E8C00023086319F268731083086319F26873184
:100E9C00003086319F2687310C3086319F26873172
:100EAC00003086319F268731063086319F26873168
:100EBC000800F6007603031D642F652F822F73083C
:100ECC007F3EF4007408F9007908F4000430F4361D
:100EDC00890B6D2F7408F5007508F70079080F3928
:100EEC00F4007408F800770886319F26873178085B
:100EFC0086319F268731A42F02307606031D872F5B
:100F0C00882FA42F7308BF3EF4007408F9007908E9
:100F1C00F4000430F436890B902F7408F500750832
:100F2C00F70079080F39F4007408F8007708863157
:100F3C009F268731780886319F26873108007030CC
:100F4C00210099000D108D1023008D018F012100BF
:100F5C008F0120008D148D148D1487311C2787313F
:100F6C0020000D108F100B30FB002630FA005E3085
:100F7C00890BBE2FFA0BBE2FFB0BBE2F20000D14BE
:100F8C008F140B30FB002630FA005E30890BCC2F0F
:100F9C00FA0BCC2FFB0BCC2F863196268731F30125
:100FAC00F30A013087315F2787311030F500883024
:100FBC00F6008631B3268731F301F30A023087310C
:100FCC005F2787310030F5008830F6008631B32674
:100FDC0087310B30FB002630FA005E30890BF42F82
:100FEC00FA0BF42FFB0BF42FB62F803102282000C4
:100FFC008731A52F473461346234723469346534D7
:10100C006C34613420344734723461346E3464345B
:10101C00613400345434653420347134753469349B
:08102C00653472346F340034A6
:020000040001F9
:04000E00FA3FFF1F97
:00000001FF
