:020000040000FA
:08000000803102288731FD2F39
:100D18000030863195268631013086319526863118
:100D28000800F20020000F1172088631C6268631AD
:100D380020008F151530F100C630890BA12EF10B5C
:100D4800A12E003220008F110800F801F901BA2EF7
:100D58007508780784007608793D85000008863193
:100D6800F02686310130F8070030F93D750878071C
:100D780084007608793D85001200031DC42EC52E17
:100D8800AC2E0800F000701CCA2ECB2ECE2E2000F0
:100D98000F16D42E20000F120330890BD12E00001D
:100DA800F01CD72ED82EDB2E20008F16DD2E20002B
:100DB8008F12701DE02EE12EE32E0F17E42E0F1375
:100DC800F01DE72EE82EEE2E8F170330890BEA2E42
:100DD8000000EF2E8F130800F40074080F39F1009B
:100DE8007108F2007408F039F1007108F30020006E
:100DF8000F157308F1000430F136890B002F7108C4
:100E08008631C626863120008F151A30890B0A2FA5
:100E1800003220008F1172088631C62686312000E4
:100E28008F151A30890B162F003220008F110800F9
:100E380000308631C62687313430F300F230890B12
:100E4800232FF30B232F03308631952687310D305E
:100E5800F300FC30890B2E2FF30B2E2F0330863135
:100E6800952687311D30F3009130890B392FF30B0C
:100E7800392F0000033086319526873102308631BC
:100E8800952687310230863195268731083086319C
:100E98009526873100308631952687310C3086318A
:100EA8009526873100308631952687310630863180
:100EB800952687310800F6007603031D642F652FF9
:100EC800822F73087F3EF4007408F9007908F40053
:100ED8000430F436890B6D2F7408F5007508F70097
:100EE80079080F39F4007408F800770886319526D8
:100EF80087317808863195268731A42F0230760607
:100F0800031D872F882FA42F7308BF3EF400740891
:100F1800F9007908F4000430F436890B902F74082E
:100F2800F5007508F70079080F39F4007408F8001F
:100F38007708863195268731780886319526873156
:100F480008007030210099000D108D108F01873135
:100F58001C27873187311C27873187311C27873128
:100F680020008D1420000D108F100B30FB00263050
:100F7800FA005E30890BBE2FFA0BBE2FFB0BBE2F7B
:100F880020000D148F140B30FB002630FA005E3061
:100F9800890BCC2FFA0BCC2FFB0BCC2F86318C2650
:100FA8008731F301F30A013087315F278731103029
:100FB800F5008830F6008631A9268731F301F30A57
:100FC800023087315F2787310030F5008830F6001E
:100FD8008631A92687310B30FB002630FA005E30B7
:100FE800890BF42FFA0BF42FFB0BF42FB62F80315B
:100FF800022820008731A52F4734613462347234C7
:10100800693465346C346134203447347234613463
:101018006E346434613400345434653420347134AB
:0C10280075346934653472346F34003460
:020000040001F9
:04000E00FA3FFF1F97
:00000001FF
