:020000040000FA
:08000000803102288731DC2F5A
:10000A000800640080010131890B0728003403309D
:10001A0020006002FF3003195F0203181528162812
:10002A00AB285F08F0006008F100F201F30100302C
:10003A009431E124803173082000A7007208A600D9
:10004A007108A5007008A4004430A3007F30A20004
:10005A00C030A1000030A00096314C26803120002B
:10006A002308C1002208C0002108BF002008BE00E2
:10007A004030BD008030BC000030BB000030BA0008
:10008A008D31A925803120003D08E6003C08E500B5
:10009A003B08E4003A08E3006608C1006508C000AE
:1000AA006408BF006308BE001B08013EF000003070
:1000BA0003180130F100F201F11BF2037208F30098
:1000CA0001309431E124803173082000BD007208A8
:1000DA00BC007108BB007008BA008D31A9258031B7
:1000EA0020003D08D7003C08D6003B08D5003A0856
:1000FA00D4009331ED23803120005508E0005408E4
:10010A00DF006008E2005F08E100E236E10CE23657
:10011A00E10C61082500910020006008E2005F08F8
:10012A00E100E236E10C61189B289E28250093160F
:10013A00A0282500931220005F18A428A7282500CC
:10014A001316A9282500131221000E1108002100F8
:10015A00BC00BA01BB01200063082100D0002000C6
:10016A0062082100CF00200061082100CE00200093
:10017A0060082100CD0050082000D70021004F0858
:10018A002000D60021004E082000D50021004D088D
:10019A002000D4000030DB000030DA000030D90043
:1001AA000030D8008831122080310318DD28DE287B
:1001BA00F72801302100BA000030BB005008F300D4
:1001CA004F08F2004E08F1004D08F0009F316727F2
:1001DA00803173082100D0007208CF007108CE0068
:1001EA007008CD002100D301D40122005408210057
:1001FA00C100220053082100C0003A083B04031D35
:10020A00072908290D292200571D0C290D292C29F7
:10021A0021003A083B04031D1329142919292B30FC
:10022A00A4000030A5001D292D30A4000030A5002F
:10023A0024082000E50065082300A0000130210001
:10024A00D3070030D43DFF30C007FF30C13D210045
:10025A005008F3004F08F2004E08F1004D08F00074
:10026A0094316224803170037104031D3D293E29B3
:10027A00902920006408BF3EE500FF3003180030D3
:10028A00E600003066021A3003196502031C4E2983
:10029A005029013051290030E700E80167082100A0
:1002AA00A600200068082100A700260827040319D1
:1002BA005F2960296A290930F000A030F10053084B
:1002CA00A03E90311820803173291130F000A030FF
:1002DA00F1005308A03E903118208031FD302100F2
:1002EA00C007FF30C13DA0302000E5006508A4002A
:1002FA00210041082000A600210040082000A50096
:10030A0021003C0893313523803120002508E10083
:10031A002408E000DB2F21005008F3004F08F20008
:10032A004E08F1004D08F0009431622480317008C3
:10033A007104031DA129A229F42920006408BF3EE3
:10034A00E500FF3003180030E600003066021A307C
:10035A0003196502031CB229B4290130B5290030FA
:10036A00E700E80167082100A800200068082100CA
:10037A00A900280829040319C329C429CE290D3044
:10038A00F000A030F1005308A03E903118208031CF
:10039A00D7291530F000A030F1005308A03E903163
:1003AA0018208031FD302100C007FF30C13DA03048
:1003BA002000E5006508A400210041082000A600ED
:1003CA00210040082000A50021003C089331352374
:1003DA00803120002508E1002408E000DB2F3F30AF
:1003EA002100D8008030D7000030D6000030D50078
:1003FA00D101D2015008F3004F08F2004E08F10073
:10040A004D08F0000030F7000030F6000030F5002B
:10041A000030F4009131E62180310318152A162A9A
:10042A00DA2A472A41302000BD002030BC000030C3
:10043A00BB000030BA00210058082000C10021008A
:10044A0057082000C000210056082000BF002100E4
:10045A0055082000BE008D31A925803120003D08B5
:10046A002100D80020003C082100D70020003B08CA
:10047A002100D60020003A082100D5000130D1071A
:10048A000030D23D210050082000D70021004F083B
:10049A002000D60021004E082000D50021004D087A
:1004AA002000D4004130BD002030BC000030BB0029
:1004BA000030BA00210058082000C1002100570866
:1004CA002000C000210056082000BF002100550866
:1004DA002000BE008D31A925803120003D08DB00B7
:1004EA003C08DA003B08D9003A08D80088311220C3
:1004FA0080310318812A822A172AB32A4130200020
:10050A00A3002030A2000030A1000030A00021008A
:10051A0058082000A700210057082000A600210043
:10052A0056082000A500210055082000A400963195
:10053A004C268031200023082100D8002000220800
:10054A002100D700200021082100D6002000200821
:10055A002100D500FF30D107FF30D23D21005008DD
:10056A002000D70021004F082000D60021004E08A5
:10057A002000D50021004D082000D4002100580891
:10058A002000DB00210057082000DA00210056086D
:10059A002000D900210055082000D80088311220F7
:1005AA008031031CD92ADA2A832A20006408E5004C
:1005BA00E6016508F6006608F70090317E20803172
:1005CA0076082000E70067082100C20042082000E0
:1005DA00E50065082100BF0067304206031DF62AC0
:1005EA00F72A202B220055085604031DFD2AFE2A4D
:1005FA00022B0130D5000030D6005608803A200080
:10060A00E50080306502031D0D2B013022005502E2
:10061A000318102B112B172B06302100BD000030B8
:10062A00BE00262B220056082100BE0022005508D3
:10063A002100BD00262B2200D61B242B252B112B93
:10064A00172B67304206031D2B2B2C2B642B5208C9
:10065A00803A2000E5007F306502031D372BFC300D
:10066A0021005102031C3A2B3B2B5E2B21003D0833
:10067A00FF3E2000E500FF3021003E3D2000E6005D
:10068A006608803AE70021005208803A2000670293
:10069A00031D532B2100510820006502031C562B11
:1006AA00572B5E2B66302000E50065082100BF004D
:1006BA00642B65302000E50065082100BF003E0874
:1006CA00B5003D08B40067304206031D6D2B6E2B42
:1006DA00782B66303F06031D732B742B7C2BD21F9D
:1006EA00772B782B7C2B0130B4070030B53D663070
:1006FA003F06031D812B822B9A2BD21F852B862B1B
:10070A00902B3F30D8008030D7000030D600003020
:10071A00D500D101D201673042060319952B962BD9
:10072A009A2B5108B4075208B53DCB01CC015008A9
:10073A00C6004F08C5004E08C4004D08C30058083B
:10074A00A3005708A2005608A1005508A000842C4F
:10075A00210058082000A300210057082000A20009
:10076A00210056082000A100210055082000A00001
:10077A00210046082000A700210045082000A60005
:10078A00210044082000A500210043082000A400FD
:10079A0096314C26803120002308BD002208BC0077
:1007AA002108BB002008BA0088319D208031200032
:1007BA003D082100CA0020003C082100C900200091
:1007CA003B082100C80020003A082100C7004A0857
:1007DA002000D700210049082000D600210048083F
:1007EA002000D500210047082000D4009331ED23D2
:1007FA008031200055082100B9002000540821004A
:10080A00B8004A082000C100210049082000C000A1
:10081A00210048082000BF00210047082000BE0030
:10082A00210058082000BD00210057082000BC0004
:10083A00210056082000BB00210055082000BA00FC
:10084A008D31A925803120003D08D7003C08D6000B
:10085A003B08D5003A08D400210046082000DB00F6
:10086A00210045082000DA00210044082000D900B0
:10087A00210043082000D8009F31E0278031200062
:10088A0057082100C600200056082100C500200094
:10089A0055082100C400200054082100C30041303B
:1008AA002000A3002030A2000030A1000030A000E8
:1008BA00210058082000A700210057082000A600A0
:1008CA00210056082000A500210055082000A40098
:1008DA0096314C268031200023082100D8002000C0
:1008EA0022082100D700200021082100D60020007C
:1008FA0020082100D5000130CB070030CC3D4C0840
:10090A00803A2000E50021003508803A200065027F
:10091A00031D922C210034084B02031C952C962CA3
:10092A00AD2B40302000BD00A030BC000030BB0021
:10093A000030BA00210058082000C10021005708E1
:10094A002000C000210056082000BF0021005508E1
:10095A002000BE008D31A925803120003D082100EC
:10096A00CA0020003C082100C90020003B082100E1
:10097A00C80020003A082100C70046082000D70016
:10098A00210045082000D600210044082000D50097
:10099A00210043082000D40021004A082000DB007F
:1009AA00210049082000DA00210048082000D90067
:1009BA00210047082000D80088311220803103180E
:1009CA00E72CE82CF22C00302100CA000030C900C4
:1009DA000030C8000030C700172D21004608F30078
:1009EA004508F2004408F1004308F0004A08F700FD
:1009FA004908F6004808F5004708F4009131E62155
:100A0A008031031C092D0A2D172D210038180E2DAF
:100A1A000F2D172D0030CA000030C9000030C80061
:100A2A000030C70021004A08F3004908F2004808CC
:100A3A00F1004708F0005008F7004F08F6004E088A
:100A4A00F5004D08F4008B316A23803173082100C8
:100A5A00C6007208C5007108C4007008C3002308E4
:100A6A00D8002208D7002108D6002008D500653012
:100A7A003F060319412D422D472D5208B700510850
:100A8A00B600492DB601B701B201B301B001B101F7
:100A9A00CB01CC01A02E210058082000A300210080
:100AAA0057082000A200210056082000A1002100BA
:100ABA0055082000A000210046082000A7002100B8
:100ACA0045082000A600210044082000A5002100B6
:100ADA0043082000A40096314C26803120002308C8
:100AEA00BD002208BC002108BB002008BA008831DA
:100AFA009D20803120003D082100CA0020003C08CA
:100B0A002100C90020003B082100C80020003A0843
:100B1A002100C7004A082000D70021004908200008
:100B2A00D600210048082000D500210047082000EF
:100B3A00D4009331ED238031200055082100B900FB
:100B4A00200054082100B8002200571AAD2DAE2DFE
:100B5A00C42D210038083904031DB42DB52DC42D28
:100B6A0067304206031DBA2DBB2DC42DB71FBE2DFB
:100B7A00BF2DC42D0130B0070030B13D1E2E21001B
:100B8A0032083304031DCA2DCB2D022EB71FCE2DDA
:100B9A00CF2D022E2E302000E50021005308A03E62
:100BAA00860001308700200065088100013021009D
:100BBA00D3070030D43DFF30C007FF30C13D0130BC
:100BCA00B2000030B300022E30302000E5002100D0
:100BDA005308A03E86000130870020006508810086
:100BEA0001302100D3070030D43DFF30C007FF3069
:100BFA00C13DFF30B007FF30B13D30083104031D5D
:100C0A00072E082EE92D3808303E2000E500210085
:100C1A005308A03E86000130870020006508810045
:100C2A0001302100D3070030D43DFF30C007FF3028
:100C3A00C13D4A082000C100210049082000C00027
:100C4A00210048082000BF00210047082000BE00FC
:100C5A00210058082000BD00210057082000BC00D0
:100C6A00210056082000BB00210055082000BA00C8
:100C7A008D31A925803120003D08D7003C08D600D7
:100C8A003B08D5003A08D400210046082000DB00C2
:100C9A00210045082000DA00210044082000D9007C
:100CAA00210043082000D8009F31E027803120002E
:100CBA0057082100C600200056082100C500200060
:100CCA0055082100C400200054082100C300413007
:100CDA002000A3002030A2000030A1000030A000B4
:100CEA00210058082000A700210057082000A6006C
:100CFA00210056082000A500210055082000A40064
:100D0A0096314C268031200023082100D80020008B
:100D1A0022082100D700200021082100D600200047
:100D2A0020082100D500FF30B607FF30B73D01305B
:100D3A00CB070030CC3D4C08803A2000E50021006A
:100D4A003508803A20006502031DAE2E21003408C2
:100D5A004B020318B12EB22EC22E21005408803A3B
:100D6A002000E50080306502031DBE2E4B302100B5
:100D7A005302031CC12EC22E502D21003208330407
:100D8A00031DC82EC92EDF2E2200571ECD2ECE2EB1
:100D9A00DF2E2E302000E50021005308A03E8600F9
:100DAA000130870020006508810001302100D30747
:100DBA000030D43D21005308A03E86000130870050
:100DCA00810165303F06031DEB2EEC2EC42F4F30F8
:100DDA00CB000030CC004B08A03E860001308700D3
:100DEA008101BA01BB01D21FFB2EFC2E052F013057
:100DFA00BA000030BB00D109D209D10A0319D20ABC
:100E0A000230BD000030BE00402FFF302100CB076A
:100E1A00FF30CC3D0A30F0000030F1005208F300F8
:100E2A005108F2009231342280317008303E20009D
:100E3A00E50021004B08A03E860001308700200013
:100E4A00650881000A30F0000030F10021005208E4
:100E5A00F3005108F20093318E238031710821008A
:100E6A00D2007008D100FF30BD07FF30BE3DFF3011
:100E7A00C007FF30C13D51085204031D452F462FBC
:100E8A000A2F3E08803A2000E50080306502031DE3
:100E9A00512F013021003D020318542F552F0A2FDC
:100EAA00FF302100CB07FF30CC3D3A083B04031D3D
:100EBA005F2F602F652F2B30AA000030AB00692FFF
:100ECA002D30AA000030AB002A082000E5002100DE
:100EDA004B08A03E8600013087002000650881008B
:100EEA00FF302100C007FF30C13DFF30CB07FF3084
:100EFA00CC3D20006408BF3EE500FF3003180030F7
:100F0A00E600003066021A3003196502031C8E2FB0
:100F1A00902F0130912F0030E700E8016708210087
:100F2A00AE00200068082100AF002E082F04031D20
:100F3A009F2FA02FA52F6530AC000030AD00A92F40
:100F4A004530AC000030AD002C082000E50021003F
:100F5A004B08A03E8600013087002000650881000A
:100F6A00FF302100C007FF30C13D4B08A03EF00012
:100F7A000130F1005308A03E903118208031A03092
:100F8A002000E5006508A400210041082000A60011
:100F9A00210040082000A50021003C089331352398
:100FAA00803120002508E1002408E0000800220022
:100FBA009F315A278731D9009F315B278731DA0061
:100FCA009F315C278731DB009F315D278731DC0049
:100FDA004930840001308500103080310620873185
:100FEA00A0308400013085005030803106208731DE
:100FFA00200095318D2D013021009D00D0309E00BA
:10100A00080021000E11043020009C000C3025003D
:10101A009300403020009B00080000302000540557
:10102A00DC0000305505DD0080305605DE007F30DB
:10103A005705DF005F085E045D045C04031D262873
:10104A0027282F280030D7000030D6000030D500DE
:10105A000030D40000305805DC0000305905DD00AE
:10106A0080305A05DE007F305B05DF005F085E04D2
:10107A005D045C04031D422843284B280030DB0032
:10108A000030DA000030D9000030D800D71F4E28CF
:10109A004F2867280030DC000030DD000030DE0019
:1010AA008030DF005408DC025508DD3B5608DE3B81
:1010BA005708DF3B5F08D7005E08D6005D08D500F9
:1010CA005C08D400DB1F6A286B2883280030DC0008
:1010DA000030DD000030DE008030DF005808DC021E
:1010EA005908DD3B5A08DE3B5B08DF3B5F08DB0043
:1010FA005E08DA005D08D9005C08D8008030D7069F
:10110A008030DB065B085702031D95285A085602F1
:10111A00031D952859085502031D9528580854029D
:10112A000318982899289B2803109C280314080060
:10113A0022004C082000CD0022004B082000CC00E1
:10114A0022004A082000CB00220049082000CA00D9
:10115A003D08CD003C08CC003B08CB003A08CA0049
:10116A004A08BE004B08BF004C08C0004D08C10029
:10117A001730C136C00CBF0CBE0C890BBE28FF301D
:10118A003E05C20000303F05C3004208813EC80048
:10119A00FF30433DC9004908803ABE0080303E0214
:1011AA00031DD92817304802031CDC28DD28DE2855
:1011BA0087292000C91BE228E3284029FF30BE0006
:1011CA00FF30BF007F30C0000030C100480AF1285C
:1011DA00C137C00CBF0CBE0C890BED284108C700F3
:1011EA004008C6003F08C5003E08C4004A08440536
:1011FA00BE004B084505BF004C084605C0004D0817
:10120A004705C100410840043F043E04031D0E295E
:10121A000F291029DD284A08BE004B08BF004C08D8
:10122A00C0004D08C1001F30C136C00CBF0CBE0C37
:10123A00890B1929410840043F043E040319262951
:10124A0027292F294408CA074508CB3D4608CC3D23
:10125A004708CD3D4409BE004509BF004609C00004
:10126A004709C1003E08CA053F08CB054008CC051E
:10127A004108CD057F294A08BE004B08BF004C082B
:10128A00C0004D08C1001F30C136C00CBF0CBE0CD7
:10129A00890B4929410840043F043E04031D56298D
:1012AA00572960290030CD000030CC000030CB0037
:1012BA000030CA007F294A08BE004B08BF004C080C
:1012CA00C0004D08C1000130BE35BF0DC00DC10DB3
:1012DA00890B6929410840043F043E040319762911
:1012EA0077297F29BF30CD008030CC000030CB0079
:1012FA000030CA004D08BD004C08BC004B08BB00BA
:10130A004A08BA0008002100E9002000690886009E
:10131A008701403F2100D900413FDA005908840083
:10132A005A0885001200253A031D9C299D29442B41
:10133A0020006908860087010130810741310318BE
:10134A00810A2200D301D401D701D801FF30D50088
:10135A00FF30D6002000690886008701403F21003F
:10136A00D900413FDA00590884005A08850000086C
:10137A00DB00DC015B08F6005C08F70090317E2098
:10138A00893176082100DD005D08E500650803194A
:10139A00CF29D029132A2000690886008701403FF7
:1013AA002100D900413FDA000130590784005A0868
:1013BA0003185A0A85000008DB00DC015B08F60006
:1013CA005C08F70090317E20893176082100DD0023
:1013DA005D08E60066080319F329F429132A200098
:1013EA00690886008701403F2100D900413FDA00A1
:1013FA000230590784005A0803185A0A850000085F
:10140A00DB00DC015B08F6005C08F70090317E2007
:10141A00893176082100DD005D08E700663065063F
:10142A00031D182A192A662A2000690886008701DE
:10143A00403F2100D900413FDA00590884005A0888
:10144A0085000008DB005B08E800200069088600C8
:10145A0087010130810741310318810A6A08860031
:10146A0001308700010884000130850004308107BB
:10147A00003F2100E100013FE200023FE300033F99
:10148A00E40064082000E300210063082000E20071
:10149A00210062082000E100210061082000E0002C
:1014AA0021006808D90059082000E40021006908D1
:1014BA008031AC20893120006108EA006008E90027
:1014CA00692B1930F000A030F1000230F200003030
:1014DA00F300E5309231DD22893170087104031D71
:1014EA00772A782A0A2B2000690886008701403F5C
:1014FA002100D900413FDA000130590784005A0817
:10150A0003185A0A85000008DB005B08E80020007F
:10151A00690886008701403F2100D900413FDA006F
:10152A00590884005A0885000008BF3EDB00FF30D6
:10153A0003180030DC0000305C021A3003195B0229
:10154A00031CA82AAA2A0130AB2A0030DD00DE01DA
:10155A005D08DF005E08E0005F0860040319B62A30
:10156A00B72ACC2A20006A088600013087000108C1
:10157A0084000130850004308107003F2100E1002A
:10158A00013FE200023FE300033FE400E02A2000BB
:10159A006A0886000130870001088400013085004E
:1015AA0004308107003F2100E100013FE200023FD1
:1015BA00E300033FE4002000690886008701023047
:1015CA00810741310318810A210064082000E300E1
:1015DA00210063082000E200210062082000E100E7
:1015EA00210061082000E00021006808D90059089C
:1015FA002000E400210069088031AC2089312000F4
:10160A006108EA006008E900692B20006908860081
:10161A008701403F2100D900413FDA005908840080
:10162A005A0885001200253A031D1C2B1D2B382B46
:10163A0020006908860087010130810741310318BB
:10164A00810A2530F0000030F10021006908D90034
:10165A005908F20092318722893101302000E900CD
:10166A000030EA00692B20006908860087010130F2
:10167A00810741310318810AE901EA01692B200037
:10168A00690886008701403F2100D900413FDA00FE
:10169A00590884005A0885000008DB00DC015B0851
:1016AA00F0005C08F1006908DD005D08F200923183
:1016BA008722893120006908860087010130810765
:1016CA0041310318810A322B08007308803920003F
:1016DA00A0002008F8007335A0002008FA00F21FC5
:1016EA00772B782B792B7A147A0803197D2B7E2B8A
:1016FA008E2B7A0A031D822B832B8B2B0030F3004F
:10170A000030F2000030F1000030F000F217F3016F
:10171A00962B0030F3000030F2000030F100003068
:10172A00F00077088039A0002008F90079087806C7
:10173A000319A02BA12BA22B78177735A00020081C
:10174A00F900F61FA92BAA2BAB2B791479080319D8
:10175A00AF2BB02BC02B790A031DB42BB52BBD2B95
:10176A000030F7000030F6000030F5000030F400D9
:10177A00F617F701C82B0030F7000030F6000030EA
:10178A00F5000030F4007A0879020318CD2BCE2B2D
:10179A00122C781FD12BD22BD62B8030A0002008F8
:1017AA00F8067A08A0002008FB007908A0002008A3
:1017BA00FA007B08A0002008F9007008A0002008A1
:1017CA00FB007408A0002008F0007B08A000200895
:1017DA00F4007108A0002008FB007508A00020088A
:1017EA00F1007B08A0002008F5007208A00020087C
:1017FA00FB007608A0002008F2007B08A000200861
:10180A00F6007308A0002008FB007708A000200853
:10181A00F3007B08A0002008F700FB017908A0006C
:10182A00A1012108A3007A082002A200031CA30335
:10183A002308803AA40080302402031D262C1A3083
:10184A002202031C292C2A2C642C730872047104AA
:10185A007004031D312C332C0130342C003020004D
:10186A00A0002008FB000030F3000030F200003036
:10187A00F1000030F0007908A0002008FA006A2C74
:10188A007B1C482C492C502C7B3601382000A000A8
:10189A002008FB00522C0310FB0C701C552C562CF4
:1018AA00572CFB1701302000A000F337F20CF10C83
:1018BA00F00CA00B5A2C0130A0002008FA07790876
:1018CA007A02031C692C6A2C452C781B6D2C6E2C11
:1018DA00A82C7A08031D722C732C7C2C0030F30080
:1018EA000030F2000030F1000030F000A82D74083A
:1018FA00F0077508F13D7608F23D7708F33D731C51
:10190A00872C882C352D7B1C8B2C8C2C932C7B368E
:10191A0001382000A0002008FB00952C0310FB0CC6
:10192A00701C982C992C9A2CFB1701302000A000CF
:10193A00F337F20CF10CF00CA00B9D2C0130A00037
:10194A002008FA07352D7308803A2000A00077088E
:10195A00803A2002031DBB2C76087202031DBB2CA1
:10196A0075087102031DBB2C740870020318BE2C83
:10197A00BF2CF72CFF30A000FF30A100FF30A200DF
:10198A00FF30A30070087402A4007108753BA5001B
:10199A007208763BA6007308773BA7002408A007C5
:1019AA002508A13D2608A23D2708A33D2308F300E8
:1019BA002208F2002108F1002008F0008030A0007F
:1019CA002008F806FB09FB0A7B08031DED2CEE2C08
:1019DA00FF2C0130F0070030F13D0030F23D0030BD
:1019EA00F33DFF2C7408F0027508F13B7608F23BD0
:1019FA007708F33B7308720471047004031D062D03
:101A0A00072D312D7B08031D0B2D0C2D312D003098
:101A1A00F3000030F2000030F1000030F000A82D91
:101A2A000130F035F10DF20DF30D890B162DFB1F68
:101A3A001F2D202D212D70147B1C242D252D282DA2
:101A4A000314FB0D2A2D0310FB0D7A0803192E2D02
:101A5A002F2D312D0130FA02F21F342D352D152D7F
:101A6A00F901FB1F392D3A2D482D7B087F390319BF
:101A7A003F2D402D432DF901F90A482D701C462DA2
:101A8A00472D482D402D790803194C2D4D2D7B2DBE
:101A9A000130F0070030F13D0030F23D0030F33DF7
:101AAA00731C582D592D7B2D70082000A000710839
:101ABA00A1007208A2007308A3000130A400A33792
:101ACA00A20CA10CA00CA40B642D2308F30022087D
:101ADA00F2002108F1002008F0007A0A0319762D95
:101AEA00772D7B2D0130A0002008FA077A0A031906
:101AFA007F2D802D852D7A08031D842D852D932D0C
:101B0A000030F3000030F2000030F1000030F00045
:101B1A007A08031D912D922D932DF8017A1C962D8A
:101B2A00972D992DF2179E2D7F302000A0002008B6
:101B3A00F2057A362000A0002008F300F81FA62D2F
:101B4A00A72DA82DF317080020003D088039C200F0
:101B5A004208C7003D35C2004208CD00BC1FB62D61
:101B6A00B72DB82D4D144D080319BC2DBD2DCC2D04
:101B7A004D0A031DC12DC22DCA2D0030BD000030F3
:101B8A00BC000030BB000030BA00BC17D42D0030B6
:101B9A00BD000030BC000030BB000030BA00410874
:101BAA008039C2004208C7064135C2004208CC004B
:101BBA00C01FE02DE12DE22D4C144C080319E62D2F
:101BCA00E72DF62D4C0A031DEB2DEC2DF42D0030DC
:101BDA00C1000030C0000030BF000030BE00C01796
:101BEA00FE2D0030C1000030C0000030BF000030C0
:101BFA00BE004C080319022E032E082E4D08031DA1
:101C0A00072E082E112E0030BD000030BC00003017
:101C1A00BB000030BA00FF2F3A08C2004208F000A9
:101C2A00400890315B208D3171082000D300700884
:101C3A00D2005208C200C301C401C5014508CB0045
:101C4A004408CA004308C9004208C8005308C20031
:101C5A00C301C401C5014508D1004408D0004308A6
:101C6A00CF004208CE003B08C2004208F0003F08FD
:101C7A0090315B208D3171082000D3007008D200AA
:101C8A005208C200C301C401C5014208C80743087B
:101C9A00C93D4408CA3D4508CB3D5308C200C301AB
:101CAA00C401C5014208CE074308CF3D4408D03DD0
:101CBA004508D13D3C08C2004208F0003E08903178
:101CCA005B208D3171082000D3007008D2005208C1
:101CDA00C200C301C401C5014208C8074308C93D7F
:101CEA004408CA3D4508CB3D5308C200C301C4019C
:101CFA00C5014208CE074308CF3D4408D03D4508F8
:101D0A00D13D0830C835C90DCA0DCB0D890B872EB8
:101D1A003B08C2004208F0003E0890315B208D313A
:101D2A0071082000D3007008D2005208C80753086F
:101D3A00C93D0030CA3DCB3D3A08C2004208F00016
:101D4A003F0890315B208D3171082000D300700864
:101D5A00D2005208C8075308C93D0030CA3DCB3DDE
:101D6A000830C835C90DCA0DCB0D890BB62E3A08F5
:101D7A00C2004208F0003E0890315B208D317108A4
:101D8A002000D3007008D2005208C8075308C93D82
:101D9A000030CA3DCB3D3B08C2004208F000400873
:101DAA0090315B208D3171082000D3007008D20079
:101DBA005208CE075308CF3D0030D03DD13D3C08F4
:101DCA00C2004208F0003F0890315B208D31710853
:101DDA002000D3007008D2005208CE075308CF3D26
:101DEA000030D03DD13D3C08C2004208F000400816
:101DFA0090315B208D3171082000D3007008D20029
:101E0A005208C2005308C300C401C5010830C235D4
:101E1A00C30DC40DC50D890B0C2F4208CE0743080C
:101E2A00CF3D4408D03D4508D13D4808C200490885
:101E3A00C3004A08C4004B08C5001830C536C40C94
:101E4A00C30CC20C890B232F4208CE074308CF3D8F
:101E5A004408D03D4508D13D0830C835C90DCA0DE2
:101E6A00CB0D890B322F4D084C07C200C301C30D9D
:101E7A004208823ED200FF30433DD3005B2F01303F
:101E8A00CE35CF0DD00DD10D890B452FCB1F4E2F3F
:101E9A004F2F502F4E140130C835C90DCA0DCB0D26
:101EAA00890B512FFF30D207FF30D33DD01F5E2F51
:101EBA005F2F442FCC01CB1F632F642F802FFF305D
:101ECA004805C200FF304905C300FF304A05C40077
:101EDA007F304B05C50045084404430442040319F6
:101EEA00772F782F7B2FCC01CC0A802F4E1C7E2F88
:101EFA007F2F802F782F4C080319842F852FAD2F21
:101F0A000130CE070030CF3D0030D03D0030D13D0A
:101F1A00511C902F912FAD2F4E08C2004F08C300BD
:101F2A005008C4005108C5000130C600C537C40CAA
:101F3A00C30CC20CC60B9B2F4508D1004408D00025
:101F4A004308CF004208CE000130D2070030D33D0B
:101F5A005308803AC20080304202031DB62FFF3078
:101F6A005202031CB92FBA2FC42F7F302000D10090
:101F7A008030D0000030CF000030CE00F32F200098
:101F8A005308803AC20080304202031DCE2F01302E
:101F9A0052020318D12FD22FDD2F00302000D1009A
:101FAA000030D0000030CF000030CE00C701F32F40
:101FBA0020005208C2004208CD00FF30CE05FF3093
:101FCA00CF057F30D0050030D1054D1CED2FEE2F07
:101FDA00EF2FD0174D36C2004208D1004708C20081
:101FEA004208D1045108BD005008BC004F08BB008C
:101FFA004E08BA0008007008BF3EF200FF30713D7B
:10200A00F300003073021A3003197202031C0E28FF
:10201A001028013011280030F400F5017408F0008E
:10202A007508F1000800F7007108F5007008F4005F
:10203A007708F2007208F6007608860001308700F9
:10204A00F60A7508F3007408F200F40A0319F50A8F
:10205A0072088400730885000008C03F8908031DC0
:10206A0037283828212808008330F2007208210016
:10207A009D057008F2000130F235FF3E031D41282C
:10208A007235F30073089D040830F200CA30890BD8
:10209A004C28F20B4C2821009D149D1855285628CF
:1020AA0052281C08F1001B08F0000800F800F4018F
:1020BA00F5017008F200F3017208F6007308F700E0
:1020CA00781C682869286D287608F4077708F53D92
:1020DA000130F635F70D890B6E280310F80C7808D5
:1020EA00031D7828792865287508F1007408F0001E
:1020FA0008007608BF3EF800FF30773DF90000304F
:10210A0079021A3003197802031C8C288E280130B0
:10211A008F280030FA00FB017A08FC007B08FD00DA
:10212A007C087D0403199A289B28A228203076046B
:10213A00F60000307704F700A22808002000A30068
:10214A00A101A201BB282008F900FA017908F000D0
:10215A007A08F1007808FB007B08F20092318722A6
:10216A00903101302000A1070030A23D2108230749
:10217A00F90079088600013087000108FA007A0818
:10218A00A0002008031DCA28CB28A8280800F400AC
:10219A0074080F39F1007108F2007408F039F1007F
:1021AA007108F30020000F157308F1000430F136AE
:1021BA00890BDC2871089F31A027903120008F15E8
:1021CA001A30890BE628003220008F1172089F31DD
:1021DA00A027903120008F151A30890BF22800327F
:1021EA0020008F1108002200A80022302100ED00F3
:1021FA006D082200A90028082100ED006D082200C0
:10220A00AA00AB01AC01AD01AE0121082000EC002F
:10221A00220020082000EB0029302100ED006D0883
:10222A002000ED002A3091312621903122002B081E
:10223A0028072100ED006D08860001308700810122
:10224A0008002100EA0020006C082100EC002000B0
:10225A006B082100EB002200D101D2014A29EB30A0
:10226A002000EE006E08E9006D08EF006F08EA0032
:10227A0021006A08893188219131200069082200E9
:10228A00D10720006A082200D23D21006B08840091
:10229A006C0885001200031D532954293429220091
:1022AA0052082000EC00220051082000EB00080030
:1022BA0000309F31A02791313430F300F230890B7E
:1022CA006429F30B642903309F31722791310D3051
:1022DA00F300FC30890B6F29F30B6F2903309F3110
:1022EA00722791311D30F3009130890B7A29F30B53
:1022FA007A29000003309F317227913102309F31D1
:10230A007227913102309F317227913108309F3103
:10231A007227913100309F31722791310C309F31F1
:10232A007227913100309F317227913106309F31E7
:10233A00722791310800F6007603031DA529A62904
:10234A00C32973087F3EF4007408F9007908F40081
:10235A000430F436890BAE297408F5007508F700C5
:10236A0079080F39F4007408F80077089F3172274A
:10237A00913178089F3172279131E529023076062A
:10238A00031DC829C929E5297308BF3EF40074084A
:10239A00F9007908F4000430F436890BD12974085D
:1023AA00F5007508F70079080F39F4007408F80089
:1023BA0077089F317227913178089F3172279131BE
:1023CA00080000307005F80000307105F90080300F
:1023DA007205FA007F307305FB007B087A047904E2
:1023EA007804031DF929FA29022A0030F300003083
:1023FA00F2000030F1000030F00000307405F800FF
:10240A0000307505F90080307605FA007F307705CF
:10241A00FB007B087A0479047804031D152A162A1E
:10242A001E2A0030F7000030F6000030F5000030B8
:10243A00F40077087306031D2C2A76087206031D1A
:10244A002C2A75087106031D2C2A740870060319B4
:10245A002F2A302A322A0310332A03140800F601DD
:10246A00F31F382A392A402AF209F309F20A031912
:10247A00F30AF601F60AF11F432A442A492AF00907
:10248A00F109F00A0319F10A7008710403194E2AB6
:10249A004F2A782AF501F50A5B2A0130F035F10D49
:1024AA00890B532A0130F4007408F507F11F5E2ADC
:1024BA005F2A522A71087302031D652A7008720284
:1024CA00031C682A692A6D2A7008F2027108F33B14
:1024DA000130F136F00C890B6E2A0130F502031D2A
:1024EA00772A782A5F2A760803197C2A7D2A822A83
:1024FA00F209F309F20A0319F30A7308F1007208E0
:10250A00F0000800720803198B2A8C2A912A720893
:10251A00031D902A912A962A70088031052092314B
:10252A00DC2A7208033E8600013087001600010487
:10253A000319A02AA12AC02A7208033E8600013084
:10254A008700403FF300413FF400720A86000130E1
:10255A008700403FF500413FF6007608803AF700D1
:10256A007408803A7702031DBC2A7308750203189F
:10257A00BF2AC02ADC2A7008F300720886000130DC
:10258A008700720A84000130850000080107F40000
:10259A00740886000130870073088100720A860079
:1025AA00013087000130810741310318810A080090
:1025BA00F5007508F4007408F8007108F70070084F
:1025CA00F6000130F2020030F33B720A031DF12AD1
:1025DA00730A031DF12AF22A012BF001F101342BAF
:1025EA000130F4007408F8070130F6070030F73DAF
:1025FA000130F2020030F33B7808860087010108B7
:10260A000319082B092B272B7608840077088500E5
:10261A0012000319112B122B272B720873040319AA
:10262A00172B182B272B76088400770885000008BB
:10263A00F400780886008701010874060319262B1E
:10264A00272BF52A78088600870176088400770800
:10265A00850000080102F000F101031CF1030800E3
:10266A002000AB002200571C3B2B3C2B452B2000A3
:10267A002B08FC007C08F80024089031A320933131
:10268A002000A61B492B4A2B4F2B2608AA002508F7
:10269A00A900512BA901AA01A701A801652B203085
:1026AA00F0000030F10020002B08FC007C08F2004A
:1026BA0092318722933101302000A7070030A83DCC
:1026CA002808803AFC002A08803A7C02031D6F2BF6
:1026DA0029082702031C722B732B542B220057182C
:1026EA00772B782B812B20002B08FC007C08F80024
:1026FA0024089031A3209331200024089F31862793
:10270A009331200029087007A4002A08713DA5000A
:10271A000800F601F11F922B932B9A2BF009F1096D
:10272A00F00A0319F10AF601F60AF31F9D2B9E2BF4
:10273A00A72BF209F309F20A0319F30A0130F4008C
:10274A007408F606F701F801700871040319AE2B34
:10275A00AF2BDE2BF501F50ABB2B0130F035F10D5D
:10276A00890BB32B0130F4007408F507F11FBE2B57
:10277A00BF2BB22B0130F735F80D890BC02B71082E
:10278A007302031DCA2B70087202031CCD2BCE2BB9
:10279A00D32B7008F2027108F33B77140130F1363B
:1027AA00F00C890BD42B0130F502031DDD2BDE2B37
:1027BA00BF2B76080319E22BE32BE82BF709F8095C
:1027CA00F70A0319F80A7808F1007708F0000800F8
:1027DA0003102000560D570DD8005808DE005E0879
:1027EA00031DF82BF92B022C0030D7000030D6003D
:1027FA000030D5000030D400612C5408D8005508A8
:10280A00D9005608DA005708DB001F30DB36DA0C2D
:10281A00D90CD80C890B0B2C5808DC005C08DD009D
:10282A00D617FF30D405FF30D505FF30D605003066
:10283A00D7059630DE02DE1F232C242C3C2C5E08A2
:10284A00803A973E03182A2C2B2C2C2CF92B01307A
:10285A00D736D60CD50CD40C890B2D2C0130D800C8
:10286A005808DE07031D3A2C3B2C2C2C512C203007
:10287A005E02031C412C422C4C2CF92B0130D4351E
:10288A00D50DD60DD70D890B442C0130DE025E081A
:10289A00031D502C512C432C5D080319552C562C22
:1028AA00612CD409D509D609D709D40A0319D50A3E
:1028BA000319D60A0319D70A080022005008200073
:1028CA00A50022004F082000A40022004E08200084
:1028DA00A30022004D082000A2007308A500720878
:1028EA00A4007108A3007008A2002208F4002308BB
:1028FA00F5002408F6002508F7001730F736F60C1D
:10290A00F50CF40C890B832CFF307405A000003001
:10291A007505A10020082104031D942C952CB62CC2
:10292A002208F4002308F5002408F6002508F70019
:10293A000130F435F50DF60DF70D890B9E2C77084D
:10294A00760475047404031DAB2CAC2CB12C023034
:10295A00F0000030F100E02C0330F0000030F1000C
:10296A00E02C200A2104031DBB2CBC2CDC2C2208E1
:10297A00F4002308F5002408F6002508F7000930BA
:10298A00F435F50DF60DF70D890BC52C770876048D
:10299A00750474040319D22CD42C0130D52C0030C0
:1029AA00F800F9017808F0007908F100E02C043009
:1029BA00F0000030F1000800F80078080319E62C4E
:1029CA00E72CFB2CF31FEA2CEB2CFB2C7009FA00EA
:1029DA007109FB007209FC007309FD00FA0A031968
:1029EA00FB0A0319FC0A0319FD0A032D7308FD00EB
:1029FA007208FC007108FB007008FA007308720480
:102A0A0071047004031D0A2D0B2D142D0030F300E0
:102A1A000030F2000030F1000030F0008C2D9630CA
:102A2A00F4007408F900242D0130F4007408F90741
:102A3A000130FD36FC0CFB0CFA0C890B1E2DFE3006
:102A4A007D05031D292D2A2D192D3E2D0130F40057
:102A5A007408F9070130FA070030FB3D0030FC3DED
:102A6A000030FD3D0130FD36FC0CFB0CFA0C890BE5
:102A7A00382DFF307D05031D432D442D2B2D4E2D62
:102A8A000130F9020130FA35FB0DFC0DFD0D890B01
:102A9A00482DFC1B512D522D582D02307902031856
:102AAA00572D582D452D79185B2D5C2D642DFF303F
:102ABA00FA05FF30FB057F30FC05FF30FD050310EA
:102ACA00F90C7908F400F501F601F7011830F4352C
:102ADA00F50DF60DF70D890B6C2D7408FA047508BF
:102AEA00FB047608FC047708FD04780803197E2D98
:102AFA007F2D842DF31F822D832D842DFD177D08B4
:102B0A00F3007C08F2007B08F1007A08F000080064
:102B1A002200C501C6010030C7000230C8002300E8
:102B2A000C1421000C1423000E118F0121008F01B7
:102B3A00703099008831062095318831002095310E
:102B4A0091315D2195310030F000F100903139204A
:102B5A00953171082200C4007008C3004608803A03
:102B6A002100EE0022004408803A21006E02031D73
:102B7A00C12D2200430845020318C42DC52DD52DA9
:102B8A0005302200C7070030C83D48082000E00091
:102B9A00220047082000DF0080310C209531EE2DFD
:102BAA0022004408803A2100EE0022004608803ABA
:102BBA0021006E02031DE42D22004508430203187A
:102BCA00E72DE82DEE2D05302200C7020030C83B64
:102BDA00CA2D44302000A3007F30A200C030A100DB
:102BEA000030A00022004708F0004808F100F20176
:102BFA00F30100309431E124953173082000A700D5
:102C0A007208A6007108A5007008A40096314C2627
:102C1A009531200023082200C20020002208220049
:102C2A00C100200021082200C00020002008220044
:102C3A00BF009F315E27953182302100EE00DD30E2
:102C4A00890B252EEE0B252E0032F301F30A0130F3
:102C5A009131A021953100302200A000A030A100BE
:102C6A004208A5004108A4004008A3003F08A200AA
:102C7A002F309031F82095310D30890B422E00000B
:102C8A002F309F31C0279531A82D8031022820008E
:102C9A0027088039A8002808B1002735A800280885
:102CAA00B800A61F592E5A2E5B2E3814380803195D
:102CBA005F2E602E702E380A031D642E652E6D2E2F
:102CCA000030A7000030A6000030A5000030A400A4
:102CDA00A617A701782E0030A7000030A600003002
:102CEA00A5000030A40023088039A8002808B106EE
:102CFA002335A8002808B900A21F842E852E862E07
:102D0A003914390803198A2E8B2E9B2E390A031D72
:102D1A008F2E902E982E0030A3000030A200003093
:102D2A00A1000030A000A217A301A32E0030A30027
:102D3A000030A2000030A1000030A00023082204C5
:102D4A0021042004031DAA2EAB2EC42E0030A70096
:102D5A000030A6000030A5000030A4008030A60490
:102D6A007F30A7043108A8002808A7042708A30071
:102D7A002608A2002508A1002408A000FF2F380871
:102D8A00031DC82EC92ED22E0030A3000030A20087
:102D9A000030A1000030A000FF2F3808A800A901C8
:102DAA002908AB0039082802AA00031CAB032A0829
:102DBA007F3EB20000302B3DB3002708B000260842
:102DCA00AF002508AE002408AD000030A70000308F
:102DDA00A6000030A5000030A4000030B700003083
:102DEA00B6000030B5000030B400B9013A2F3908F6
:102DFA000319002F012F1B2F0130AD35AE0DAF0D7A
:102E0A00B00D890B022F0130A435A50DA60DA70D13
:102E1A00890B092FB71F122F132F142F24140130D7
:102E2A00B435B50DB60DB70D890B152F2308300231
:102E3A00031D292F22082F02031D292F21082E02E4
:102E4A00031D292F20082D02031C2C2F2D2F362F6E
:102E5A0037172008AD022108AE3B2208AF3B2308F2
:102E6A00B03B0130A8002808B9071A303902031C00
:102E7A003F2F402FFC2E30082F042E042D04031957
:102E8A00472F482F612F3414612F0130A435A50D27
:102E9A00A60DA70D890B4B2FB71F542F552F562F51
:102EAA0024140130B435B50DB60DB70D890B572F63
:102EBA00FF30B207FF30B33DA61F642F652F4A2F9C
:102ECA00B901B71F692F6A2F862FFF303405A80072
:102EDA00FF303505A900FF303605AA007F303705D7
:102EEA00AB002B082A042904280403197D2F7E2FFE
:102EFA00812FB901B90A862F241C842F852F862F8A
:102F0A007E2F390803198A2F8B2FB32F0130A4077C
:102F1A000030A53D0030A63D0030A73D271C962F66
:102F2A00972FB32F2408A8002508A9002608AA006D
:102F3A002708AB000130AC00AB37AA0CA90CA80CCF
:102F4A00AC0BA12F2B08A7002A08A6002908A50068
:102F5A002808A4000130B2070030B33D3308803A94
:102F6A00A80080302802031DBC2FFF303202031C48
:102F7A00BF2FC02FCD2FFF302000B2000030B3008A
:102F8A000030A7000030A6000030A5000030A400E1
:102F9A0020003308803AA80080302802031DD72F6A
:102FAA00013032020318DA2FDB2FE72F2000B2019B
:102FBA00B3010030A7000030A6000030A5000030A1
:102FCA00A400B10120003208A8002808B800381C63
:102FDA00EF2FF02FF22FA617F62F7F30A800280820
:102FEA00A6053836A8002808A7003108A80028082E
:062FFA00A704BB2E080035
:103EB400303475340034003400309F3172279F3120
:103EC40001309F3172279F31080073087204710416
:103ED400700403196E2F6F2F712F8030F3060800C2
:103EE400F20020000F1172089F31A0279F3120009B
:103EF4008F150B30F1006230890B7E2FF10B7E2F72
:103F0400003220008F110800F4007408F2007208D7
:103F1400F300902F0130F2007208F4077408860051
:103F2400013087000108031D982F992F8C2F7308E7
:103F34007402F000F101F01BF1030800F000701CA2
:103F4400A42FA52FA82F20000F16AA2F20000F1290
:103F5400F01CAD2FAE2FB02F8F16B12F8F12701D06
:103F6400B42FB52FB72F0F17B82F0F13F01DBB2F7A
:103F7400BC2FBE2F8F17BF2F8F130800F800F60138
:103F8400F701D32F76087807F5007508860001300D
:103F9400870001089031CC209F310130F6070030B2
:103FA400F73D76087807F50075088600013087002C
:103FB4000108031DDE2FDF2FC42F080080302000EE
:103FC400D7065B08F3005A08F2005908F1005808B4
:103FD400F0005708F7005608F6005508F500540895
:103FE400F4008B316A239F3173082000D7007208D4
:103FF400D6007108D5007008D40008004434203479
:10400400693473343A342034253466340034493402
:104014004E34463400344E3441344E340034693422
:104024006E34663400346E3461346E3400346C346F
:0440340066340034BA
:020000040001F9
:04000E00E23FFF1FAF
:00000001FF
