:020000040000FA
:08000000803102288731ED2F49
:10039A003034753400340034013021009D00D030EF
:1003AA009E00080021000E11043020009C000C3031
:1003BA0025009300403020009B0008008330F200A3
:1003CA00720821009D057008F2000130F235FF3EE7
:1003DA00031DEB297235F30073089D040830F200FF
:1003EA00CA30890BF629F20BF62921009D149D18B3
:1003FA00FF29002AFC291C08F1001B08F00008004C
:10040A00F800F401F5017008F200F3017208F60031
:10041A007308F700781C122A132A172A7608F40799
:10042A007708F53D0130F635F70D890B182A0310C8
:10043A00F80C7808031D222A232A0F2A7508F100CE
:10044A007408F000080023000C1421000C148131F8
:10045A00D72182318131D12182310030F000F1007F
:10046A008131E321823171082000E5007008E4003F
:10047A006508E0006408DF00823150228231823050
:10048A002000E300DD30890B482AE30B482A0032BA
:10049A00322A80310228033020006002FF3003191B
:1004AA005F020318592A5A2AC02A5F08F000600816
:1004BA00F100F201F30100308331362382317308EF
:1004CA002000A7007208A6007108A5007008A40001
:1004DA004430A3007F30A200C030A1000030A00049
:1004EA008331E223823120002308C1002208C000A0
:1004FA002108BF002008BE004330BD008230BC0086
:10050A000030BB000030BA008531962582312000C8
:10051A003D08D7003C08D6003B08D5003A08D4006D
:10052A008231C122823120005508E0005408DF00E0
:10053A006008E2005F08E100E236E10CE236E10C15
:10054A0061082500910020006008E2005F08E100D0
:10055A00E236E10C6118B22AB52A25009316B72AA9
:10056A002500931220005F18BB2ABE2A2500131605
:10057A00C02A25001312080003102000560D570D3B
:10058A00D8005808DE005E08031DCC2ACD2AD62AD8
:10059A000030D7000030D6000030D5000030D4003B
:1005AA00352B5408D8005508D9005608DA005708E0
:1005BA00DB001F30DB36DA0CD90CD80C890BDF2AAA
:1005CA005808DC005C08DD00D617FF30D405FF3080
:1005DA00D505FF30D6050030D7059630DE02DE1F7E
:1005EA00F72AF82A102B5E08803A973E0318FE2A4B
:1005FA00FF2A002BCD2A0130D736D60CD50CD40CC5
:10060A00890B012B0130D8005808DE07031D0E2B79
:10061A000F2B002B252B20305E02031C152B162BCB
:10062A00202BCD2A0130D435D50DD60DD70D890B07
:10063A00182B0130DE025E08031D242B252B172BF5
:10064A005D080319292B2A2B352BD409D509D6097C
:10065A00D709D40A0319D50A0319D60A0319D70ADE
:10066A000800F800780803193B2B3C2B502BF31F8A
:10067A003F2B402B502B7009FA007109FB007209BD
:10068A00FC007309FD00FA0A0319FB0A0319FC0AA4
:10069A000319FD0A582B7308FD007208FC00710843
:1006AA00FB007008FA007308720471047004031DD9
:1006BA005F2B602B692B0030F3000030F200003012
:1006CA00F1000030F000E12B9630F4007408F900D4
:1006DA00792B0130F4007408F9070130FD36FC0C5F
:1006EA00FB0CFA0C890B732BFE307D05031D7E2B48
:1006FA007F2B6E2B932B0130F4007408F90701301D
:10070A00FA070030FB3D0030FC3D0030FD3D013072
:10071A00FD36FC0CFB0CFA0C890B8D2BFF307D058A
:10072A00031D982B992B802BA32B0130F902013042
:10073A00FA35FB0DFC0DFD0D890B9D2BFC1BA62B21
:10074A00A72BAD2B023079020318AC2BAD2B9A2BB9
:10075A007918B02BB12BB92BFF30FA05FF30FB0506
:10076A007F30FC05FF30FD050310F90C7908F40011
:10077A00F501F601F7011830F435F50DF60DF70D10
:10078A00890BC12B7408FA047508FB047608FC046B
:10079A007708FD0478080319D32BD42BD92BF31F20
:1007AA00D72BD82BD92BFD177D08F3007C08F20034
:1007BA007B08F1007A08F000080020002708803939
:1007CA00A8002808B1002735A8002808B800A61FE5
:1007DA00EF2BF02BF12B381438080319F52BF62BD5
:1007EA00062C380A031DFA2BFB2B032C0030A7001A
:1007FA000030A6000030A5000030A400A617A7010B
:10080A000E2C0030A7000030A6000030A5000030F2
:10081A00A40023088039A8002808B1062335A800B7
:10082A002808B900A21F1A2C1B2C1C2C39143908B1
:10083A000319202C212C312C390A031D252C262C96
:10084A002E2C0030A3000030A2000030A10000309E
:10085A00A000A217A301392C0030A3000030A20087
:10086A000030A1000030A000230822042104200443
:10087A00031D402C412C5A2C0030A7000030A60042
:10088A000030A5000030A4008030A6047F30A70401
:10089A003108A8002808A7042708A3002608A200F0
:1008AA002508A1002408A000952D3808031D5E2CF8
:1008BA005F2C682C0030A3000030A2000030A10099
:1008CA000030A000952D3808A800A9012908AB001E
:1008DA0039082802AA00031CAB032A087F3EB2008B
:1008EA0000302B3DB3002708B0002608AF002508CA
:1008FA00AE002408AD000030A7000030A60000308A
:10090A00A5000030A4000030B7000030B600003067
:10091A00B5000030B400B901D02C39080319962C5F
:10092A00972CB12C0130AD35AE0DAF0DB00D890B42
:10093A00982C0130A435A50DA60DA70D890B9F2C67
:10094A00B71FA82CA92CAA2C24140130B435B50D34
:10095A00B60DB70D890BAB2C23083002031DBF2C33
:10096A0022082F02031DBF2C21082E02031DBF2CB3
:10097A0020082D02031CC22CC32CCC2C37172008AC
:10098A00AD022108AE3B2208AF3B2308B03B013041
:10099A00A8002808B9071A303902031CD52CD62C0E
:1009AA00922C30082F042E042D040319DD2CDE2C82
:1009BA00F72C3414F72C0130A435A50DA60DA70D7C
:1009CA00890BE12CB71FEA2CEB2CEC2C24140130F8
:1009DA00B435B50DB60DB70D890BED2CFF30B20746
:1009EA00FF30B33DA61FFA2CFB2CE02CB901B71F30
:1009FA00FF2C002D1C2DFF303405A800FF303505D3
:100A0A00A900FF303605AA007F303705AB002B0856
:100A1A002A04290428040319132D142D172DB901AA
:100A2A00B90A1C2D241C1A2D1B2D1C2D142D390816
:100A3A000319202D212D492D0130A4070030A53D91
:100A4A000030A63D0030A73D271C2C2D2D2D492D09
:100A5A002408A8002508A9002608AA002708AB0030
:100A6A000130AC00AB37AA0CA90CA80CAC0B372D83
:100A7A002B08A7002A08A6002908A5002808A40010
:100A8A000130B2070030B33D3308803AA800803005
:100A9A002802031D522DFF303202031C552D562DFC
:100AAA00632DFF302000B2000030B3000030A700F1
:100ABA000030A6000030A5000030A4002000330852
:100ACA00803AA80080302802031D6D2D01303202C1
:100ADA000318702D712D7D2D2000B201B301003055
:100AEA00A7000030A6000030A5000030A400B10124
:100AFA0020003208A8002808B800381C852D862D49
:100B0A00882DA6178C2D7F30A8002808A605383610
:100B1A00A8002808A7003108A8002808A704512C13
:100B2A00080020003D088039C2004208C7003D3550
:100B3A00C2004208CD00BC1FA32DA42DA52D4D1423
:100B4A004D080319A92DAA2DB92D4D0A031DAE2D45
:100B5A00AF2DB72D0030BD000030BC000030BB0007
:100B6A000030BA00BC17C12D0030BD000030BC00F7
:100B7A000030BB000030BA0041088039C200420888
:100B8A00C7064135C2004208CC00C01FCD2DCE2D6C
:100B9A00CF2D4C144C080319D32DD42DE32D4C0A18
:100BAA00031DD82DD92DE12D0030C1000030C00021
:100BBA000030BF000030BE00C017EB2D0030C1006E
:100BCA000030C0000030BF000030BE004C080319DE
:100BDA00EF2DF02DF52D4D08031DF42DF52DFE2DCD
:100BEA000030BD000030BC000030BB000030BA004D
:100BFA00EC2F3A08C2004208F00040088231052270
:100C0A00853171082000D3007008D2005208C20052
:100C1A00C301C401C5014508CB004408CA00430802
:100C2A00C9004208C8005308C200C301C401C50173
:100C3A004508D1004408D0004308CF004208CE003E
:100C4A003B08C2004208F0003F0882310522853184
:100C5A0071082000D3007008D2005208C200C301F4
:100C6A00C401C5014208C8074308C93D4408CA3D32
:100C7A004508CB3D5308C200C301C401C50142085F
:100C8A00CE074308CF3D4408D03D4508D13D3C0836
:100C9A00C2004208F0003E088231052285317108FF
:100CAA002000D3007008D2005208C200C301C40158
:100CBA00C5014208C8074308C93D4408CA3D45085A
:100CCA00CB3D5308C200C301C401C5014208CE0787
:100CDA004308CF3D4408D03D4508D13D0830C835CA
:100CEA00C90DCA0DCB0D890B742E3B08C2004208F0
:100CFA00F0003E0882310522853171082000D300B8
:100D0A007008D2005208C8075308C93D0030CA3DCE
:100D1A00CB3D3A08C2004208F0003F088231052262
:100D2A00853171082000D3007008D2005208C80724
:100D3A005308C93D0030CA3DCB3D0830C835C90DFE
:100D4A00CA0DCB0D890BA32E3A08C2004208F00047
:100D5A003E0882310522853171082000D3007008CF
:100D6A00D2005208C8075308C93D0030CA3DCB3DDE
:100D7A003B08C2004208F000400882310522853152
:100D8A0071082000D3007008D2005208CE07530819
:100D9A00CF3D0030D03DD13D3C08C2004208F000B2
:100DAA003F0882310522853171082000D30070087E
:100DBA00D2005208CE075308CF3D0030D03DD13D76
:100DCA003C08C2004208F000400882310522853101
:100DDA0071082000D3007008D2005208C2005308DC
:100DEA00C300C401C5010830C235C30DC40DC50D09
:100DFA00890BF92E4208CE074308CF3D4408D03D5F
:100E0A004508D13D4808C2004908C3004A08C40041
:100E1A004B08C5001830C536C40CC30CC20C890B6C
:100E2A00102F4208CE074308CF3D4408D03D45085D
:100E3A00D13D0830C835C90DCA0DCB0D890B1F2FFE
:100E4A004D084C07C200C301C30D4208823ED200BE
:100E5A00FF30433DD300482F0130CE35CF0DD00DA2
:100E6A00D10D890B322FCB1F3B2F3C2F3D2F4E1418
:100E7A000130C835C90DCA0DCB0D890B3E2FFF3085
:100E8A00D207FF30D33DD01F4B2F4C2F312FCC012F
:100E9A00CB1F502F512F6D2FFF304805C200FF3056
:100EAA004905C300FF304A05C4007F304B05C50021
:100EBA0045084404430442040319642F652F682F2C
:100ECA00CC01CC0A6D2F4E1C6B2F6C2F6D2F652F0A
:100EDA004C080319712F722F9A2F0130CE07003058
:100EEA00CF3D0030D03D0030D13D511C7D2F7E2FAB
:100EFA009A2F4E08C2004F08C3005008C400510878
:100F0A00C5000130C600C537C40CC30CC20CC60BE1
:100F1A00882F4508D1004408D0004308CF00420872
:100F2A00CE000130D2070030D33D5308803AC200C8
:100F3A0080304202031DA32FFF305202031CA62F4A
:100F4A00A72FB12F7F302000D1008030D000003091
:100F5A00CF000030CE00E02F20005308803AC200B4
:100F6A0080304202031DBB2F013052020318BE2FEC
:100F7A00BF2FCA2F00302000D1000030D00000302F
:100F8A00CF000030CE00C701E02F20005208C20077
:100F9A004208CD00FF30CE05FF30CF057F30D005A7
:100FAA000030D1054D1CDA2FDB2FDC2FD0174D3640
:100FBA00C2004208D1004708C2004208D1045108C1
:100FCA00BD005008BC004F08BB004E08BA0008001C
:100FDA008131CD218731E6008131CE218731E70089
:100FEA008131CF218731E8008131D0218731E90071
:060FFA0020008231282ACC
:020000040001F9
:04000E00E23FFF1FAF
:00000001FF
