:020000040000FA
:08000000803102288731ED2F49
:10000A000800730872047104700403190D280E287D
:10001A0010288030F3060800F8007808031916281B
:10002A0017282B28F31F1A281B282B287009FA00D7
:10003A007109FB007209FC007309FD00FA0A031931
:10004A00FB0A0319FC0A0319FD0A33287308FD0089
:10005A007208FC007108FB007008FA007308720449
:10006A0071047004031D3A283B2844280030F30029
:10007A000030F2000030F1000030F000BC28963069
:10008A00F4007408F90054280130F4007408F907E0
:10009A000130FD36FC0CFB0CFA0C890B4E28FE30A5
:1000AA007D05031D59285A2849286E280130F40075
:1000BA007408F9070130FA070030FB3D0030FC3DB7
:1000CA000030FD3D0130FD36FC0CFB0CFA0C890BAF
:1000DA006828FF307D05031D732874285B287E2855
:1000EA000130F9020130FA35FB0DFC0DFD0D890BCB
:1000FA007828FC1B81288228882802307902031874
:10010A0087288828752879188B288C289428FF3006
:10011A00FA05FF30FB057F30FC05FF30FD050310B3
:10012A00F90C7908F400F501F601F7011830F435F5
:10013A00F50DF60DF70D890B9C287408FA0475085D
:10014A00FB047608FC047708FD0478080319AE2836
:10015A00AF28B428F31FB228B328B428FD177D08A6
:10016A00F3007C08F2007B08F1007A08F00008002E
:10017A002100BC00BA01BB01200063082100D000A5
:10018A00200062082100CF00200061082100CE0073
:10019A00200060082100CD0050082000D70021006F
:1001AA004F082000D60021004E082000D50021006B
:1001BA004D082000D4000030DB000030DA000030A7
:1001CA00D9000030D8009531002580310318EE2877
:1001DA00EF28082901302100BA000030BB0050087E
:1001EA00F3004F08F2004E08F1004D08F00080318C
:1001FA000620803173082100D0007208CF007108F0
:10020A00CE007008CD002100D301D40122005E087F
:10021A002100C10022005D082100C0003A083B0409
:10022A00031D182919291E292200611D1D291E29AD
:10023A003D2921003A083B04031D242925292A299E
:10024A002B30A4000030A5002E292D30A400003048
:10025A00A50024082000E50065082300A00001305D
:10026A002100D3070030D43DFF30C007FF30C13D25
:10027A0021005008F3004F08F2004E08F1004D0823
:10028A00F00094318124803170037104031D4E29DA
:10029A004F29A12920006408BF3EE500FF3003185A
:1002AA000030E600003066021A3003196502031CAA
:1002BA005F296129013062290030E700E8016708F7
:1002CA002100A600200068082100A70026082704AC
:1002DA000319702971297B290930F000A030F10037
:1002EA005308A03E90313720803184291130F00024
:1002FA00A030F1005308A03E903137208031FD3004
:10030A002100C007FF30C13DA0302000E50065088C
:10031A00A400210041082000A60021004008200076
:10032A00A50021003C089331542380312000250880
:10033A00E1002408E000EC2F21005008F3004F08E8
:10034A00F2004E08F1004D08F0009431812480310A
:10035A0070087104031DB229B329052A2000640814
:10036A00BF3EE500FF3003180030E60000306602A9
:10037A001A3003196502031CC329C5290130C6298D
:10038A000030E700E80167082100A800200068089B
:10039A002100A900280829040319D429D529DF290D
:1003AA000D30F000A030F1005308A03E9031372004
:1003BA008031E8291530F000A030F1005308A03E42
:1003CA00903137208031FD302100C007FF30C13D18
:1003DA00A0302000E5006508A400210041082000A3
:1003EA00A600210040082000A50021003C08933106
:1003FA005423803120002508E1002408E000EC2F76
:10040A003F302100D8008030D7000030D6000030BD
:10041A00D500D101D2015008F3004F08F2004E086E
:10042A00F1004D08F0000030F7000030F60000300F
:10043A00F5000030F4009231052280310318262A93
:10044A00272AEB2A582A41302000BD002030BC0060
:10045A000030BB000030BA00210058082000C1005B
:10046A00210057082000C000210056082000BF00C4
:10047A00210055082000BE008D31A92580312000B9
:10048A003D082100D80020003C082100D7002000A8
:10049A003B082100D60020003A082100D50001308F
:1004AA00D1070030D23D210050082000D70021009A
:1004BA004F082000D60021004E082000D500210058
:1004CA004D082000D4004130BD002030BC0000306F
:1004DA00BB000030BA00210058082000C1002100EA
:1004EA0057082000C000210056082000BF00210044
:1004FA0055082000BE008D31A925803120003D0815
:10050A00DB003C08DA003B08D9003A08D8009531EC
:10051A00002580310318922A932A282AC42A4130B6
:10052A002000A3002030A2000030A1000030A0006B
:10053A00210058082000A700210057082000A60023
:10054A00210056082000A500210055082000A4001B
:10055A0096314C268031200023082100D800200043
:10056A0022082100D700200021082100D6002000FF
:10057A0020082100D500FF30D107FF30D23D2100ED
:10058A0050082000D70021004F082000D600210083
:10059A004E082000D50021004D082000D40021007B
:1005AA0058082000DB00210057082000DA0021004B
:1005BA0056082000D900210055082000D80095319E
:1005CA0000258031031CEA2AEB2A942A20006408B9
:1005DA00E500E6016508F6006608F70090319D20FF
:1005EA00803176082000E70067082100C20042082F
:1005FA002000E50065082100BF0067304206031DA0
:10060A00072B082B312B22005F086004031D0E2BD9
:10061A000F2B132B0130DF000030E0006008803A16
:10062A002000E50080306502031D1E2B01302200E8
:10063A005F020318212B222B282B06302100BD0034
:10064A000030BE00372B220060082100BE002200C5
:10065A005F082100BD00372B2200E01B352B362B0B
:10066A00222B282B67304206031D3C2B3D2B752B72
:10067A005208803A2000E5007F306502031D482BAE
:10068A00FC3021005102031C4B2B4C2B6F2B2100F9
:10069A003D08FF3E2000E500FF3021003E3D2000DE
:1006AA00E6006608803AE70021005208803A2000F6
:1006BA006702031D642B2100510820006502031CF8
:1006CA00672B682B6F2B66302000E5006508210038
:1006DA00BF00752B65302000E50065082100BF00CA
:1006EA003E08B5003D08B40067304206031D7E2B64
:1006FA007F2B892B66303F06031D842B852B8D2B80
:10070A00D21F882B892B8D2B0130B4070030B53DC1
:10071A0066303F06031D922B932BAB2BD21F962BD1
:10072A00972BA12B3F30D8008030D7000030D6005D
:10073A000030D500D101D201673042060319A62B39
:10074A00A72BAB2B5108B4075208B53DCB01CC01FE
:10075A005008C6004F08C5004E08C4004D08C30023
:10076A005808A3005708A2005608A1005508A0007F
:10077A00952C210058082000A300210057082000CA
:10078A00A200210056082000A100210055082000DF
:10079A00A000210046082000A700210045082000EB
:1007AA00A600210044082000A500210043082000DB
:1007BA00A40096314C26803120002308BD0022086F
:1007CA00BC002108BB002008BA0088319D20803176
:1007DA0020003D082100CA0020003C082100C90071
:1007EA0020003B082100C80020003A082100C70069
:1007FA004A082000D700210049082000D60021001D
:10080A0048082000D500210047082000D400943170
:10081A000C248031200055082100B900200054081A
:10082A002100B8004A082000C10021004908200020
:10083A00C000210048082000BF002100470820000E
:10084A00BE00210058082000BD00210057082000E2
:10085A00BC00210056082000BB00210055082000DA
:10086A00BA008D31A925803120003D08D7003C0807
:10087A00D6003B08D5003A08D400210046082000DB
:10088A00DB00210045082000DA002100440820008E
:10089A00D900210043082000D80090311720803168
:1008AA00200057082100C600200056082100C50074
:1008BA00200055082100C400200054082100C3006C
:1008CA0041302000A3002030A2000030A1000030F7
:1008DA00A000210058082000A70021005708200086
:1008EA00A600210056082000A50021005508200076
:1008FA00A40096314C268031200023082100D8001C
:10090A00200022082100D700200021082100D6005B
:10091A00200020082100D5000130CB070030CC3D53
:10092A004C08803A2000E50021003508803A200072
:10093A006502031DA32C210034084B02031CA62CBC
:10094A00A72CBE2B40302000BD00A030BC000030D8
:10095A00BB000030BA00210058082000C100210065
:10096A0057082000C000210056082000BF002100BF
:10097A0055082000BE008D31A925803120003D0890
:10098A002100CA0020003C082100C90020003B08C1
:10099A002100C80020003A082100C70046082000AC
:1009AA00D700210045082000D60021004408200075
:1009BA00D500210043082000D40021004A08200065
:1009CA00DB00210049082000DA0021004808200045
:1009DA00D900210047082000D80095310025803130
:1009EA000318F82CF92C032D00302100CA0000301E
:1009FA00C9000030C8000030C700282D2100460871
:100A0A00F3004508F2004408F1004308F0004A08E0
:100A1A00F7004908F6004808F5004708F400923143
:100A2A0005228031031C1A2D1B2D282D2100381870
:100A3A001F2D202D282D0030CA000030C90000309B
:100A4A00C8000030C70021004A08F3004908F20034
:100A5A004808F1004708F0005008F7004F08F60070
:100A6A004E08F5004D08F4008B316A238031730873
:100A7A002100C6007208C5007108C4007008C300CE
:100A8A002308D8002208D7002108D6002008D5005C
:100A9A0065303F060319522D532D582D5208B700C1
:100AAA005108B6005A2DB601B701B201B301B0011F
:100ABA00B101CB01CC01B12E210058082000A300BE
:100ACA00210057082000A200210056082000A1009A
:100ADA00210055082000A000210046082000A70098
:100AEA00210045082000A600210044082000A50096
:100AFA00210043082000A40096314C2680312000B2
:100B0A002308BD002208BC002108BB002008BA0047
:100B1A0088319D20803120003D082100CA00200034
:100B2A003C082100C90020003B082100C800200021
:100B3A003A082100C7004A082000D70021004908C6
:100B4A002000D600210048082000D50021004708CF
:100B5A002000D40094310C24803120005508210053
:100B6A00B900200054082100B8002200611ABE2DE5
:100B7A00BF2DD52D210038083904031DC52DC62DDA
:100B8A00D52D67304206031DCB2DCC2DD52DB71F91
:100B9A00CF2DD02DD52D0130B0070030B13D2F2EED
:100BAA00210032083304031DDB2DDC2D132EB71F61
:100BBA00DF2DE02D132E2E302000E50021005308F2
:100BCA00A03E8600013087002000650881000130C0
:100BDA002100D3070030D43DFF30C007FF30C13DAC
:100BEA000130B2000030B300132E30302000E5008F
:100BFA0021005308A03E86000130870020006508C6
:100C0A00810001302100D3070030D43DFF30C007F6
:100C1A00FF30C13DFF30B007FF30B13D300831042D
:100C2A00031D182E192EFA2D3808303E2000E50033
:100C3A0021005308A03E8600013087002000650885
:100C4A00810001302100D3070030D43DFF30C007B6
:100C5A00FF30C13D4A082000C10021004908200098
:100C6A00C000210048082000BF00210047082000DA
:100C7A00BE00210058082000BD00210057082000AE
:100C8A00BC00210056082000BB00210055082000A6
:100C9A00BA008D31A925803120003D08D7003C08D3
:100CAA00D6003B08D5003A08D400210046082000A7
:100CBA00DB00210045082000DA002100440820005A
:100CCA00D900210043082000D80090311720803134
:100CDA00200057082100C600200056082100C50040
:100CEA00200055082100C400200054082100C30038
:100CFA0041302000A3002030A2000030A1000030C3
:100D0A00A000210058082000A70021005708200051
:100D1A00A600210056082000A50021005508200041
:100D2A00A40096314C268031200023082100D800E7
:100D3A00200022082100D700200021082100D60027
:100D4A00200020082100D500FF30B607FF30B73D4C
:100D5A000130CB070030CC3D4C08803A2000E5003A
:100D6A0021003508803A20006502031DBF2E2100AC
:100D7A0034084B020318C22EC32ED32E2100540866
:100D8A00803A2000E50080306502031DCF2E4B30EB
:100D9A0021005302031CD22ED32E612D21003208CA
:100DAA003304031DD92EDA2EF02E2200611EDE2E08
:100DBA00DF2EF02E2E302000E50021005308A03E41
:100DCA00860001308700200065088100013021007B
:100DDA00D3070030D43D21005308A03E86000130DD
:100DEA008700810165303F06031DFC2EFD2ED52F9D
:100DFA004F30CB000030CC004B08A03E86000130BB
:100E0A0087008101BA01BB01D21F0C2F0D2F162FAB
:100E1A000130BA000030BB00D109D209D10A031946
:100E2A00D20A0230BD000030BE00512FFF3021002F
:100E3A00CB07FF30CC3D0A30F0000030F1005208F9
:100E4A00F3005108F2009231532280317008303E8B
:100E5A002000E50021004B08A03E860001308700F3
:100E6A002000650881000A30F0000030F1002100FE
:100E7A005208F3005108F2009331AD238031710812
:100E8A002100D2007008D100FF30BD07FF30BE3DFF
:100E9A00FF30C007FF30C13D51085204031D562FD1
:100EAA00572F1B2F3E08803A2000E500803065024C
:100EBA00031D622F013021003D020318652F662FA2
:100ECA001B2FFF302100CB07FF30CC3D3A083B04F3
:100EDA00031D702F712F762F2B30AA000030AB0024
:100EEA007A2F2D30AA000030AB002A082000E50036
:100EFA0021004B08A03E86000130870020006508CB
:100F0A008100FF302100C007FF30C13DFF30CB0711
:100F1A00FF30CC3D20006408BF3EE500FF300318D7
:100F2A000030E600003066021A3003196502031C1D
:100F3A009F2FA12F0130A22F0030E700E801670898
:100F4A002100AE00200068082100AF002E082F04FF
:100F5A00031DB02FB12FB62F6530AC000030AD00A5
:100F6A00BA2F4530AC000030AD002C082000E50057
:100F7A0021004B08A03E860001308700200065084A
:100F8A008100FF302100C007FF30C13D4B08A03E61
:100F9A00F0000130F1005308A03E90313720803133
:100FAA00A0302000E5006508A400210041082000C7
:100FBA00A600210040082000A50021003C0893312A
:100FCA005423803120002508E1002408E0000800AD
:100FDA00533084000130850010309F3171278731EA
:100FEA00A03084000130850050309F31712787314D
:060FFA00200088310528EB
:10100A007030210099008D1023008D018F0121007D
:10101A008F01FF308E0023008E010C1421000C1466
:10102A0091317C2188319F316B2788319F3180270C
:10103A0088310030F000F100903158208831710871
:10104A002200D2007008D10052082000E0002200DD
:10105A0051082000DF0095318B25883120008D143E
:10106A008F1006302100EF001330EE00AD30890BEF
:10107A003C28EE0B3C28EF0B3C28003220008D1454
:10108A008F104430A3007F30A200C030A10000308E
:10109A00A00022005108F0005208F100890D893B96
:1010AA008909F200F3000130803111208831730878
:1010BA002000A7007208A6007108A5007008A40005
:1010CA0096314C268831200023082200D0002000C7
:1010DA0022082200CF00200021082200CE00200092
:1010EA0020082200CD009F3177278831F301F30AC7
:1010FA0001309131BF21883100302200A000A03098
:10110A00A1005008A5004F08A4004E08A3004D08EE
:10111A00A2002F309131172188310D30890B932885
:10112A0000002F309F31E02788311E2880310228A5
:10113A00220056082000CD00220055082000CC00CD
:10114A00220054082000CB00220053082000CA00C5
:10115A003D08CD003C08CC003B08CB003A08CA0049
:10116A004A08BE004B08BF004C08C0004D08C10029
:10117A001730C136C00CBF0CBE0C890BBE28FF301D
:10118A003E05C20000303F05C3004208813EC80048
:10119A00FF30433DC9004908803ABE0080303E0214
:1011AA00031DD92817304802031CDC28DD28DE2855
:1011BA0087292000C91BE228E3284029FF30BE0006
:1011CA00FF30BF007F30C0000030C100480AF1285C
:1011DA00C137C00CBF0CBE0C890BED284108C700F3
:1011EA004008C6003F08C5003E08C4004A08440536
:1011FA00BE004B084505BF004C084605C0004D0817
:10120A004705C100410840043F043E04031D0E295E
:10121A000F291029DD284A08BE004B08BF004C08D8
:10122A00C0004D08C1001F30C136C00CBF0CBE0C37
:10123A00890B1929410840043F043E040319262951
:10124A0027292F294408CA074508CB3D4608CC3D23
:10125A004708CD3D4409BE004509BF004609C00004
:10126A004709C1003E08CA053F08CB054008CC051E
:10127A004108CD057F294A08BE004B08BF004C082B
:10128A00C0004D08C1001F30C136C00CBF0CBE0CD7
:10129A00890B4929410840043F043E04031D56298D
:1012AA00572960290030CD000030CC000030CB0037
:1012BA000030CA007F294A08BE004B08BF004C080C
:1012CA00C0004D08C1000130BE35BF0DC00DC10DB3
:1012DA00890B6929410840043F043E040319762911
:1012EA0077297F29BF30CD008030CC000030CB0079
:1012FA000030CA004D08BD004C08BC004B08BB00BA
:10130A004A08BA0008002100E9002000690886009E
:10131A008701403F2100D900413FDA005908840083
:10132A005A0885001200253A031D9C299D29442B41
:10133A0020006908860087010130810741310318BE
:10134A00810A2200DD01DE01E101E201FF30DF0056
:10135A00FF30E0002000690886008701403F210035
:10136A00D900413FDA00590884005A08850000086C
:10137A00DB00DC015B08F6005C08F70090319D2079
:10138A00893176082100DD005D08E500650803194A
:10139A00CF29D029132A2000690886008701403FF7
:1013AA002100D900413FDA000130590784005A0868
:1013BA0003185A0A85000008DB00DC015B08F60006
:1013CA005C08F70090319D20893176082100DD0004
:1013DA005D08E60066080319F329F429132A200098
:1013EA00690886008701403F2100D900413FDA00A1
:1013FA000230590784005A0803185A0A850000085F
:10140A00DB00DC015B08F6005C08F70090319D20E8
:10141A00893176082100DD005D08E700663065063F
:10142A00031D182A192A662A2000690886008701DE
:10143A00403F2100D900413FDA00590884005A0888
:10144A0085000008DB005B08E800200069088600C8
:10145A0087010130810741310318810A6A08860031
:10146A0001308700010884000130850004308107BB
:10147A00003F2100E100013FE200023FE300033F99
:10148A00E40064082000E300210063082000E20071
:10149A00210062082000E100210061082000E0002C
:1014AA0021006808D90059082000E40021006908D1
:1014BA008031BD20893120006108EA006008E90016
:1014CA00692B1930F000A030F1000230F200003030
:1014DA00F300E5309231FC22893170087104031D52
:1014EA00772A782A0A2B2000690886008701403F5C
:1014FA002100D900413FDA000130590784005A0817
:10150A0003185A0A85000008DB005B08E80020007F
:10151A00690886008701403F2100D900413FDA006F
:10152A00590884005A0885000008BF3EDB00FF30D6
:10153A0003180030DC0000305C021A3003195B0229
:10154A00031CA82AAA2A0130AB2A0030DD00DE01DA
:10155A005D08DF005E08E0005F0860040319B62A30
:10156A00B72ACC2A20006A088600013087000108C1
:10157A0084000130850004308107003F2100E1002A
:10158A00013FE200023FE300033FE400E02A2000BB
:10159A006A0886000130870001088400013085004E
:1015AA0004308107003F2100E100013FE200023FD1
:1015BA00E300033FE4002000690886008701023047
:1015CA00810741310318810A210064082000E300E1
:1015DA00210063082000E200210062082000E100E7
:1015EA00210061082000E00021006808D90059089C
:1015FA002000E400210069088031BD2089312000E3
:10160A006108EA006008E900692B20006908860081
:10161A008701403F2100D900413FDA005908840080
:10162A005A0885001200253A031D1C2B1D2B382B46
:10163A0020006908860087010130810741310318BB
:10164A00810A2530F0000030F10021006908D90034
:10165A005908F2009231A622893101302000E900AE
:10166A000030EA00692B20006908860087010130F2
:10167A00810741310318810AE901EA01692B200037
:10168A00690886008701403F2100D900413FDA00FE
:10169A00590884005A0885000008DB00DC015B0851
:1016AA00F0005C08F1006908DD005D08F200923183
:1016BA00A622893120006908860087010130810746
:1016CA0041310318810A322B08007308803920003F
:1016DA00A0002008F8007335A0002008FA00F21FC5
:1016EA00772B782B792B7A147A0803197D2B7E2B8A
:1016FA008E2B7A0A031D822B832B8B2B0030F3004F
:10170A000030F2000030F1000030F000F217F3016F
:10171A00962B0030F3000030F2000030F100003068
:10172A00F00077088039A0002008F90079087806C7
:10173A000319A02BA12BA22B78177735A00020081C
:10174A00F900F61FA92BAA2BAB2B791479080319D8
:10175A00AF2BB02BC02B790A031DB42BB52BBD2B95
:10176A000030F7000030F6000030F5000030F400D9
:10177A00F617F701C82B0030F7000030F6000030EA
:10178A00F5000030F4007A0879020318CD2BCE2B2D
:10179A00122C781FD12BD22BD62B8030A0002008F8
:1017AA00F8067A08A0002008FB007908A0002008A3
:1017BA00FA007B08A0002008F9007008A0002008A1
:1017CA00FB007408A0002008F0007B08A000200895
:1017DA00F4007108A0002008FB007508A00020088A
:1017EA00F1007B08A0002008F5007208A00020087C
:1017FA00FB007608A0002008F2007B08A000200861
:10180A00F6007308A0002008FB007708A000200853
:10181A00F3007B08A0002008F700FB017908A0006C
:10182A00A1012108A3007A082002A200031CA30335
:10183A002308803AA40080302402031D262C1A3083
:10184A002202031C292C2A2C642C730872047104AA
:10185A007004031D312C332C0130342C003020004D
:10186A00A0002008FB000030F3000030F200003036
:10187A00F1000030F0007908A0002008FA006A2C74
:10188A007B1C482C492C502C7B3601382000A000A8
:10189A002008FB00522C0310FB0C701C552C562CF4
:1018AA00572CFB1701302000A000F337F20CF10C83
:1018BA00F00CA00B5A2C0130A0002008FA07790876
:1018CA007A02031C692C6A2C452C781B6D2C6E2C11
:1018DA00A82C7A08031D722C732C7C2C0030F30080
:1018EA000030F2000030F1000030F000A82D74083A
:1018FA00F0077508F13D7608F23D7708F33D731C51
:10190A00872C882C352D7B1C8B2C8C2C932C7B368E
:10191A0001382000A0002008FB00952C0310FB0CC6
:10192A00701C982C992C9A2CFB1701302000A000CF
:10193A00F337F20CF10CF00CA00B9D2C0130A00037
:10194A002008FA07352D7308803A2000A00077088E
:10195A00803A2002031DBB2C76087202031DBB2CA1
:10196A0075087102031DBB2C740870020318BE2C83
:10197A00BF2CF72CFF30A000FF30A100FF30A200DF
:10198A00FF30A30070087402A4007108753BA5001B
:10199A007208763BA6007308773BA7002408A007C5
:1019AA002508A13D2608A23D2708A33D2308F300E8
:1019BA002208F2002108F1002008F0008030A0007F
:1019CA002008F806FB09FB0A7B08031DED2CEE2C08
:1019DA00FF2C0130F0070030F13D0030F23D0030BD
:1019EA00F33DFF2C7408F0027508F13B7608F23BD0
:1019FA007708F33B7308720471047004031D062D03
:101A0A00072D312D7B08031D0B2D0C2D312D003098
:101A1A00F3000030F2000030F1000030F000A82D91
:101A2A000130F035F10DF20DF30D890B162DFB1F68
:101A3A001F2D202D212D70147B1C242D252D282DA2
:101A4A000314FB0D2A2D0310FB0D7A0803192E2D02
:101A5A002F2D312D0130FA02F21F342D352D152D7F
:101A6A00F901FB1F392D3A2D482D7B087F390319BF
:101A7A003F2D402D432DF901F90A482D701C462DA2
:101A8A00472D482D402D790803194C2D4D2D7B2DBE
:101A9A000130F0070030F13D0030F23D0030F33DF7
:101AAA00731C582D592D7B2D70082000A000710839
:101ABA00A1007208A2007308A3000130A400A33792
:101ACA00A20CA10CA00CA40B642D2308F30022087D
:101ADA00F2002108F1002008F0007A0A0319762D95
:101AEA00772D7B2D0130A0002008FA077A0A031906
:101AFA007F2D802D852D7A08031D842D852D932D0C
:101B0A000030F3000030F2000030F1000030F00045
:101B1A007A08031D912D922D932DF8017A1C962D8A
:101B2A00972D992DF2179E2D7F302000A0002008B6
:101B3A00F2057A362000A0002008F300F81FA62D2F
:101B4A00A72DA82DF317080020003D088039C200F0
:101B5A004208C7003D35C2004208CD00BC1FB62D61
:101B6A00B72DB82D4D144D080319BC2DBD2DCC2D04
:101B7A004D0A031DC12DC22DCA2D0030BD000030F3
:101B8A00BC000030BB000030BA00BC17D42D0030B6
:101B9A00BD000030BC000030BB000030BA00410874
:101BAA008039C2004208C7064135C2004208CC004B
:101BBA00C01FE02DE12DE22D4C144C080319E62D2F
:101BCA00E72DF62D4C0A031DEB2DEC2DF42D0030DC
:101BDA00C1000030C0000030BF000030BE00C01796
:101BEA00FE2D0030C1000030C0000030BF000030C0
:101BFA00BE004C080319022E032E082E4D08031DA1
:101C0A00072E082E112E0030BD000030BC00003017
:101C1A00BB000030BA00FF2F3A08C2004208F000A9
:101C2A00400890317A208D3171082000D300700865
:101C3A00D2005208C200C301C401C5014508CB0045
:101C4A004408CA004308C9004208C8005308C20031
:101C5A00C301C401C5014508D1004408D0004308A6
:101C6A00CF004208CE003B08C2004208F0003F08FD
:101C7A0090317A208D3171082000D3007008D2008B
:101C8A005208C200C301C401C5014208C80743087B
:101C9A00C93D4408CA3D4508CB3D5308C200C301AB
:101CAA00C401C5014208CE074308CF3D4408D03DD0
:101CBA004508D13D3C08C2004208F0003E08903178
:101CCA007A208D3171082000D3007008D2005208A2
:101CDA00C200C301C401C5014208C8074308C93D7F
:101CEA004408CA3D4508CB3D5308C200C301C4019C
:101CFA00C5014208CE074308CF3D4408D03D4508F8
:101D0A00D13D0830C835C90DCA0DCB0D890B872EB8
:101D1A003B08C2004208F0003E0890317A208D311B
:101D2A0071082000D3007008D2005208C80753086F
:101D3A00C93D0030CA3DCB3D3A08C2004208F00016
:101D4A003F0890317A208D3171082000D300700845
:101D5A00D2005208C8075308C93D0030CA3DCB3DDE
:101D6A000830C835C90DCA0DCB0D890BB62E3A08F5
:101D7A00C2004208F0003E0890317A208D31710885
:101D8A002000D3007008D2005208C8075308C93D82
:101D9A000030CA3DCB3D3B08C2004208F000400873
:101DAA0090317A208D3171082000D3007008D2005A
:101DBA005208CE075308CF3D0030D03DD13D3C08F4
:101DCA00C2004208F0003F0890317A208D31710834
:101DDA002000D3007008D2005208CE075308CF3D26
:101DEA000030D03DD13D3C08C2004208F000400816
:101DFA0090317A208D3171082000D3007008D2000A
:101E0A005208C2005308C300C401C5010830C235D4
:101E1A00C30DC40DC50D890B0C2F4208CE0743080C
:101E2A00CF3D4408D03D4508D13D4808C200490885
:101E3A00C3004A08C4004B08C5001830C536C40C94
:101E4A00C30CC20C890B232F4208CE074308CF3D8F
:101E5A004408D03D4508D13D0830C835C90DCA0DE2
:101E6A00CB0D890B322F4D084C07C200C301C30D9D
:101E7A004208823ED200FF30433DD3005B2F01303F
:101E8A00CE35CF0DD00DD10D890B452FCB1F4E2F3F
:101E9A004F2F502F4E140130C835C90DCA0DCB0D26
:101EAA00890B512FFF30D207FF30D33DD01F5E2F51
:101EBA005F2F442FCC01CB1F632F642F802FFF305D
:101ECA004805C200FF304905C300FF304A05C40077
:101EDA007F304B05C50045084404430442040319F6
:101EEA00772F782F7B2FCC01CC0A802F4E1C7E2F88
:101EFA007F2F802F782F4C080319842F852FAD2F21
:101F0A000130CE070030CF3D0030D03D0030D13D0A
:101F1A00511C902F912FAD2F4E08C2004F08C300BD
:101F2A005008C4005108C5000130C600C537C40CAA
:101F3A00C30CC20CC60B9B2F4508D1004408D00025
:101F4A004308CF004208CE000130D2070030D33D0B
:101F5A005308803AC20080304202031DB62FFF3078
:101F6A005202031CB92FBA2FC42F7F302000D10090
:101F7A008030D0000030CF000030CE00F32F200098
:101F8A005308803AC20080304202031DCE2F01302E
:101F9A0052020318D12FD22FDD2F00302000D1009A
:101FAA000030D0000030CF000030CE00C701F32F40
:101FBA0020005208C2004208CD00FF30CE05FF3093
:101FCA00CF057F30D0050030D1054D1CED2FEE2F07
:101FDA00EF2FD0174D36C2004208D1004708C20081
:101FEA004208D1045108BD005008BC004F08BB008C
:061FFA004E08BA000800C9
:10200600F20020000F1172089F31C0279031200086
:102016008F150B30F1006230890B0F28F10B0F285A
:10202600003220008F11080080302000D7065B08A0
:10203600F3005A08F2005908F1005808F000570852
:10204600F7005608F6005508F5005408F4008B31E1
:102056006A23903173082000D7007208D6007108F1
:10206600D5007008D4000800F7007108F500700864
:10207600F4007708F2007208F60076088600013050
:102086008700F60A7508F3007408F200F40A0319CB
:10209600F50A72088400730885000008C03F8908A5
:1020A600031D56285728402808008330F20072087E
:1020B60021009D057008F2000130F235FF3E031D38
:1020C60060287235F30073089D040830F200CA30A8
:1020D600890B6B28F20B6B2821009D149D18742820
:1020E600752871281C08F1001B08F0000800F8008C
:1020F600F401F5017008F200F3017208F6007308A6
:10210600F700781C872888288C287608F407770833
:10211600F53D0130F635F70D890B8D280310F80CC7
:102126007808031D9728982884287508F1007408F4
:10213600F00008007608BF3EF800FF30773DF90052
:10214600003079021A3003197802031CAB28AD2837
:102156000130AE280030FA00FB017A08FC007B084B
:10216600FD007C087D040319B928BA28C12820304F
:102176007604F60000307704F700C1280800200036
:10218600A300A101A201DA282008F900FA017908C2
:10219600F0007A08F1007808FB007B08F200923123
:1021A600A622903101302000A1070030A23D21086F
:1021B6002307F90079088600013087000108FA0034
:1021C6007A08A0002008031DE928EA28C728080085
:1021D600F40074080F39F1007108F2007408F03940
:1021E600F1007108F30020000F157308F1000430A8
:1021F600F136890BFB2871089F31C02790312000EA
:102206008F151A30890B0529003220008F117208AC
:102216009F31C027903120008F151A30890B112964
:10222600003220008F1108002200A8002230210071
:10223600ED006D082200A90028082100ED006D08B8
:102246002200AA00AB01AC01AD01AE0121082000BD
:10225600EC00220020082000EB0029302100ED00D0
:102266006D082000ED002A30913145219131220080
:102276002B0828072100ED006D0886000130870035
:10228600810108002100EA0020006C082100EC0012
:1022960020006B082100EB002200DB01DC0169292C
:1022A600EB302000EE006E08E9006D08EF006F08C5
:1022B600EA0021006A0889318821913120006908E5
:1022C6002200DB0720006A082200DC3D21006B08A3
:1022D60084006C0885001200031D72297329532996
:1022E60022005C082000EC0022005B082000EB00C6
:1022F600080000309F31C02791313430F300F230AE
:10230600890B8329F30B8329033090310320913104
:102316000D30F300FC30890B8E29F30B8E29033028
:102326009031032091311D30F3009130890B9929AA
:10233600F30B9929000003309031032091310230CC
:1023460090310320913102309031032091310830D1
:1023560090310320913100309031032091310C30BF
:1023660090310320913100309031032091310630B5
:102376009031032091310800F6007603031DC4292D
:10238600C529E22973087F3EF4007408F90079082C
:10239600F4000430F436890BCD297408F50075086D
:1023A600F70079080F39F4007408F80077089031BF
:1023B600032091317808903103209131042A0230AC
:1023C6007606031DE729E829042A7308BF3EF400B0
:1023D6007408F9007908F4000430F436890BF02902
:1023E6007408F5007508F70079080F39F4007408C9
:1023F600F800770890310320913178089031032056
:102406009131080000307005F80000307105F900C0
:1024160080307205FA007F307305FB007B087A0472
:1024260079047804031D182A192A212A0030F3009A
:102436000030F2000030F1000030F000003074058A
:10244600F80000307505F90080307605FA007F3017
:102456007705FB007B087A0479047804031D342A87
:10246600352A3D2A0030F7000030F6000030F5002E
:102476000030F40077087306031D4B2A76087206AF
:10248600031D4B2A75087106031D4B2A7408700636
:1024960003194E2A4F2A512A0310522A0314080000
:1024A600F601F31F572A582A5F2AF209F309F20A9E
:1024B6000319F30AF601F60AF11F622A632A682A4B
:1024C600F009F109F00A0319F10A700871040319F9
:1024D6006D2A6E2A972AF501F50A7A2A0130F03517
:1024E600F10D890B722A0130F4007408F507F11F0B
:1024F6007D2A7E2A712A71087302031D842A7008B8
:102506007202031C872A882A8C2A7008F202710834
:10251600F33B0130F136F00C890B8D2A0130F502C0
:10252600031D962A972A7E2A760803199B2A9C2A37
:10253600A12AF209F309F20A0319F30A7308F10052
:102546007208F000080072080319AA2AAB2AB02AFA
:102556007208031DAF2AB02AB52A700880310520FB
:102566009231FB2A7208033E86000130870016006E
:1025760001040319BF2AC02ADF2A7208033E860017
:1025860001308700403FF300413FF400720A8600A5
:1025960001308700403FF500413FF6007608803A5B
:1025A600F7007408803A7702031DDB2A7308750268
:1025B6000318DE2ADF2AFB2A7008F3007208860059
:1025C60001308700720A8400013085000008010787
:1025D600F400740886000130870073088100720ACF
:1025E6008600013087000130810741310318810AD6
:1025F6000800F5007508F4007408F8007108F70083
:102606007008F6000130F2020030F33B720A031D37
:10261600102B730A031D102B112B202BF001F10137
:10262600532B0130F4007408F8070130F607003028
:10263600F73D0130F2020030F33B7808860087014F
:1026460001080319272B282B462B760884007708C8
:10265600850012000319302B312B462B72087304A8
:102666000319362B372B462B76088400770885000E
:102676000008F4007808860087010108740603192B
:10268600452B462B142B7808860087017608840094
:102696007708850000080102F000F101031CF10330
:1026A60008002000AB002200611C5A2B5B2B642B18
:1026B60020002B08FC007C08F80024089031C2207A
:1026C60093312000A61B682B692B6E2B2608AA00C7
:1026D6002508A900702BA901AA01A701A801842B2E
:1026E6002030F0000030F10020002B08FC007C08B0
:1026F600F2009231A622933101302000A707003064
:10270600A83D2808803AFC002A08803A7C02031D6E
:102716008E2B29082702031C912B922B732B220048
:102726006118962B972BA02B20002B08FC007C0809
:10273600F80024089031C2209331200024089F31EC
:10274600A6279331200029087007A4002A08713DA6
:10275600A5000800F601F11FB12BB22BB92BF00929
:10276600F109F00A0319F10AF601F60AF31FBC2B68
:10277600BD2BC62BF209F309F20A0319F30A01303D
:10278600F4007408F606F701F801700871040319DD
:10279600CD2BCE2BFD2BF501F50ADA2B0130F035CA
:1027A600F10D890BD22B0130F4007408F507F11FE7
:1027B600DD2BDE2BD12B0130F735F80D890BDF2B06
:1027C60071087302031DE92B70087202031CEC2BBF
:1027D600ED2BF22B7008F2027108F33B77140130EF
:1027E600F136F00C890BF32B0130F502031DFC2B9F
:1027F600FD2BDE2B76080319012C022C072CF7097A
:10280600F809F70A0319F80A7808F1007708F000C2
:10281600080003102000560D570DD8005808DE009A
:102826005E08031D172C182C212C0030D700003011
:10283600D6000030D5000030D400802C5408D800D3
:102846005508D9005608DA005708DB001F30DB367A
:10285600DA0CD90CD80C890B2A2C5808DC005C0839
:10286600DD00D617FF30D405FF30D505FF30D6057D
:102876000030D7059630DE02DE1F422C432C5B2C3F
:102886005E08803A973E0318492C4A2C4B2C182C8C
:102896000130D736D60CD50CD40C890B4C2C013014
:1028A600D8005808DE07031D592C5A2C4B2C702CC7
:1028B60020305E02031C602C612C6B2C182C01301E
:1028C600D435D50DD60DD70D890B632C0130DE021C
:1028D6005E08031D6F2C702C622C5D080319742C86
:1028E600752C802CD409D509D609D709D40A031921
:1028F600D50A0319D60A0319D70A080022005A086E
:102906002000A500220059082000A4002200580833
:102916002000A300220057082000A2007308A5008B
:102926007208A4007108A3007008A2002208F4002F
:102936002308F5002408F6002508F7001730F736B7
:10294600F60CF50CF40C890BA22CFF307405A000D4
:1029560000307505A10020082104031DB32CB42CFA
:10296600D52C2208F4002308F5002408F6002508D3
:10297600F7000130F435F50DF60DF70D890BBD2C7A
:102986007708760475047404031DCA2CCB2CD02C4E
:102996000230F0000030F100FF2C0330F000003070
:1029A600F100FF2C200A2104031DDA2CDB2CFB2C62
:1029B6002208F4002308F5002408F6002508F7008D
:1029C6000930F435F50DF60DF70D890BE42C770873
:1029D6007604750474040319F12CF32C0130F42CDD
:1029E6000030F800F9017808F0007908F100FF2CB2
:1029F6000430F0000030F1000800003020005405DB
:102A0600DC0000305505DD0080305605DE007F30E5
:102A16005705DF005F085E045D045C04031D142D8A
:102A2600152D1D2D0030D7000030D6000030D50002
:102A36000030D40000305805DC0000305905DD00B8
:102A460080305A05DE007F305B05DF005F085E04DC
:102A56005D045C04031D302D312D392D0030DB0063
:102A66000030DA000030D9000030D800D71F3C2DE6
:102A76003D2D552D0030DC000030DD000030DE003D
:102A86008030DF005408DC025508DD3B5608DE3B8B
:102A96005708DF3B5F08D7005E08D6005D08D50003
:102AA6005C08D400DB1F582D592D712D0030DC0039
:102AB6000030DD000030DE008030DF005808DC0228
:102AC6005908DD3B5A08DE3B5B08DF3B5F08DB004D
:102AD6005E08DA005D08D9005C08D8008030D706A9
:102AE6008030DB065B085702031D832D5A08560209
:102AF600031D832D59085502031D832D58085402C2
:102B06000318862D872D892D03108A2D031408009E
:102B1600033020006002FF3003195F020318942D72
:102B2600952D4B2E5F08F0006008F100F201F301CD
:102B3600003080311120953173082000A7007208FB
:102B4600A6007108A5007008A4004430A3007F30D9
:102B5600A200C030A1000030A00096314C2695316D
:102B660020002308C1002208C0002108BF00200859
:102B7600BE000030BD000030BC000030BB0000309D
:102B8600BA008D31A925953120003D08E6003C08A4
:102B9600E5003B08E4003A08E3006608C100650862
:102BA600C0006408BF006308BE004030BD0080302E
:102BB600BC000030BB000030BA008D31A92595312C
:102BC60020003D08EA003C08E9003B08E8003A0816
:102BD600E7006A08C1006908C0006808BF00670806
:102BE600BE001B08013EF000003003180130F10062
:102BF600F201F11BF2037208F3000130803111205B
:102C0600953173082000BD007208BC007108BB0036
:102C16007008BA008D31A925953120003D08D700EE
:102C26003C08D6003B08D5003A08D40094310C2461
:102C3600953120005508E0005408DF006008E200E6
:102C46005F08E100E236E10C61182A2E2D2E2500E0
:102C560093162F2E2500931220005F18332E362E42
:102C660025001316382E2500131220006008E200F6
:102C76005F08E100E236E10CE236E10C610825006E
:102C860091002000911C482E492E442E21000E1141
:102C96000800200027088039A8002808B100273539
:102CA600A8002808B800A61F592E5A2E5B2E3814E5
:102CB600380803195F2E602E702E380A031D642E05
:102CC600652E6D2E0030A7000030A6000030A5004E
:102CD6000030A400A617A701782E0030A700003008
:102CE600A6000030A5000030A40023088039A80003
:102CF6002808B1062335A8002808B900A21F842E8B
:102D0600852E862E3914390803198A2E8B2E9B2E72
:102D1600390A031D8F2E902E982E0030A300003006
:102D2600A2000030A1000030A000A217A301A32E2C
:102D36000030A3000030A2000030A1000030A00047
:102D46002308220421042004031DAA2EAB2EC42E20
:102D56000030A7000030A6000030A5000030A40017
:102D66008030A6047F30A7043108A8002808A704ED
:102D76002708A3002608A2002508A1002408A00011
:102D8600FF2F3808031DC82EC92ED22E0030A300EF
:102D96000030A2000030A1000030A000FF2F38084C
:102DA600A800A9012908AB0039082802AA00031CBB
:102DB600AB032A087F3EB20000302B3DB300270844
:102DC600B0002608AF002508AE002408AD0000308C
:102DD600A7000030A6000030A5000030A400003097
:102DE600B7000030B6000030B5000030B400B901BD
:102DF6003A2F39080319002F012F1B2F0130AD354B
:102E0600AE0DAF0DB00D890B022F0130A435A50D07
:102E1600A60DA70D890B092FB71F122F132F142FDD
:102E260024140130B435B50DB60DB70D890B152F29
:102E360023083002031D292F22082F02031D292FE4
:102E460021082E02031D292F20082D02031C2C2FDA
:102E56002D2F362F37172008AD022108AE3B22084A
:102E6600AF3B2308B03B0130A8002808B9071A3049
:102E76003902031C3F2F402FFC2E30082F042E044E
:102E86002D040319472F482F612F3414612F013069
:102E9600A435A50DA60DA70D890B4B2FB71F542FD3
:102EA600552F562F24140130B435B50DB60DB70D78
:102EB600890B572FFF30B207FF30B33DA61F642F93
:102EC600652F4A2FB901B71F692F6A2F862FFF304A
:102ED6003405A800FF303505A900FF303605AA00E5
:102EE6007F303705AB002B082A0429042804031970
:102EF6007D2F7E2F812FB901B90A862F241C842F9E
:102F0600852F862F7E2F390803198A2F8B2FB32FF3
:102F16000130A4070030A53D0030A63D0030A73D96
:102F2600271C962F972FB32F2408A8002508A90041
:102F36002608AA002708AB000130AC00AB37AA0C64
:102F4600A90CA80CAC0BA12F2B08A7002A08A600D9
:102F56002908A5002808A4000130B2070030B33DB7
:102F66003308803AA80080302802031DBC2FFF30AA
:102F76003202031CBF2FC02FCD2FFF302000B2001E
:102F86000030B3000030A7000030A6000030A500D6
:102F96000030A40020003308803AA80080302802C0
:102FA600031DD72F013032020318DA2FDB2FE72F4C
:102FB6002000B201B3010030A7000030A6000030A7
:102FC600A5000030A400B10120003208A80028089E
:102FD600B800381CEF2FF02FF22FA617F62F7F30F0
:102FE600A8002808A6053836A8002808A700310832
:0A2FF600A8002808A704BB2E08005D
:103ED600013021009D00D0309E0008006400800162
:103EE6000131890B722F00340030903103209F314D
:103EF6000130903103209F31080021000E152D302E
:103F060020009B00250093151315200091101C100E
:103F16009C101C1508007008BF3EF200FF30713D72
:103F2600F300003073021A3003197202031C9C2F2F
:103F36009E2F01309F2F0030F400F5017408F00029
:103F46007508F1000800F4007408F2007208F30026
:103F5600B02F0130F2007208F407740886000130B1
:103F660087000108031DB82FB92FAC2F7308740200
:103F7600F000F101F01BF1030800F000701CC42FE3
:103F8600C52FC82F20000F16CA2F20000F12F01CB5
:103F9600CD2FCE2FD02F8F16D12F8F12701DD42F4D
:103FA600D52FD72F0F17D82F0F13F01DDB2FDC2F90
:103FB600DE2F8F17DF2F8F130800F800F601F701A9
:103FC600F32F76087807F50075088600013087001C
:103FD60001089031EB209F310130F6070030F73DA4
:103FE60076087807F5007508860001308700010815
:103FF600031DFE2FFF2FE42F0800443420346934BC
:1040060073343A34203425346634003449344E341B
:10401600463400344E3441344E34003469346E3400
:10402600663400346E3461346E3400346C34663475
:02403600003454
:020000040001F9
:04000E00E23FFF1FAF
:00000001FF
