:020000040000FA
:08000000803102288731EC2F4A
:1000F6003034753400340034013021009D00D03096
:100106009E0008008330F200720821009D057008E9
:10011600F2000130F235FF3E031D8D287235F300E3
:1001260073089D040830F200CA30890B9828F20B38
:10013600982821009D149D18A128A2289E281C08F5
:10014600F1001B08F0000800F800F401F501700842
:10015600F200F3017208F6007308F700781CB42861
:10016600B528B9287608F4077708F53D0130F63545
:10017600F70D890BBA280310F80C7808031DC4285C
:10018600C528B1287508F1007408F00008002100A0
:100196003008F9003108FA003208FB003308FC0089
:1001A6000230F935FA0DFB0DFC0D890BD4287C08BD
:1001B600F3007B08F2007A08F1007908F0000030BD
:1001C600F7007A30F6001230F5000030F400813185
:1001D600A12180317008FF3E20009B002500931569
:1001E600131520001C149C101C1521000E1108006C
:1001F6007030210099000E1523000E110C142100F9
:100206000C1480317F2080318031CA20803100304B
:10021600F000F10080318520803171082100AF00A7
:100226007008AE002F08A1002E08A0008231DE2241
:10023600803106302100AD001330AC00AD30890BA3
:100246002229AC0B2229AD0B222900320A29803142
:10025600022803102000660D670DE8006808EE000E
:100266006E08031D3729382941290030E700003080
:10027600E6000030E5000030E400A0296408E8004C
:100286006508E9006608EA006708EB001F30EB36F0
:10029600EA0CE90CE80C890B4A296808EC006C08A2
:1002A600ED00E617FF30E405FF30E505FF30E60513
:1002B6000030E7059630EE02EE1F622963297B299E
:1002C6006E08803A973E031869296A296B293829EE
:1002D6000130E736E60CE50CE40C890B6C2901309D
:1002E600E8006808EE07031D79297A296B29902909
:1002F60020306E02031C802981298B293829013080
:10030600E435E50DE60DE70D890B83290130EE0294
:100316006E08031D8F29902982296D0803199429D7
:100326009529A029E409E509E609E709E40A03197C
:10033600E50A0319E60A0319E70A08002000A101E5
:10034600F31FA629A729B429F009F109F209F3092F
:10035600F00A0319F10A0319F20A0319F30AA101B3
:10036600A10AF71FB729B829C729F409F509F6091B
:10037600F709F40A0319F50A0319F60A0319F70A25
:100386000130F8007808A1060030A5000030A4006E
:100396000030A3000030A2007308720471047004D8
:1003A6000319D629D729182AA001A00AE529013060
:1003B600F035F10DF20DF30D890BDB290130F80054
:1003C6007808A007F31FE829E929DA290130A235C0
:1003D600A30DA40DA50D890BEA2973087702031D49
:1003E600FE2972087602031DFE2971087502031D97
:1003F600FE2970087402031C012A022A0B2A7008BF
:10040600F4027108F53B7208F63B7308F73B2214B9
:100416000130F336F20CF10CF00C890B0C2A01308A
:10042600A002031D172A182AE929210803191C2AE4
:100436001D2A282AA209A309A409A509A20A0319A3
:10044600A30A0319A40A0319A50A2508F300240818
:10045600F2002308F1002208F00008002000AA009C
:100466002A080319372A382A4C2AA91F3B2A3C2A6C
:100476004C2A2609AC002709AD002809AE00290937
:10048600AF00AC0A0319AD0A0319AE0A0319AF0A85
:10049600542A2908AF002808AE002708AD00260810
:1004A600AC002908280427042604031D5B2A5C2ABD
:1004B600652A0030A9000030A8000030A7000030EF
:1004C600A600DD2A9630F9007908AB00752A0130BE
:1004D600F9007908AB070130AF36AE0CAD0CAC0CA9
:1004E600890B6F2AFE302F05031D7A2A7B2A6A2A7A
:1004F6008F2A0130F9007908AB070130AC070030CC
:10050600AD3D0030AE3D0030AF3D0130AF36AE0CF4
:10051600AD0CAC0C890B892AFF302F05031D942ADC
:10052600952A7C2A9F2A0130AB020130AC35AD0DED
:10053600AE0DAF0D890B992AAE1BA22AA32AA92AB2
:1005460002302B020318A82AA92A962A2B18AC2AAD
:10055600AD2AB52AFF30AC05FF30AD057F30AE05BC
:10056600FF30AF050310AB0C2B08F900FA01FB01B5
:10057600FC011830F935FA0DFB0DFC0D890BBD2A6F
:100586007908AC047A08AD047B08AE047C08AF0495
:100596002A080319CF2AD02AD52AA91FD32AD42A52
:1005A600D52AAF172F08A9002E08A8002D08A700E6
:1005B6002C08A6000800033021002102FF30031991
:1005C60020020318E72AE82AE02B20082000A600CC
:1005D600210021082000A700A801A90100308231CE
:1005E6003122823120002908B7002808B6002708E2
:1005F600B5002608B4004430B3007F30B200C030E6
:10060600B1000030B0008331E1238231200033088D
:10061600D1003208D0003108CF003008CE000030BB
:10062600F7000030F6000030F5000130F40021003C
:100636003308F3003208F2003108F1003008F00008
:100646008131A121823173082000A9007208A80017
:100656007108A7007008A60001308231312282316C
:1006660020002908CD002808CC002708CB00260842
:10067600CA0085319525823120004D082100A7004A
:1006860020004C082100A60020004B082100A500F0
:1006960020004A082100A40027082000D1002100DC
:1006A60026082000D000210025082000CF002100C8
:1006B60024082000CE004030CD008030CC00003031
:1006C600CB000030CA0085319525823120004D08C7
:1006D6002100AB0020004C082100AA0020004B0896
:1006E6002100A90020004A082100A8002B082000AC
:1006F600D10021002A082000D0002100290820006E
:10070600CF00210028082000CE001B08013EA600CD
:10071600003003180130A700A801A71BA80328086A
:10072600A900013082313122823120002908CD0012
:100736002808CC002708CB002608CA008531952555
:10074600823120004D08E7004C08E6004B08E50022
:100756004A08E40081312C218231200065082100FD
:10076600A100200064082100A0002108A3002008A1
:10077600A200A336A20C2218C12BC42B2500931667
:10078600C62B2500931221002018CA2BCD2B25003D
:100796001316CF2B2500131221002108A3002008D1
:1007A600A200A336A20CA336A20C220825009100B3
:1007B6002000911CDF2BE02BDB2B080020003708E4
:1007C6008039B8003808C1003735B8003808C80085
:1007D600B61FEE2BEF2BF02B481448080319F42B09
:1007E600F52B052C480A031DF92BFA2B022C003099
:1007F600B7000030B6000030B5000030B400B617C0
:10080600B7010D2C0030B7000030B6000030B5003F
:100816000030B40033088039B8003808C1063335D3
:10082600B8003808C900B21F192C1A2C1B2C491401
:10083600490803191F2C202C302C490A031D242C8F
:10084600252C2D2C0030B3000030B2000030B10052
:100856000030B000B217B301382C0030B3000030BE
:10086600B2000030B1000030B00033083204310469
:100876003004031D3F2C402C592C0030B7000030AB
:10088600B6000030B5000030B4008030B6047F30CA
:10089600B7044108B8003808B7043708B30036086B
:1008A600B2003508B1003408B000942D4808031D85
:1008B6005D2C5E2C672C0030B3000030B200003097
:1008C600B1000030B000942D4808B800B9013908CD
:1008D600BB0049083802BA00031CBB033A087F3E36
:1008E600C20000303B3DC3003708C0003608BF00D9
:1008F6003508BE003408BD000030B7000030B60031
:100906000030B5000030B4000030C7000030C6002B
:100916000030C5000030C400C901CF2C49080319B6
:10092600952C962CB02C0130BD35BE0DBF0DC00DDB
:10093600890B972C0130B435B50DB60DB70D890B63
:100946009E2CC71FA72CA82CA92C34140130C43503
:10095600C50DC60DC70D890BAA2C33084002031D11
:10096600BE2C32083F02031DBE2C31083E02031D79
:10097600BE2C30083D02031CC12CC22CCB2C4717C1
:100986003008BD023108BE3B3208BF3B3308C03BCE
:100996000130B8003808C9071A304902031CD42CA4
:1009A600D52C912C40083F043E043D040319DC2C51
:1009B600DD2CF62C4414F62C0130B435B50DB60DED
:1009C600B70D890BE02CC71FE92CEA2CEB2C34144D
:1009D6000130C435C50DC60DC70D890BEC2CFF3093
:1009E600C207FF30C33DB61FF92CFA2CDF2CC90114
:1009F600C71FFE2CFF2C1B2DFF304405B800FF300F
:100A06004505B900FF304605BA007F304705BB00F3
:100A16003B083A04390438040319122D132D162DF8
:100A2600C901C90A1B2D341C192D1A2D1B2D132D76
:100A3600490803191F2D202D482D0130B407003019
:100A4600B53D0030B63D0030B73D371C2B2D2C2D63
:100A5600482D3408B8003508B9003608BA003708FA
:100A6600BB000130BC00BB37BA0CB90CB80CBC0BD0
:100A7600362D3B08B7003A08B6003908B5003808E5
:100A8600B4000130C2070030C33D4308803AB800C5
:100A960080303802031D512DFF304202031C542DB5
:100AA600552D622DFF302000C2000030C3000030FB
:100AB600B7000030B6000030B5000030B4002000AA
:100AC6004308803AB80080303802031D6C2D01308F
:100AD600420203186F2D702D7C2D2000C201C30128
:100AE6000030B7000030B6000030B5000030B4006A
:100AF600C10120004208B8003808C800481C842DEF
:100B0600852D872DB6178B2D7F30B8003808B60592
:100B16004836B8003808B7004108B8003808B704A6
:100B2600502C080020004D088039D2005208D7000A
:100B36004D35D2005208DD00CC1FA22DA32DA42DC9
:100B46005D145D080319A82DA92DB82D5D0A031D96
:100B5600AD2DAE2DB62D0030CD000030CC000030CE
:100B6600CB000030CA00CC17C02D0030CD000030BD
:100B7600CC000030CB000030CA0051088039D200CA
:100B86005208D7065135D2005208DC00D01FCC2DB2
:100B9600CD2DCE2D5C145C080319D22DD32DE22D5C
:100BA6005C0A031DD72DD82DE02D0030D100003072
:100BB600D0000030CF000030CE00D017EA2D003034
:100BC600D1000030D0000030CF000030CE005C08ED
:100BD6000319EE2DEF2DF42D5D08031DF32DF42DD5
:100BE600FD2D0030CD000030CC000030CB000030B1
:100BF600CA00EB2F4A08D2005208F0005008803194
:100C0600A720853171082000E3007008E200620821
:100C1600D200D301D401D5015508DB005408DA000F
:100C26005308D9005208D8006308D200D301D40172
:100C3600D5015508E1005408E0005308DF005208CA
:100C4600DE004B08D2005208F0004F088031A72082
:100C5600853171082000E3007008E2006208D200C6
:100C6600D301D401D5015208D8075308D93D5408F9
:100C7600DA3D5508DB3D6308D200D301D401D50126
:100C86005208DE075308DF3D5408E03D5508E13DB4
:100C96004C08D2005208F0004E088031A72085315A
:100CA60071082000E3007008E2006208D200D30158
:100CB600D401D5015208D8075308D93D5408DA3D66
:100CC6005508DB3D6308D200D301D401D501520893
:100CD600DE075308DF3D5408E03D5508E13D083086
:100CE600D835D90DDA0DDB0D890B732E4B08D200E2
:100CF6005208F0004E088031A72085317108200087
:100D0600E3007008E2006208D8076308D93D0030A6
:100D1600DA3DDB3D4A08D2005208F0004F08803128
:100D2600A720853171082000E3007008E200620800
:100D3600D8076308D93D0030DA3DDB3D0830D835A9
:100D4600D90DDA0DDB0D890BA22E4A08D200520806
:100D5600F0004E088031A720853171082000E3009D
:100D66007008E2006208D8076308D93D0030DA3D12
:100D7600DB3D4B08D2005208F00050088031A72016
:100D8600853171082000E3007008E2006208DE0782
:100D96006308DF3D0030E03DE13D4C08D2005208DB
:100DA600F0004F088031A720853171082000E3004C
:100DB6007008E2006208DE076308DF3D0030E03DB0
:100DC600E13D4C08D2005208F00050088031A720BF
:100DD600853171082000E3007008E2006208D20045
:100DE6006308D300D401D5010830D235D30DD40D14
:100DF600D50D890BF82E5208DE075308DF3D54083F
:100E0600E03D5508E13D5808D2005908D3005A087C
:100E1600D4005B08D5001830D536D40CD30CD20CD0
:100E2600890B0F2F5208DE075308DF3D5408E03DBB
:100E36005508E13D0830D835D90DDA0DDB0D890BA3
:100E46001E2F5D085C07D200D301D30D5208823EE7
:100E5600E200FF30533DE300472F0130DE35DF0D62
:100E6600E00DE10D890B312FDB1F3A2F3B2F3C2F75
:100E76005E140130D835D90DDA0DDB0D890B3D2F07
:100E8600FF30E207FF30E33DE01F4A2F4B2F302FA4
:100E9600DC01DB1F4F2F502F6C2FFF305805D2007F
:100EA600FF305905D300FF305A05D4007F305B056B
:100EB600D50055085404530452040319632F642FB4
:100EC600672FDC01DC0A6C2F5E1C6A2F6B2F6C2FE0
:100ED600642F5C080319702F712F992F0130DE07DC
:100EE6000030DF3D0030E03D0030E13D611C7C2FED
:100EF6007D2F992F5E08D2005F08D3006008D400CA
:100F06006108D5000130D600D537D40CD30CD20CED
:100F1600D60B872F5508E1005408E0005308DF0080
:100F26005208DE000130E2070030E33D6308803AF4
:100F3600D20080305202031DA22FFF306202031C32
:100F4600A52FA62FB02F7F302000E1008030E000D3
:100F56000030DF000030DE00DF2F20006308803A1B
:100F6600D20080305202031DBA2F013062020318EC
:100F7600BD2FBE2FC92F00302000E1000030E00059
:100F86000030DF000030DE00D701DF2F20006208CE
:100F9600D2005208DD00FF30DE05FF30DF057F306E
:100FA600E0050030E1055D1CD92FDA2FDB2FE017B5
:100FB6005D36D2005208E1005708D2005208E1041B
:100FC6006108CD006008CC005F08CB005E08CA004F
:100FD6000800210080317B208731B00080317C20E1
:100FE6008731B10080317D208731B20080317E208B
:0A0FF6008731B30020008031FB2892
:020000040001F9
:04000E00E23FFF1FAF
:00000001FF
