:020000040000FA
:08000000803102288731EC2F4A
:100306003034753400340034013021009D00D03083
:100316009E00080021000E11043020009C000C30C5
:1003260025009300403020009B0008008330F20037
:10033600720821009D057008F2000130F235FF3E7B
:10034600031DA1297235F30073089D040830F200DD
:10035600CA30890BAC29F20BAC2921009D149D18DB
:10036600B529B629B2291C08F1001B08F0000800BF
:10037600F800F401F5017008F200F3017208F600C6
:100386007308F700781CC829C929CD297608F4070F
:100396007708F53D0130F635F70D890BCE290310A8
:1003A600F80C7808031DD829D929C5297508F10044
:1003B6007408F000080023000C1421000C1481318D
:1003C6008D2181318131872181310030F000F100AA
:1003D60081319921813171082000ED007008EC000F
:1003E6006D08E0006C08DF008331272381318230FD
:1003F6002000EB00DD30890BFE29EB0BFE290032D5
:10040600E8298031022803102000560D570DD80028
:100416005808DE005E08031D112A122A1B2A003026
:10042600D7000030D6000030D5000030D4007A2A3C
:100436005408D8005508D9005608DA005708DB00DA
:100446001F30DB36DA0CD90CD80C890B242A580855
:10045600DC005C08DD00D617FF30D405FF30D5057B
:10046600FF30D6050030D7059630DE02DE1F3C2A67
:100476003D2A552A5E08803A973E0318432A442AA5
:10048600452A122A0130D736D60CD50CD40C890B46
:10049600462A0130D8005808DE07031D532A542A7D
:1004A600452A6A2A20305E02031C5A2A5B2A652ADC
:1004B600122A0130D435D50DD60DD70D890B5D2AFC
:1004C6000130DE025E08031D692A6A2A5C2A5D087D
:1004D60003196E2A6F2A7A2AD409D509D609D709AB
:1004E600D40A0319D50A0319D60A0319D70A08002C
:1004F600F80078080319802A812A952AF31F842A8E
:10050600852A952A7009FA007109FB007209FC0018
:100516007309FD00FA0A0319FB0A0319FC0A0319F9
:10052600FD0A9D2A7308FD007208FC007108FB0095
:100536007008FA007308720471047004031DA42A7B
:10054600A52AAE2A0030F3000030F2000030F10098
:100556000030F000262B9630F4007408F900BE2A0D
:100566000130F4007408F9070130FD36FC0CFB0C71
:10057600FA0C890BB82AFE307D05031DC32AC42A4E
:10058600B32AD82A0130F4007408F9070130FA07B3
:100596000030FB3D0030FC3D0030FD3D0130FD36B6
:1005A600FC0CFB0CFA0C890BD22AFF307D05031DCF
:1005B600DD2ADE2AC52AE82A0130F9020130FA3599
:1005C600FB0DFC0DFD0D890BE22AFC1BEB2AEC2A28
:1005D600F22A023079020318F12AF22ADF2A791860
:1005E600F52AF62AFE2AFF30FA05FF30FB057F3092
:1005F600FC05FF30FD050310F90C7908F400F50140
:10060600F601F7011830F435F50DF60DF70D890BE7
:10061600062B7408FA047508FB047608FC047708B0
:10062600FD0478080319182B192B1E2BF31F1C2BFE
:100636001D2B1E2BFD177D08F3007C08F2007B089E
:10064600F1007A08F0000800033020006002FF3055
:1006560003195F020318302B312BE02B5F08F000E3
:100666006008F100F201F301003082317B22833110
:1006760073082000A7007208A6007108A50070087C
:10068600A4004430A3007F30A200C030A100003097
:10069600A0008331E123833120002308C100220812
:1006A600C0002108BF002008BE004230BD00C8308F
:1006B600BC000030BB000030BA008531952583317F
:1006C60020003D08E6003C08E5003B08E4003A0847
:1006D600E3006608C1006508C0006408BF0063083F
:1006E600BE004030BD008030BC000030BB00003092
:1006F600BA0085319525833120003D08EA003C0883
:10070600E9003B08E8003A08E7006A08C100690802
:10071600C0006808BF006708BE001B08013EF00065
:10072600003003180130F100F201F11BF2037208E8
:10073600F300013082317B22833173082000BD0033
:100746007208BC007108BB007008BA008531952597
:10075600833120003D08D7003C08D6003B08D50071
:100766003A08D40082310622833120005508E00081
:100776005408DF006008E2005F08E100E236E10CA1
:10078600E236E10C61082500910020006008E200D5
:100796005F08E100E236E10C6118D22BD52B25006B
:1007A6009316D72B2500931220005F18DB2BDE2B28
:1007B60025001316E02B2500131208002000270839
:1007C6008039A8002808B1002735A8002808B800F5
:1007D600A61FEE2BEF2BF02B381438080319F42B39
:1007E600F52B052C380A031DF92BFA2B022C0030A9
:1007F600A7000030A6000030A5000030A400A61710
:10080600A7010D2C0030A7000030A6000030A5007F
:100816000030A40023088039A8002808B106233533
:10082600A8002808B900A21F192C1A2C1B2C391451
:10083600390803191F2C202C302C390A031D242CAF
:10084600252C2D2C0030A3000030A2000030A10082
:100856000030A000A217A301382C0030A3000030FE
:10086600A2000030A1000030A000230822042104C9
:100876002004031D3F2C402C592C0030A7000030CB
:10088600A6000030A5000030A4008030A6047F300A
:10089600A7043108A8002808A7042708A3002608EB
:1008A600A2002508A1002408A000942D3808031DE5
:1008B6005D2C5E2C672C0030A3000030A2000030B7
:1008C600A1000030A000942D3808A800A90129082D
:1008D600AB0039082802AA00031CAB032A087F3E96
:1008E600B20000302B3DB3002708B0002608AF0049
:1008F6002508AE002408AD000030A7000030A60091
:100906000030A5000030A4000030B7000030B6006B
:100916000030B5000030B400B901CF2C39080319F6
:10092600952C962CB02C0130AD35AE0DAF0DB00D1B
:10093600890B972C0130A435A50DA60DA70D890BA3
:100946009E2CB71FA72CA82CA92C24140130B43533
:10095600B50DB60DB70D890BAA2C23083002031D61
:10096600BE2C22082F02031DBE2C21082E02031DB9
:10097600BE2C20082D02031CC12CC22CCB2C3717F1
:100986002008AD022108AE3B2208AF3B2308B03B4E
:100996000130A8002808B9071A303902031CD42CE4
:1009A600D52C912C30082F042E042D040319DC2C91
:1009B600DD2CF62C3414F62C0130A435A50DA60D2D
:1009C600A70D890BE02CB71FE92CEA2CEB2C24147D
:1009D6000130B435B50DB60DB70D890BEC2CFF30D3
:1009E600B207FF30B33DA61FF92CFA2CDF2CB90154
:1009F600B71FFE2CFF2C1B2DFF303405A800FF303F
:100A06003505A900FF303605AA007F303705AB0053
:100A16002B082A04290428040319122D132D162D38
:100A2600B901B90A1B2D241C192D1A2D1B2D132DA6
:100A3600390803191F2D202D482D0130A407003039
:100A4600A53D0030A63D0030A73D271C2B2D2C2DA3
:100A5600482D2408A8002508A9002608AA0027086A
:100A6600AB000130AC00AB37AA0CA90CA80CAC0B40
:100A7600362D2B08A7002A08A6002908A500280855
:100A8600A4000130B2070030B33D3308803AA80015
:100A960080302802031D512DFF303202031C542DD5
:100AA600552D622DFF302000B2000030B30000301B
:100AB600A7000030A6000030A5000030A4002000EA
:100AC6003308803AA80080302802031D6C2D0130BF
:100AD600320203186F2D702D7C2D2000B201B30158
:100AE6000030A7000030A6000030A5000030A400AA
:100AF600B10120003208A8002808B800381C842D4F
:100B0600852D872DA6178B2D7F30A8002808A605D2
:100B16003836A8002808A7003108A8002808A70426
:100B2600502C080020003D088039C2004208C7004A
:100B36003D35C2004208CD00BC1FA22DA32DA42D19
:100B46004D144D080319A82DA92DB82D4D0A031DC6
:100B5600AD2DAE2DB62D0030BD000030BC000030EE
:100B6600BB000030BA00BC17C02D0030BD000030FD
:100B7600BC000030BB000030BA0041088039C2001A
:100B86004208C7064135C2004208CC00C01FCC2D22
:100B9600CD2DCE2D4C144C080319D22DD32DE22D7C
:100BA6004C0A031DD72DD82DE02D0030C100003092
:100BB600C0000030BF000030BE00C017EA2D003074
:100BC600C1000030C0000030BF000030BE004C083D
:100BD6000319EE2DEF2DF42D4D08031DF32DF42DE5
:100BE600FD2D0030BD000030BC000030BB000030E1
:100BF600BA00EB2F3A08C2004208F00040088131E3
:100C0600BB21853171082000D3007008D20052083C
:100C1600C200C301C401C5014508CB004408CA008F
:100C26004308C9004208C8005308C200C301C401F2
:100C3600C5014508D1004408D0004308CF0042084A
:100C4600CE003B08C2004208F0003F088131BB21BC
:100C5600853171082000D3007008D2005208C20006
:100C6600C301C401C5014208C8074308C93D440879
:100C7600CA3D4508CB3D5308C200C301C401C501A6
:100C86004208CE074308CF3D4408D03D4508D13D34
:100C96003C08C2004208F0003E088131BB21853184
:100CA60071082000D3007008D2005208C200C301A8
:100CB600C401C5014208C8074308C93D4408CA3DE6
:100CC6004508CB3D5308C200C301C401C501420813
:100CD600CE074308CF3D4408D03D4508D13D0830F6
:100CE600C835C90DCA0DCB0D890B732E3B08C20042
:100CF6004208F0003E088131BB2185317108200091
:100D0600D3007008D2005208C8075308C93D003006
:100D1600CA3DCB3D3A08C2004208F0003F08813187
:100D2600BB21853171082000D3007008D20052081B
:100D3600C8075308C93D0030CA3DCB3D0830C83509
:100D4600C90DCA0DCB0D890BA22E3A08C200420866
:100D5600F0003E088131BB21853171082000D300A7
:100D66007008D2005208C8075308C93D0030CA3D72
:100D7600CB3D3B08C2004208F00040088131BB2150
:100D8600853171082000D3007008D2005208CE07C2
:100D96005308CF3D0030D03DD13D3C08C20042084B
:100DA600F0003F088131BB21853171082000D30056
:100DB6007008D2005208CE075308CF3D0030D03D10
:100DC600D13D3C08C2004208F00040088131BB21F9
:100DD600853171082000D3007008D2005208C20085
:100DE6005308C300C401C5010830C235C30DC40D84
:100DF600C50D890BF82E4208CE074308CF3D44089F
:100E0600D03D4508D13D4808C2004908C3004A08FC
:100E1600C4004B08C5001830C536C40CC30CC20C40
:100E2600890B0F2F4208CE074308CF3D4408D03D1B
:100E36004508D13D0830C835C90DCA0DCB0D890B03
:100E46001E2F4D084C07C200C301C30D4208823E47
:100E5600D200FF30433DD300472F0130CE35CF0DB2
:100E6600D00DD10D890B312FCB1F3A2F3B2F3C2FA5
:100E76004E140130C835C90DCA0DCB0D890B3D2F57
:100E8600FF30D207FF30D33DD01F4A2F4B2F302FD4
:100E9600CC01CB1F4F2F502F6C2FFF304805C200BF
:100EA600FF304905C300FF304A05C4007F304B05BB
:100EB600C50045084404430442040319632F642F04
:100EC600672FCC01CC0A6C2F4E1C6A2F6B2F6C2F10
:100ED600642F4C080319702F712F992F0130CE07FC
:100EE6000030CF3D0030D03D0030D13D511C7C2F2D
:100EF6007D2F992F4E08C2004F08C3005008C4002A
:100F06005108C5000130C600C537C40CC30CC20C5D
:100F1600C60B872F4508D1004408D0004308CF00F0
:100F26004208CE000130D2070030D33D5308803A44
:100F3600C20080304202031DA22FFF305202031C62
:100F4600A52FA62FB02F7F302000D1008030D000F3
:100F56000030CF000030CE00DF2F20005308803A4B
:100F6600C20080304202031DBA2F0130520203181C
:100F7600BD2FBE2FC92F00302000D1000030D00079
:100F86000030CF000030CE00C701DF2F200052080E
:100F9600C2004208CD00FF30CE05FF30CF057F30BE
:100FA600D0050030D1054D1CD92FDA2FDB2FD017F5
:100FB6004D36C2004208D1004708C2004208D1049B
:100FC6005108BD005008BC004F08BB004E08BA00CF
:100FD60008002100813183218731A00081318421DD
:100FE6008731A100813185218731A2008131862197
:0A0FF6008731A30020008131DE29BD
:020000040001F9
:04000E00E23FFF1FAF
:00000001FF
